{"abi":[{"type":"constructor","inputs":[{"name":"_stablecoin","type":"address","internalType":"address"},{"name":"_userRegistry","type":"address","internalType":"address"},{"name":"_aiOracle","type":"address","internalType":"address"}],"stateMutability":"nonpayable"},{"type":"function","name":"aiOracle","inputs":[],"outputs":[{"name":"","type":"address","internalType":"contract AIOracle"}],"stateMutability":"view"},{"type":"function","name":"approve","inputs":[{"name":"to","type":"address","internalType":"address"},{"name":"tokenId","type":"uint256","internalType":"uint256"}],"outputs":[],"stateMutability":"nonpayable"},{"type":"function","name":"badgeCounter","inputs":[],"outputs":[{"name":"","type":"uint256","internalType":"uint256"}],"stateMutability":"view"},{"type":"function","name":"badgeToSubmissionId","inputs":[{"name":"","type":"uint256","internalType":"uint256"}],"outputs":[{"name":"","type":"uint256","internalType":"uint256"}],"stateMutability":"view"},{"type":"function","name":"balanceOf","inputs":[{"name":"owner","type":"address","internalType":"address"}],"outputs":[{"name":"","type":"uint256","internalType":"uint256"}],"stateMutability":"view"},{"type":"function","name":"createTest","inputs":[{"name":"title","type":"string","internalType":"string"},{"name":"description","type":"string","internalType":"string"},{"name":"ipfsHash","type":"string","internalType":"string"},{"name":"fee","type":"uint256","internalType":"uint256"}],"outputs":[],"stateMutability":"nonpayable"},{"type":"function","name":"deactivateTest","inputs":[{"name":"testId","type":"uint256","internalType":"uint256"}],"outputs":[],"stateMutability":"nonpayable"},{"type":"function","name":"freelancerBadges","inputs":[{"name":"","type":"address","internalType":"address"},{"name":"","type":"uint256","internalType":"uint256"}],"outputs":[{"name":"","type":"uint256","internalType":"uint256"}],"stateMutability":"view"},{"type":"function","name":"getApproved","inputs":[{"name":"tokenId","type":"uint256","internalType":"uint256"}],"outputs":[{"name":"","type":"address","internalType":"address"}],"stateMutability":"view"},{"type":"function","name":"getFreelancerBadges","inputs":[{"name":"user","type":"address","internalType":"address"}],"outputs":[{"name":"","type":"uint256[]","internalType":"uint256[]"}],"stateMutability":"view"},{"type":"function","name":"getSubmission","inputs":[{"name":"submissionId","type":"uint256","internalType":"uint256"}],"outputs":[{"name":"","type":"tuple","internalType":"struct SkillTrial.Submission","components":[{"name":"testId","type":"uint256","internalType":"uint256"},{"name":"applicant","type":"address","internalType":"address"},{"name":"submissionHash","type":"string","internalType":"string"},{"name":"status","type":"uint8","internalType":"enum SkillTrial.SubmissionStatus"},{"name":"submittedAt","type":"uint256","internalType":"uint256"},{"name":"score","type":"uint8","internalType":"uint8"},{"name":"report","type":"string","internalType":"string"}]}],"stateMutability":"view"},{"type":"function","name":"getSubmissionCount","inputs":[],"outputs":[{"name":"","type":"uint256","internalType":"uint256"}],"stateMutability":"view"},{"type":"function","name":"getTest","inputs":[{"name":"testId","type":"uint256","internalType":"uint256"}],"outputs":[{"name":"","type":"tuple","internalType":"struct SkillTrial.SkillTest","components":[{"name":"title","type":"string","internalType":"string"},{"name":"description","type":"string","internalType":"string"},{"name":"ipfsHash","type":"string","internalType":"string"},{"name":"fee","type":"uint256","internalType":"uint256"},{"name":"isActive","type":"bool","internalType":"bool"},{"name":"submissionCount","type":"uint256","internalType":"uint256"}]}],"stateMutability":"view"},{"type":"function","name":"getTestCount","inputs":[],"outputs":[{"name":"","type":"uint256","internalType":"uint256"}],"stateMutability":"view"},{"type":"function","name":"isApprovedForAll","inputs":[{"name":"owner","type":"address","internalType":"address"},{"name":"operator","type":"address","internalType":"address"}],"outputs":[{"name":"","type":"bool","internalType":"bool"}],"stateMutability":"view"},{"type":"function","name":"mint","inputs":[{"name":"user","type":"address","internalType":"address"},{"name":"submissionId","type":"uint256","internalType":"uint256"},{"name":"score","type":"uint8","internalType":"uint8"},{"name":"report","type":"string","internalType":"string"}],"outputs":[],"stateMutability":"nonpayable"},{"type":"function","name":"name","inputs":[],"outputs":[{"name":"","type":"string","internalType":"string"}],"stateMutability":"view"},{"type":"function","name":"owner","inputs":[],"outputs":[{"name":"","type":"address","internalType":"address"}],"stateMutability":"view"},{"type":"function","name":"ownerOf","inputs":[{"name":"tokenId","type":"uint256","internalType":"uint256"}],"outputs":[{"name":"","type":"address","internalType":"address"}],"stateMutability":"view"},{"type":"function","name":"renounceOwnership","inputs":[],"outputs":[],"stateMutability":"nonpayable"},{"type":"function","name":"safeTransferFrom","inputs":[{"name":"from","type":"address","internalType":"address"},{"name":"to","type":"address","internalType":"address"},{"name":"tokenId","type":"uint256","internalType":"uint256"}],"outputs":[],"stateMutability":"nonpayable"},{"type":"function","name":"safeTransferFrom","inputs":[{"name":"from","type":"address","internalType":"address"},{"name":"to","type":"address","internalType":"address"},{"name":"tokenId","type":"uint256","internalType":"uint256"},{"name":"data","type":"bytes","internalType":"bytes"}],"outputs":[],"stateMutability":"nonpayable"},{"type":"function","name":"setAiOracle","inputs":[{"name":"_aiOracle","type":"address","internalType":"address"}],"outputs":[],"stateMutability":"nonpayable"},{"type":"function","name":"setApprovalForAll","inputs":[{"name":"operator","type":"address","internalType":"address"},{"name":"approved","type":"bool","internalType":"bool"}],"outputs":[],"stateMutability":"nonpayable"},{"type":"function","name":"skillTests","inputs":[{"name":"","type":"uint256","internalType":"uint256"}],"outputs":[{"name":"title","type":"string","internalType":"string"},{"name":"description","type":"string","internalType":"string"},{"name":"ipfsHash","type":"string","internalType":"string"},{"name":"fee","type":"uint256","internalType":"uint256"},{"name":"isActive","type":"bool","internalType":"bool"},{"name":"submissionCount","type":"uint256","internalType":"uint256"}],"stateMutability":"view"},{"type":"function","name":"stablecoin","inputs":[],"outputs":[{"name":"","type":"address","internalType":"contract IERC20"}],"stateMutability":"view"},{"type":"function","name":"submissions","inputs":[{"name":"","type":"uint256","internalType":"uint256"}],"outputs":[{"name":"testId","type":"uint256","internalType":"uint256"},{"name":"applicant","type":"address","internalType":"address"},{"name":"submissionHash","type":"string","internalType":"string"},{"name":"status","type":"uint8","internalType":"enum SkillTrial.SubmissionStatus"},{"name":"submittedAt","type":"uint256","internalType":"uint256"},{"name":"score","type":"uint8","internalType":"uint8"},{"name":"report","type":"string","internalType":"string"}],"stateMutability":"view"},{"type":"function","name":"submitTrial","inputs":[{"name":"testId","type":"uint256","internalType":"uint256"},{"name":"submissionHash","type":"string","internalType":"string"}],"outputs":[{"name":"","type":"uint256","internalType":"uint256"}],"stateMutability":"nonpayable"},{"type":"function","name":"supportsInterface","inputs":[{"name":"interfaceId","type":"bytes4","internalType":"bytes4"}],"outputs":[{"name":"","type":"bool","internalType":"bool"}],"stateMutability":"view"},{"type":"function","name":"symbol","inputs":[],"outputs":[{"name":"","type":"string","internalType":"string"}],"stateMutability":"view"},{"type":"function","name":"tokenURI","inputs":[{"name":"tokenId","type":"uint256","internalType":"uint256"}],"outputs":[{"name":"","type":"string","internalType":"string"}],"stateMutability":"view"},{"type":"function","name":"transferFrom","inputs":[{"name":"from","type":"address","internalType":"address"},{"name":"to","type":"address","internalType":"address"},{"name":"tokenId","type":"uint256","internalType":"uint256"}],"outputs":[],"stateMutability":"nonpayable"},{"type":"function","name":"transferOwnership","inputs":[{"name":"newOwner","type":"address","internalType":"address"}],"outputs":[],"stateMutability":"nonpayable"},{"type":"function","name":"userRegistry","inputs":[],"outputs":[{"name":"","type":"address","internalType":"contract UserRegistry"}],"stateMutability":"view"},{"type":"function","name":"withdrawFees","inputs":[{"name":"to","type":"address","internalType":"address"}],"outputs":[],"stateMutability":"nonpayable"},{"type":"event","name":"Approval","inputs":[{"name":"owner","type":"address","indexed":true,"internalType":"address"},{"name":"approved","type":"address","indexed":true,"internalType":"address"},{"name":"tokenId","type":"uint256","indexed":true,"internalType":"uint256"}],"anonymous":false},{"type":"event","name":"ApprovalForAll","inputs":[{"name":"owner","type":"address","indexed":true,"internalType":"address"},{"name":"operator","type":"address","indexed":true,"internalType":"address"},{"name":"approved","type":"bool","indexed":false,"internalType":"bool"}],"anonymous":false},{"type":"event","name":"OwnershipTransferred","inputs":[{"name":"previousOwner","type":"address","indexed":true,"internalType":"address"},{"name":"newOwner","type":"address","indexed":true,"internalType":"address"}],"anonymous":false},{"type":"event","name":"TestCreated","inputs":[{"name":"testId","type":"uint256","indexed":true,"internalType":"uint256"},{"name":"title","type":"string","indexed":false,"internalType":"string"},{"name":"fee","type":"uint256","indexed":false,"internalType":"uint256"}],"anonymous":false},{"type":"event","name":"Transfer","inputs":[{"name":"from","type":"address","indexed":true,"internalType":"address"},{"name":"to","type":"address","indexed":true,"internalType":"address"},{"name":"tokenId","type":"uint256","indexed":true,"internalType":"uint256"}],"anonymous":false},{"type":"event","name":"TrialGraded","inputs":[{"name":"submissionId","type":"uint256","indexed":true,"internalType":"uint256"},{"name":"score","type":"uint8","indexed":false,"internalType":"uint8"},{"name":"badgeId","type":"uint256","indexed":true,"internalType":"uint256"}],"anonymous":false},{"type":"event","name":"TrialSubmitted","inputs":[{"name":"submissionId","type":"uint256","indexed":true,"internalType":"uint256"},{"name":"testId","type":"uint256","indexed":true,"internalType":"uint256"},{"name":"applicant","type":"address","indexed":true,"internalType":"address"}],"anonymous":false},{"type":"error","name":"AlreadySubmitted","inputs":[]},{"type":"error","name":"ERC721IncorrectOwner","inputs":[{"name":"sender","type":"address","internalType":"address"},{"name":"tokenId","type":"uint256","internalType":"uint256"},{"name":"owner","type":"address","internalType":"address"}]},{"type":"error","name":"ERC721InsufficientApproval","inputs":[{"name":"operator","type":"address","internalType":"address"},{"name":"tokenId","type":"uint256","internalType":"uint256"}]},{"type":"error","name":"ERC721InvalidApprover","inputs":[{"name":"approver","type":"address","internalType":"address"}]},{"type":"error","name":"ERC721InvalidOperator","inputs":[{"name":"operator","type":"address","internalType":"address"}]},{"type":"error","name":"ERC721InvalidOwner","inputs":[{"name":"owner","type":"address","internalType":"address"}]},{"type":"error","name":"ERC721InvalidReceiver","inputs":[{"name":"receiver","type":"address","internalType":"address"}]},{"type":"error","name":"ERC721InvalidSender","inputs":[{"name":"sender","type":"address","internalType":"address"}]},{"type":"error","name":"ERC721NonexistentToken","inputs":[{"name":"tokenId","type":"uint256","internalType":"uint256"}]},{"type":"error","name":"InsufficientFee","inputs":[]},{"type":"error","name":"OnlyBackend","inputs":[]},{"type":"error","name":"OnlyOracle","inputs":[]},{"type":"error","name":"OwnableInvalidOwner","inputs":[{"name":"owner","type":"address","internalType":"address"}]},{"type":"error","name":"OwnableUnauthorizedAccount","inputs":[{"name":"account","type":"address","internalType":"address"}]},{"type":"error","name":"ReentrancyGuardReentrantCall","inputs":[]},{"type":"error","name":"TestNotActive","inputs":[]}],"bytecode":{"object":"0x60c06040523461005e5761001a61001461013f565b916102e6565b610022610063565b6144a361080e823960805181818161163401528181611b1d01528181611b8d0152613307015260a0518181816109ce015261253f01526144a390f35b610069565b60405190565b5f80fd5b601f801991011690565b634e487b7160e01b5f52604160045260245ffd5b906100959061006d565b810190811060018060401b038211176100ad57604052565b610077565b906100c56100be610063565b928361008b565b565b5f80fd5b60018060a01b031690565b6100df906100cb565b90565b6100eb816100d6565b036100f257565b5f80fd5b90505190610103826100e2565b565b909160608284031261013a57610137610120845f85016100f6565b9361012e81602086016100f6565b936040016100f6565b90565b6100c7565b61015d614cb180380380610152816100b2565b928339810190610105565b909192565b60018060401b03811161017e5761017a60209161006d565b0190565b610077565b9061019561019083610162565b6100b2565b918252565b5f7f48756d616e576f726b20536b696c6c2042616467650000000000000000000000910152565b6101cb6015610183565b906101d86020830161019a565b565b6101e26101c1565b90565b5f7f4857534b494c4c00000000000000000000000000000000000000000000000000910152565b6102166007610183565b90610223602083016101e5565b565b61022d61020c565b90565b90565b61024761024261024c926100cb565b610230565b6100cb565b90565b61025890610233565b90565b6102649061024f565b90565b61027090610233565b90565b61027c90610267565b90565b61028890610233565b90565b6102949061027f565b90565b5f1b90565b906102ad60018060a01b0391610297565b9181191691161790565b6102c09061027f565b90565b90565b906102db6102d66102e2926102b7565b6102c3565b825461029c565b9055565b9161031c6103249261031461032b9561030f336103016101da565b610309610225565b916103b1565b61025b565b608052610273565b60a05261028b565b60076102c6565b565b90565b90565b61034761034261034c9261032d565b610230565b610330565b90565b6103596001610333565b90565b906103685f1991610297565b9181191691161790565b61038661038161038b92610330565b610230565b610330565b90565b90565b906103a66103a16103ad92610372565b61038e565b825461035c565b9055565b906103bc929161042d565b6103de6103c761034f565b5f6103d86103d3610724565b610738565b01610391565b565b90565b6103f76103f26103fc926103e0565b610230565b6100cb565b90565b610408906103e3565b90565b610414906100d6565b9052565b919061042b905f6020850194019061040b565b565b91610437916106bb565b8061045261044c6104475f6103ff565b6100d6565b916100d6565b1461046257610460906107ac565b565b61048561046e5f6103ff565b5f918291631e4fbdf760e01b835260048301610418565b0390fd5b5190565b634e487b7160e01b5f52602260045260245ffd5b90600160028304921680156104c1575b60208310146104bc57565b61048d565b91607f16916104b1565b5f5260205f2090565b601f602091010490565b1b90565b919060086104fd9102916104f75f19846104de565b926104de565b9181191691161790565b919061051d61051861052593610372565b61038e565b9083546104e2565b9055565b5f90565b61053f91610539610529565b91610507565b565b5b81811061054d575050565b8061055a5f60019361052d565b01610542565b9190601f8111610570575b505050565b61057c6105a1936104cb565b906020610588846104d4565b830193106105a9575b61059a906104d4565b0190610541565b5f808061056b565b915061059a81929050610591565b1c90565b906105cb905f19906008026105b7565b191690565b816105da916105bb565b906002021790565b906105ec81610489565b9060018060401b0382116106aa5761060e8261060885546104a1565b85610560565b602090601f831160011461064257918091610631935f92610636575b50506105d0565b90555b565b90915001515f8061062a565b601f19831691610651856104cb565b925f5b81811061069257509160029391856001969410610678575b50505002019055610634565b610688910151601f8416906105bb565b90555f808061066c565b91936020600181928787015181550195019201610654565b610077565b906106b9916105e2565b565b906106c96106d0925f6106af565b60016106af565b565b5f90565b90565b90565b6106f06106eb6106f5926106d6565b610297565b6106d9565b90565b6107217f9b779b17422d0df92223018b32b4d1fa46e071723d6817e2486d003becc55f006106dc565b90565b61072c6106d2565b506107356106f8565b90565b90565b5f1c90565b60018060a01b031690565b61075761075c9161073b565b610740565b90565b610769905461074b565b90565b61077590610233565b90565b6107819061076c565b90565b90565b9061079c6107976107a392610778565b610784565b825461029c565b9055565b5f0190565b6107b6600661075f565b6107c1826006610787565b906107f56107ef7f8be0079c531659141344cd1fd0a4f28419497f9722a3daafe3b4186f6b6457e093610778565b91610778565b916107fe610063565b80610808816107a7565b0390a356fe60806040526004361015610013575b61186f565b61001d5f3561024c565b806301ffc9a71461024757806306fdde0314610242578063081812fc1461023d5780630853ad8a14610238578063095ea7b3146102335780630a7fefdd1461022e578063164e68de1461022957806323b872dd1461022457806331b221cd1461021f5780633e8686cc1461021a57806342842e0e146102155780635b9d73d7146102105780635c7460d61461020b5780636352211e14610206578063644acc6014610201578063674c0583146101fc57806370a08231146101f7578063715018a6146101f257806386fc79c8146101ed5780638da5cb5b146101e8578063939b27ee146101e357806395d89b41146101de5780639999d2ae146101d9578063a22cb465146101d4578063a8744d5e146101cf578063ad73349e146101ca578063b88d4fde146101c5578063c87b56dd146101c0578063e5ed9884146101bb578063e985e9c5146101b6578063e9cbd822146101b1578063edef019d146101ac578063f2fde38b146101a7578063f9e5dbaa146101a25763fda1fd830361000e5761183c565b611806565b61178e565b611759565b611684565b6115fc565b61159a565b611556565b61151f565b611408565b61121d565b61119e565b611119565b6110e4565b6110ad565b610fe9565b610fb4565b610eef565b610eba565b610e7e565b610beb565b610a53565b610a1e565b610996565b610899565b610864565b6106dd565b61060c565b61059f565b61054e565b61051a565b610490565b610439565b610387565b6102d8565b60e01c90565b60405190565b5f80fd5b5f80fd5b5f80fd5b63ffffffff60e01b1690565b61027981610264565b0361028057565b5f80fd5b9050359061029182610270565b565b906020828203126102ac576102a9915f01610284565b90565b61025c565b151590565b6102bf906102b1565b9052565b91906102d6905f602085019401906102b6565b565b34610308576103046102f36102ee366004610293565b611877565b6102fb610252565b918291826102c3565b0390f35b610258565b5f91031261031757565b61025c565b5190565b60209181520190565b90825f9392825e0152565b601f801991011690565b61035d61036660209361036b936103548161031c565b93848093610320565b95869101610329565b610334565b0190565b6103849160208201915f81840391015261033e565b90565b346103b75761039736600461030d565b6103b36103a26118f0565b6103aa610252565b9182918261036f565b0390f35b610258565b90565b6103c8816103bc565b036103cf57565b5f80fd5b905035906103e0826103bf565b565b906020828203126103fb576103f8915f016103d3565b90565b61025c565b60018060a01b031690565b61041490610400565b90565b6104209061040b565b9052565b9190610437905f60208501940190610417565b565b346104695761046561045461044f3660046103e2565b611909565b61045c610252565b91829182610424565b0390f35b610258565b610477906103bc565b9052565b919061048e905f6020850194019061046e565b565b346104c0576104a036600461030d565b6104bc6104ab61192c565b6104b3610252565b9182918261047b565b0390f35b610258565b6104ce8161040b565b036104d557565b5f80fd5b905035906104e6826104c5565b565b9190604083820312610510578061050461050d925f86016104d9565b936020016103d3565b90565b61025c565b5f0190565b346105495761053361052d3660046104e8565b90611942565b61053b610252565b8061054581610515565b0390f35b610258565b3461057c576105666105613660046103e2565b6119d0565b61056e610252565b8061057881610515565b0390f35b610258565b9060208282031261059a57610597915f016104d9565b90565b61025c565b346105cd576105b76105b2366004610581565b611c61565b6105bf610252565b806105c981610515565b0390f35b610258565b9091606082840312610607576106046105ed845f85016104d9565b936105fb81602086016104d9565b936040016103d3565b90565b61025c565b3461063b5761062561061f3660046105d2565b91611cc9565b61062d610252565b8061063781610515565b0390f35b610258565b1c90565b60018060a01b031690565b61065f9060086106649302610640565b610644565b90565b90610672915461064f565b90565b61068160075f90610667565b90565b90565b61069b6106966106a092610400565b610684565b610400565b90565b6106ac90610687565b90565b6106b8906106a3565b90565b6106c4906106af565b9052565b91906106db905f602085019401906106bb565b565b3461070d576106ed36600461030d565b6107096106f8610675565b610700610252565b918291826106c8565b0390f35b610258565b61071b906103bc565b9052565b6107289061040b565b9052565b60209181520190565b61075461075d6020936107629361074b8161031c565b9384809361072c565b95869101610329565b610334565b0190565b634e487b7160e01b5f52602160045260245ffd5b6002111561078457565b610766565b906107938261077a565b565b61079e90610789565b90565b6107aa90610795565b9052565b60ff1690565b6107bd906107ae565b9052565b6108499160c061080260e083016107de5f8601515f860190610712565b6107f06020860151602086019061071f565b60408501518482036040860152610735565b92610815606082015160608501906107a1565b61082760808201516080850190610712565b61083960a082015160a08501906107b4565b01519060c0818403910152610735565b90565b6108619160208201915f8184039101526107c1565b90565b346108945761089061087f61087a3660046103e2565b611eeb565b610887610252565b9182918261084c565b0390f35b610258565b346108c8576108b26108ac3660046105d2565b91611f39565b6108ba610252565b806108c481610515565b0390f35b610258565b6108d6906106a3565b90565b906108e3906108cd565b5f5260205260405f2090565b634e487b7160e01b5f52603260045260245ffd5b5490565b5f5260205f2090565b61091981610903565b8210156109335761092b600191610907565b910201905f90565b6108ef565b90565b61094b9060086109509302610640565b610938565b90565b9061095e915461093b565b90565b61096c90600a6108d9565b61097581610903565b8210156109925761098f9161098991610910565b90610953565b90565b5f80fd5b346109c7576109c36109b26109ac3660046104e8565b90610961565b6109ba610252565b9182918261047b565b0390f35b610258565b7f000000000000000000000000000000000000000000000000000000000000000090565b6109f9906106a3565b90565b610a05906109f0565b9052565b9190610a1c905f602085019401906109fc565b565b34610a4e57610a2e36600461030d565b610a4a610a396109cc565b610a41610252565b91829182610a09565b0390f35b610258565b34610a8357610a7f610a6e610a693660046103e2565b611f4f565b610a76610252565b91829182610424565b0390f35b610258565b610a91816107ae565b03610a9857565b5f80fd5b90503590610aa982610a88565b565b5f80fd5b5f80fd5b634e487b7160e01b5f52604160045260245ffd5b90610ad190610334565b810190811067ffffffffffffffff821117610aeb57604052565b610ab3565b90610b03610afc610252565b9283610ac7565b565b67ffffffffffffffff8111610b2357610b1f602091610334565b0190565b610ab3565b90825f939282370152565b90929192610b48610b4382610b05565b610af0565b93818552602085019082840111610b6457610b6292610b28565b565b610aaf565b9080601f83011215610b8757816020610b8493359101610b33565b90565b610aab565b90608082820312610be657610ba3815f84016104d9565b92610bb182602085016103d3565b92610bbf8360408301610a9c565b92606082013567ffffffffffffffff8111610be157610bde9201610b69565b90565b610260565b61025c565b34610c1d57610c07610bfe366004610b8c565b9291909161268b565b610c0f610252565b80610c1981610515565b0390f35b610258565b5490565b5f5260205f2090565b610c3881610c22565b821015610c5257610c4a600691610c26565b910201905f90565b6108ef565b634e487b7160e01b5f52602260045260245ffd5b9060016002830492168015610c8b575b6020831014610c8657565b610c57565b91607f1691610c7b565b5f5260205f2090565b905f9291805490610cb8610cb183610c6b565b809461072c565b916001811690815f14610d0f5750600114610cd3575b505050565b610ce09192939450610c95565b915f925b818410610cf757505001905f8080610cce565b60018160209295939554848601520191019290610ce4565b92949550505060ff19168252151560200201905f8080610cce565b90610d3491610c9e565b90565b90610d57610d5092610d47610252565b93848092610d2a565b0383610ac7565b565b5f1c90565b610d6a610d6f91610d59565b610938565b90565b610d7c9054610d5e565b90565b60ff1690565b610d91610d9691610d59565b610d7f565b90565b610da39054610d85565b90565b600890610db282610c22565b811015610e1257610dc291610c2f565b5090610dcf5f8301610d37565b91610ddc60018201610d37565b91610de960028301610d37565b91610df660038201610d72565b91610e0f6005610e0860048501610d99565b9301610d72565b90565b5f80fd5b9194610e6b610e6060a095610e52610e7c99610e44610e75979d9c9a9d60c08a01908a82035f8c015261033e565b9088820360208a015261033e565b90868203604088015261033e565b98606085019061046e565b60808301906102b6565b019061046e565b565b34610eb557610eb1610e99610e943660046103e2565b610da6565b92610ea8969496929192610252565b96879687610e16565b0390f35b610258565b34610eea57610ee6610ed5610ed0366004610581565b6126af565b610edd610252565b9182918261047b565b0390f35b610258565b34610f1d57610eff36600461030d565b610f0761273a565b610f0f610252565b80610f1981610515565b0390f35b610258565b5190565b60209181520190565b60200190565b90610f4281602093610712565b0190565b60200190565b90610f69610f63610f5c84610f22565b8093610f26565b92610f2f565b905f5b818110610f795750505090565b909192610f92610f8c6001928651610f35565b94610f46565b9101919091610f6c565b610fb19160208201915f818403910152610f4c565b90565b34610fe457610fe0610fcf610fca366004610581565b6127f7565b610fd7610252565b91829182610f9c565b0390f35b610258565b3461101957610ff936600461030d565b611015611004612816565b61100c610252565b91829182610424565b0390f35b610258565b6080818303126110a8575f81013567ffffffffffffffff81116110a35782611047918301610b69565b92602082013567ffffffffffffffff811161109e5783611068918401610b69565b9260408301359067ffffffffffffffff82116110995761108d81611096938601610b69565b936060016103d3565b90565b610260565b610260565b610260565b61025c565b346110df576110c96110c036600461101e565b92919091612af6565b6110d1610252565b806110db81610515565b0390f35b610258565b34611114576110f436600461030d565b6111106110ff612b04565b611107610252565b9182918261036f565b0390f35b610258565b346111495761112936600461030d565b611145611134612b1a565b61113c610252565b9182918261047b565b0390f35b610258565b611157816102b1565b0361115e57565b5f80fd5b9050359061116f8261114e565b565b9190604083820312611199578061118d611196925f86016104d9565b93602001611162565b90565b61025c565b346111cd576111b76111b1366004611171565b90612b30565b6111bf610252565b806111c981610515565b0390f35b610258565b6111e66111e16111eb926103bc565b610684565b6103bc565b90565b906111f8906111d2565b5f5260205260405f2090565b61121a90611215600b915f926111ee565b610953565b90565b3461124d576112496112386112333660046103e2565b611204565b611240610252565b9182918261047b565b0390f35b610258565b5490565b5f5260205f2090565b61126881611252565b8210156112825761127a600791611256565b910201905f90565b6108ef565b60018060a01b031690565b61129e6112a391610d59565b611287565b90565b6112b09054611292565b90565b60ff1690565b6112c56112ca91610d59565b6112b3565b90565b6112d790546112b9565b90565b60ff1690565b6112ec6112f191610d59565b6112da565b90565b6112fe90546112e0565b90565b60099061130d82611252565b8110156113795761131d9161125f565b506113295f8201610d72565b91611336600183016112a6565b9161134360028201610d37565b91611350600383016112cd565b9161135d60048201610d72565b91611376600661136f600585016112f4565b9301610d37565b90565b5f80fd5b61138690610795565b9052565b611393906107ae565b9052565b939591946113e46113d96113ee936113f8966113cc6114059c9a6113c260e08c01945f8d019061046e565b60208b0190610417565b88820360408a015261033e565b97606087019061137d565b608085019061046e565b60a083019061138a565b60c081840391015261033e565b90565b3461143f5761143b61142361141e3660046103e2565b611301565b93611432979597939193610252565b97889788611397565b0390f35b610258565b67ffffffffffffffff81116114625761145e602091610334565b0190565b610ab3565b9092919261147c61147782611444565b610af0565b938185526020850190828401116114985761149692610b28565b565b610aaf565b9080601f830112156114bb578160206114b893359101611467565b90565b610aab565b9060808282031261151a576114d7815f84016104d9565b926114e582602085016104d9565b926114f383604083016103d3565b92606082013567ffffffffffffffff811161151557611512920161149d565b90565b610260565b61025c565b346115515761153b6115323660046114c0565b92919091612b46565b611543610252565b8061154d81610515565b0390f35b610258565b346115865761158261157161156c3660046103e2565b612bf0565b611579610252565b9182918261036f565b0390f35b610258565b611597600c5f90610953565b90565b346115ca576115aa36600461030d565b6115c66115b561158b565b6115bd610252565b9182918261047b565b0390f35b610258565b91906040838203126115f757806115eb6115f4925f86016104d9565b936020016104d9565b90565b61025c565b3461162d576116296116186116123660046115cf565b90612c88565b611620610252565b918291826102c3565b0390f35b610258565b7f000000000000000000000000000000000000000000000000000000000000000090565b61165f906106a3565b90565b61166b90611656565b9052565b9190611682905f60208501940190611662565b565b346116b45761169436600461030d565b6116b061169f611632565b6116a7610252565b9182918261166f565b0390f35b610258565b6116c2906102b1565b9052565b9061173e9060a08061170f6116fd6116eb60c086015f8901518782035f890152610735565b60208801518682036020880152610735565b60408701518582036040870152610735565b9461172260608201516060860190610712565b611734608082015160808601906116b9565b0151910190610712565b90565b6117569160208201915f8184039101526116c6565b90565b346117895761178561177461176f3660046103e2565b612dc7565b61177c610252565b91829182611741565b0390f35b610258565b346117bc576117a66117a1366004610581565b612e4c565b6117ae610252565b806117b881610515565b0390f35b610258565b919091604081840312611801576117da835f83016103d3565b92602082013567ffffffffffffffff81116117fc576117f99201610b69565b90565b610260565b61025c565b346118375761183361182261181c3660046117c1565b906133e0565b61182a610252565b9182918261047b565b0390f35b610258565b3461186a5761185461184f366004610581565b613464565b61185c610252565b8061186681610515565b0390f35b610258565b5f80fd5b5f90565b61187f611873565b508061189a6118946380ac58cd60e01b610264565b91610264565b1480156118be575b9081156118ae575b5090565b6118b8915061346f565b5f6118aa565b50806118d96118d3635b5e139f60e01b610264565b91610264565b146118a2565b606090565b6118ed90610d37565b90565b6118f86118df565b506119025f6118e4565b90565b5f90565b61192590611915611905565b5061191f81613495565b50613501565b90565b5f90565b611934611928565b5061193f6008610c22565b90565b906119569190611950613520565b9161352d565b565b6119699061196461353d565b6119b5565b565b5f1b90565b9061197c60ff9161196b565b9181191691161790565b61198f906102b1565b90565b90565b906119aa6119a56119b192611986565b611992565b8254611970565b9055565b6119ce9060046119c75f926008610c2f565b5001611995565b565b6119d990611958565b565b6119ec906119e761353d565b611b13565b565b6119f7906106a3565b90565b5f80fd5b60e01b90565b90505190611a11826103bf565b565b90602082820312611a2c57611a29915f01611a04565b90565b61025c565b611a39610252565b3d5f823e3d90fd5b90505190611a4e8261114e565b565b90602082820312611a6957611a66915f01611a41565b90565b61025c565b916020611a8f929493611a8860408201965f830190610417565b019061046e565b565b5f7f5769746864726177616c206661696c6564000000000000000000000000000000910152565b611ac56011602092610320565b611ace81611a91565b0190565b611ae79060208101905f818303910152611ab8565b90565b15611af157565b611af9610252565b62461bcd60e51b815280611b0f60048201611ad2565b0390fd5b611b736020611b417f0000000000000000000000000000000000000000000000000000000000000000611656565b6370a0823190611b68611b53306119ee565b92611b5c610252565b958694859384936119fe565b835260048301610424565b03915afa8015611c5c576020915f91611c2f575b50611bb17f0000000000000000000000000000000000000000000000000000000000000000611656565b611bd45f63a9059cbb959395611bdf611bc8610252565b978896879586946119fe565b845260048401611a6e565b03925af18015611c2a57611bfa915f91611bfc575b50611aea565b565b611c1d915060203d8111611c23575b611c158183610ac7565b810190611a50565b5f611bf4565b503d611c0b565b611a31565b611c4f9150823d8111611c55575b611c478183610ac7565b810190611a13565b5f611b87565b503d611c3d565b611a31565b611c6a906119db565b565b90565b611c83611c7e611c8892611c6c565b610684565b610400565b90565b611c9490611c6f565b90565b604090611cc0611cc79496959396611cb660608401985f850190610417565b602083019061046e565b0190610417565b565b919080611ce6611ce0611cdb5f611c8b565b61040b565b9161040b565b14611d3d57611cfe9082611cf8613520565b916135a7565b9182611d12611d0c8361040b565b9161040b565b03611d1c57505050565b611d399091925f9384936364283d7b60e01b855260048501611c97565b0390fd5b611d60611d495f611c8b565b5f918291633250574960e11b835260048301610424565b0390fd5b611d6e60e0610af0565b90565b5f90565b5f90565b606090565b5f90565b5f90565b611d8e611d64565b90602080808080808088611da0611d71565b815201611dab611d75565b815201611db6611d79565b815201611dc1611d7e565b815201611dcc611d71565b815201611dd7611d82565b815201611de2611d79565b81525050565b611df0611d86565b90565b90611dfd906103bc565b9052565b90611e0b9061040b565b9052565b52565b90611e1c90610789565b9052565b90611e2a906107ae565b9052565b90611edd611ed46006611e3f611d64565b94611e56611e4e5f8301610d72565b5f8801611df3565b611e6e611e65600183016112a6565b60208801611e01565b611e86611e7d60028301610d37565b60408801611e0f565b611e9e611e95600383016112cd565b60608801611e12565b611eb6611ead60048301610d72565b60808801611df3565b611ece611ec5600583016112f4565b60a08801611e20565b01610d37565b60c08401611e0f565b565b611ee890611e2e565b90565b611f02611f0891611efa611de8565b50600961125f565b50611edf565b90565b90611f1d611f1883610b05565b610af0565b918252565b611f2b5f611f0b565b90565b611f36611f22565b90565b91611f4d9291611f47611f2e565b92612b46565b565b611f6190611f5b611905565b50613495565b90565b611f70611f7591610d59565b610644565b90565b611f829054611f64565b90565b92919033611fac611fa6611fa1611f9c6007611f78565b6106af565b61040b565b9161040b565b03611fbc57611fba93611fd8565b565b5f6380fee10560e01b815280611fd460048201610515565b0390fd5b90611fec939291611fe7613754565b61245c565b611ff461378d565b565b90565b5f7f5375626d697373696f6e206e6f742070656e64696e6700000000000000000000910152565b61202d6016602092610320565b61203681611ff9565b0190565b61204f9060208101905f818303910152612020565b90565b1561205957565b612061610252565b62461bcd60e51b8152806120776004820161203a565b0390fd5b61208490610789565b90565b90565b9061209f61209a6120a69261207b565b612087565b8254611970565b9055565b6120be6120b96120c3926107ae565b610684565b6107ae565b90565b90565b906120de6120d96120e5926120aa565b6120c6565b8254611970565b9055565b634e487b7160e01b5f525f60045260245ffd5b601f602091010490565b1b90565b9190600861212591029161211f5f1984612106565b92612106565b9181191691161790565b90565b9190612148612143612150936111d2565b61212f565b90835461210a565b9055565b61216691612160611928565b91612132565b565b5b818110612174575050565b806121815f600193612154565b01612169565b9190601f8111612197575b505050565b6121a36121c893610c95565b9060206121af846120fc565b830193106121d0575b6121c1906120fc565b0190612168565b5f8080612192565b91506121c1819290506121b8565b906121ee905f1990600802610640565b191690565b816121fd916121de565b906002021790565b9061220f8161031c565b9067ffffffffffffffff82116122cf576122338261222d8554610c6b565b85612187565b602090601f831160011461226757918091612256935f9261225b575b50506121f3565b90555b565b90915001515f8061224f565b601f1983169161227685610c95565b925f5b8181106122b75750916002939185600196941061229d575b50505002019055612259565b6122ad910151601f8416906121de565b90555f8080612291565b91936020600181928787015181550195019201612279565b610ab3565b906122de91612205565b565b90565b6122f76122f26122fc926122e0565b610684565b6107ae565b90565b9190612312905f6020850194019061138a565b565b634e487b7160e01b5f52601160045260245ffd5b612331906103bc565b5f19811461233f5760010190565b612314565b906123505f199161196b565b9181191691161790565b9061236f61236a612376926111d2565b61212f565b8254612344565b9055565b90565b5f5260205f2090565b5490565b61239381612386565b8210156123ad576123a560019161237d565b910201905f90565b6108ef565b90815491680100000000000000008310156123e257826123da9160016123e09501815561238a565b90612132565b565b610ab3565b5f9103126123f157565b61025c565b6003111561240057565b610766565b9061240f826123f6565b565b61241a90612405565b90565b61242690612411565b9052565b60409061245361245a949695939661244960608401985f850190610417565b602083019061241d565b019061046e565b565b926124c29060066124786124726009869061125f565b50611ff6565b916124a0612488600385016112cd565b61249a6124945f610789565b91610789565b14612052565b6124ae60016003850161208a565b6124bb86600585016120c9565b91016122d4565b816124d66124d060506122e3565b916107ae565b10155f14612635576124e8600c610d72565b6124fb6124f482612328565b600c61235a565b926125078185906137b1565b61252561251e612519600a84906108d9565b61237a565b85906123b2565b61253a82612535600b87906111ee565b61235a565b6125637f00000000000000000000000000000000000000000000000000000000000000006109f0565b90636b335311905f928692813b15612630575f6125939161259e8296612587610252565b988997889687956119fe565b85526004850161242a565b03925af1801561262b576125ff575b509091906125f96125e76125e17fb3911870883d2d1dfe50a5fad33cba6bc87bb4faf524a41187e0aa5e5e3a72b7936111d2565b936111d2565b936125f0610252565b918291826122ff565b0390a35b565b61261e905f3d8111612624575b6126168183610ac7565b8101906123e7565b5f6125ad565b503d61260c565b611a31565b6119fa565b9091505f199061268361267161266b7fb3911870883d2d1dfe50a5fad33cba6bc87bb4faf524a41187e0aa5e5e3a72b7936111d2565b936111d2565b9361267a610252565b918291826122ff565b0390a36125fd565b90612697939291611f85565b565b906126a3906108cd565b5f5260205260405f2090565b6126b7611928565b50806126d36126cd6126c85f611c8b565b61040b565b9161040b565b146126ee576126e66126eb916003612699565b610d72565b90565b6127116126fa5f611c8b565b5f9182916322718ad960e21b835260048301610424565b0390fd5b61271d61353d565b612725612727565b565b6127386127335f611c8b565b6137c7565b565b612742612715565b565b606090565b60209181520190565b61275c9054610d5e565b90565b60010190565b9061278261277c61277584610903565b8093612749565b92610907565b905f5b8181106127925750505090565b9091926127b26127ac6001926127a787612752565b610f35565b9461275f565b9101919091612785565b906127c691612765565b90565b906127e96127e2926127d9610252565b938480926127bc565b0383610ac7565b565b6127f4906127c9565b90565b61280e61281391612806612744565b50600a6108d9565b6127eb565b90565b61281e611905565b5061282960066112a6565b90565b9061284093929161283b61353d565b612a1b565b565b90565b61284f60c0610af0565b90565b9061285c906102b1565b9052565b61287461286f61287992611c6c565b610684565b6103bc565b90565b5f5260205f2090565b5490565b61289281612885565b8210156128ac576128a460069161287c565b910201905f90565b6108ef565b5190565b6128bf90516103bc565b90565b6128cc90516102b1565b90565b9061295e60a06005612964946128f25f82016128ec5f88016128b1565b906122d4565b61290b60018201612905602088016128b1565b906122d4565b6129246002820161291e604088016128b1565b906122d4565b61293d60038201612937606088016128b5565b9061235a565b61295660048201612950608088016128c2565b90611995565b0192016128b5565b9061235a565b565b919061297757612975916128cf565b565b6120e9565b90815491680100000000000000008310156129ac57826129a49160016129aa95018155612889565b90612966565b565b610ab3565b90565b6129c86129c36129cd926129b1565b610684565b6103bc565b90565b6129df6129e5919392936103bc565b926103bc565b82039182116129f057565b612314565b92916020612a11612a199360408701908782035f89015261033e565b94019061046e565b565b915f90612a8e612a85612a9394612a80612a356008612842565b94612a77899391612a6e8c91612a65600195612a5c8d99612a54612845565b9e8f01611e0f565b60208d01611e0f565b60408b01611e0f565b60608901611df3565b60808701612852565b612860565b60a08401611df3565b61297c565b612ab0612aa06008610c22565b612aaa60016129b4565b906129d0565b9091612adc7f812f46015ecceb58bd8c000c4b31e2eac9d57e2bfadbbaa557dd3408067d47df926111d2565b92612af1612ae8610252565b928392836129f5565b0390a2565b90612b0293929161282c565b565b612b0c6118df565b50612b1760016118e4565b90565b612b22611928565b50612b2d6009611252565b90565b612b4491612b3c613520565b919091613828565b565b91612b6a9391612b5884828491611cc9565b612b60613520565b93909192936139ec565b565b90565b5190565b612b7b611f22565b90565b905090565b612ba8612b9f92602092612b968161031c565b94858093612b7e565b93849101610329565b0190565b612bba90612bc09392612b83565b90612b83565b90565b612be29291612bee91612bd4610252565b948592602084019283612bac565b90810382520383610ac7565b565b612bf86118df565b50612c0281613495565b50612c0b613b40565b90612c1d612c1883612b6c565b612b6f565b612c2f612c295f612860565b916103bc565b115f14612c4d57612c43612c499291613be4565b90612bc3565b5b90565b5050612c57612b73565b612c4a565b90612c66906108cd565b5f5260205260405f2090565b90612c7c906108cd565b5f5260205260405f2090565b612cad91612ca3612ca892612c9b611873565b506005612c5c565b612c72565b610d99565b90565b612cba60c0610af0565b90565b5f90565b612cc9612cb0565b906020808080808087612cda611d79565b815201612ce5611d79565b815201612cf0611d79565b815201612cfb611d71565b815201612d06612cbd565b815201612d11611d71565b81525050565b612d1f612cc1565b90565b90612db9612db06005612d33612cb0565b94612d4a612d425f8301610d37565b5f8801611e0f565b612d62612d5960018301610d37565b60208801611e0f565b612d7a612d7160028301610d37565b60408801611e0f565b612d92612d8960038301610d72565b60608801611df3565b612daa612da160048301610d99565b60808801612852565b01610d72565b60a08401611df3565b565b612dc490612d22565b90565b612dde612de491612dd6612d17565b506008610c2f565b50612dbb565b90565b612df890612df361353d565b612dfa565b565b80612e15612e0f612e0a5f611c8b565b61040b565b9161040b565b14612e2557612e23906137c7565b565b612e48612e315f611c8b565b5f918291631e4fbdf760e01b835260048301610424565b0390fd5b612e5590612de7565b565b90612e6a9291612e65613754565b613121565b90612e7361378d565b565b90565b604090612ea1612ea89496959396612e9760608401985f850190610417565b6020830190610417565b019061046e565b565b5f7f466565207472616e73666572206661696c656400000000000000000000000000910152565b612ede6013602092610320565b612ee781612eaa565b0190565b612f009060208101905f818303910152612ed1565b90565b15612f0a57565b612f12610252565b62461bcd60e51b815280612f2860048201612eeb565b0390fd5b90565b612f3960e0610af0565b90565b612f50612f4b612f5592611c6c565b610684565b6107ae565b90565b5f5260205f2090565b5490565b612f6e81612f61565b821015612f8857612f80600791612f58565b910201905f90565b6108ef565b612f97905161040b565b90565b90612fab60018060a01b039161196b565b9181191691161790565b90565b90612fcd612fc8612fd4926108cd565b612fb5565b8254612f9a565b9055565b612fe29051610789565b90565b612fef90516107ae565b90565b9061309a60c060066130a0946130155f820161300f5f88016128b5565b9061235a565b61302e6001820161302860208801612f8d565b90612fb8565b61304760028201613041604088016128b1565b906122d4565b6130606003820161305a60608801612fd8565b9061208a565b61307960048201613073608088016128b5565b9061235a565b6130926005820161308c60a08801612fe5565b906120c9565b0192016128b1565b906122d4565b565b91906130b3576130b191612ff2565b565b6120e9565b90815491680100000000000000008310156130e857826130e09160016130e695018155612f65565b906130a2565b565b610ab3565b61311161311e94929361310760608401955f85019061046e565b6020830190610417565b604081840391015261033e565b90565b5061313761313160088390610c2f565b50612e75565b9161314d61314760048501610d99565b156102b1565b6133c45761315d60038401610d72565b61316f6131695f612860565b916103bc565b11613302575b61322460056131846009611252565b9461320c5f6131936009612f2c565b6131f36131ea896131e5336131dc8c6131d389916131ca42956131c18d996131b9612f2f565b9e8f01611df3565b60208d01611e01565b60408b01611e0f565b60608901611e12565b60808701611df3565b612f3c565b60a08401611e20565b6132076131fe612b73565b60c08401611e0f565b6130b8565b0161321e61321982610d72565b612328565b9061235a565b60206132386132336007611f78565b6106af565b63e4b04d1a9061325d5f87936132683397613251610252565b988997889687956119fe565b8552600485016130ed565b03925af180156132fd576132d1575b50819033906132b86132b26132ac7f5ca58d4762c93ced4f122a84bb22fc4fea796adc287af3fc35f2e5e821009905956111d2565b926111d2565b926108cd565b926132c1610252565b806132cb81610515565b0390a490565b6132f19060203d81116132f6575b6132e98183610ac7565b810190611a13565b613277565b503d6132df565b611a31565b61332b7f0000000000000000000000000000000000000000000000000000000000000000611656565b60206323b872dd9133906133665f613342306119ee565b9561337161335260038c01610d72565b61335a610252565b988997889687956119fe565b855260048501612e78565b03925af180156133bf5761338c915f91613391575b50612f03565b613175565b6133b2915060203d81116133b8575b6133aa8183610ac7565b810190611a50565b5f613386565b503d6133a0565b611a31565b5f63c17b352960e01b8152806133dc60048201610515565b0390fd5b906133f2916133ed611928565b612e57565b90565b6134069061340161353d565b61344f565b565b61341190610687565b90565b61341d90613408565b90565b61342990613408565b90565b90565b9061344461343f61344b92613420565b61342c565b8254612f9a565b9055565b61345b61346291613414565b600761342f565b565b61346d906133f5565b565b613477611873565b5061349161348b6301ffc9a760e01b610264565b91610264565b1490565b61349d611905565b506134a781613c8d565b90816134c36134bd6134b85f611c8b565b61040b565b9161040b565b146134cc575090565b6134e7905f918291637e27328960e01b83526004830161047b565b0390fd5b906134f5906111d2565b5f5260205260405f2090565b61351861351d91613510611905565b5060046134eb565b6112a6565b90565b613528611905565b503390565b9161353b9291600192613cac565b565b613545612816565b61355e613558613553613520565b61040b565b9161040b565b0361356557565b613587613570613520565b5f91829163118cdaa760e01b835260048301610424565b0390fd5b9061359691036103bc565b90565b906135a491016103bc565b90565b906135b0611905565b506135ba81613c8d565b92806135d66135d06135cb5f611c8b565b61040b565b9161040b565b03613715575b50826135f86135f26135ed5f611c8b565b61040b565b9161040b565b036136c1575b8161361961361361360e5f611c8b565b61040b565b9161040b565b0361368b575b6136348261362f600284906134eb565b612fb8565b829161367261366c6136667fddf252ad1be2c89b69c2b068fc378daa952ba7f163c4a11628f55a4df523b3ef956108cd565b926108cd565b926111d2565b9261367b610252565b8061368581610515565b0390a490565b6136bc61369860016129b4565b6136b66136a760038690612699565b916136b183610d72565b613599565b9061235a565b61361f565b6136df6136cd5f611c8b565b826136d75f611c8b565b905f92613cac565b6137106136ec60016129b4565b61370a6136fb60038790612699565b9161370583610d72565b61358b565b9061235a565b6135fe565b6137229084908391613df6565b5f6135dc565b90565b61373f61373a61374492613728565b610684565b6103bc565b90565b613751600261372b565b90565b61375c613e72565b61377e613767613747565b5f613778613773613eee565b613f02565b0161235a565b565b61378a60016129b4565b90565b6137af613798613780565b5f6137a96137a4613eee565b613f02565b0161235a565b565b906137c591906137bf611f2e565b91613f05565b565b6137d160066112a6565b6137dc826006612fb8565b9061381061380a7f8be0079c531659141344cd1fd0a4f28419497f9722a3daafe3b4186f6b6457e0936108cd565b916108cd565b91613819610252565b8061382381610515565b0390a3565b9190918261384661384061383b5f611c8b565b61040b565b9161040b565b146138ba5761386a8261386561385e60058590612c5c565b8690612c72565b611995565b9190916138b56138a361389d7f17307eab39ab6107e8899845ad3d59bd9653f200f220920489ca2b5937696c31936108cd565b936108cd565b936138ac610252565b918291826102c3565b0390a3565b6138d5835f918291630b61174360e31b835260048301610424565b0390fd5b6138e290610687565b90565b6138ee906138d9565b90565b6138fa906106a3565b90565b9050519061390a82610270565b565b9060208282031261392557613922915f016138fd565b90565b61025c565b60209181520190565b61395261395b6020936139609361394981612b6f565b9384809361392a565b95869101610329565b610334565b0190565b90926139979061398d6139a4969461398360808601975f870190610417565b6020850190610417565b604083019061046e565b6060818403910152613933565b90565b906139b96139b483611444565b610af0565b918252565b606090565b3d5f146139de576139d33d6139a7565b903d5f602084013e5b565b6139e66139be565b906139dc565b9193843b613a026139fc5f612860565b916103bc565b11613a0f575b5050505050565b613a475f602094613a52613a2a613a258a6138e5565b6138f1565b9463150b7a02929698613a3b610252565b998a98899788966119fe565b865260048601613964565b03925af180915f92613b10575b50155f14613acd57506001613a7a57505b5f80808080613a08565b613a826139c3565b90613a8c82612b6f565b613a9e613a985f612860565b916103bc565b145f14613ac457613ac0905f918291633250574960e11b835260048301610424565b0390fd5b50602081519101fd5b613ae6613ae0630a85bd0160e11b610264565b91610264565b03613af15750613a70565b613b0c905f918291633250574960e11b835260048301610424565b0390fd5b613b3291925060203d8111613b39575b613b2a8183610ac7565b81019061390c565b905f613a5f565b503d613b20565b613b486118df565b50613b51612b73565b90565b369037565b90613b7e613b6683611f0b565b92602080613b748693610b05565b9201910390613b54565b565b6001613b8c91036103bc565b90565b90565b613ba6613ba1613bab92613b8f565b610684565b6103bc565b90565b634e487b7160e01b5f52601260045260245ffd5b613bce613bd4916103bc565b916103bc565b908115613bdf570490565b613bae565b613bec6118df565b50613c09613bf982614088565b613c0360016129b4565b90613599565b90613c1382613b59565b91613c1c611928565b5060208301015b600115613c8657613c36613c6291613b80565b916f181899199a1a9b1b9c1cb0b131b232b360811b600a82061a8353613c5c600a613b92565b90613bc2565b80613c75613c6f5f612860565b916103bc565b14613c805790613c23565b50505b90565b5050613c83565b613ca4613ca991613c9c611905565b5060026134eb565b6112a6565b90565b919092808015613dd3575b613cd5575b505090613cce613cd3929160046134eb565b612fb8565b565b613cde84613495565b9180613cfa613cf4613cef5f611c8b565b61040b565b9161040b565b141580613db8575b80613d9e575b613d7f575091613cce91613cd39493613d24575b509192613cbc565b818490613d63613d5d613d577f8c5be1e5ebec7d5bd14f71427d1e84f3dd0314c0f7b2291e5b200ac8c7c3b925956108cd565b926108cd565b926111d2565b92613d6c610252565b80613d7681610515565b0390a45f613d1c565b613d9a905f91829163a9fbf51f60e01b835260048301610424565b0390fd5b50613db3613dad848390612c88565b156102b1565b613d08565b5082613dcc613dc68361040b565b9161040b565b1415613d02565b5081613def613de9613de45f611c8b565b61040b565b9161040b565b1415613cb7565b613e0b613e05828486916142e9565b156102b1565b613e1457505050565b613e2e613e28613e235f611c8b565b61040b565b9161040b565b145f14613e5457613e50825f918291637e27328960e01b83526004830161047b565b0390fd5b613e6e5f92839263177e802f60e01b845260048401611a6e565b0390fd5b613e7a614389565b613e8057565b5f633ee5aeb560e01b815280613e9860048201610515565b0390fd5b5f90565b90565b90565b613eba613eb5613ebf92613ea0565b61196b565b613ea3565b90565b613eeb7f9b779b17422d0df92223018b32b4d1fa46e071723d6817e2486d003becc55f00613ea6565b90565b613ef6613e9c565b50613eff613ec2565b90565b90565b9091613f3192613f168382906143c9565b613f1e613520565b92613f285f611c8b565b909192936139ec565b565b90565b613f4a613f45613f4f92613f33565b610684565b6103bc565b90565b90565b613f69613f64613f6e92613f52565b610684565b6103bc565b90565b90565b613f88613f83613f8d92613f71565b610684565b6103bc565b90565b90565b613fa7613fa2613fac92613f90565b610684565b6103bc565b90565b90565b613fc6613fc1613fcb92613faf565b610684565b6103bc565b90565b90565b613fe5613fe0613fea92613fce565b610684565b6103bc565b90565b90565b614004613fff61400992613fed565b610684565b6103bc565b90565b90565b61402361401e6140289261400c565b610684565b6103bc565b90565b90565b61404261403d6140479261402b565b610684565b6103bc565b90565b90565b61406161405c6140669261404a565b610684565b6103bc565b90565b90565b61408061407b61408592614069565b610684565b6103bc565b90565b614090611928565b5061409a5f612860565b90806140c96140c37a184f03e93ff9f4daa797ed6e38ed64bf6a1f010000000000000000613f36565b916103bc565b10156142a1575b806140f16140eb6d04ee2d6d415b85acef8100000000613f74565b916103bc565b1015614266575b8061411261410c662386f26fc10000613fb2565b916103bc565b1015614232575b8061413061412a6305f5e100613ff0565b916103bc565b1015614201575b8061414c61414661271061402e565b916103bc565b10156141d2575b80614167614161606461406c565b916103bc565b10156141a4575b61418161417b600a613b92565b916103bc565b101561418b575b90565b61419f9061419960016129b4565b90613599565b614188565b6141bb6141cc916141b5606461406c565b90613bc2565b916141c6600261372b565b90613599565b9061416e565b6141ea6141fb916141e461271061402e565b90613bc2565b916141f5600461404d565b90613599565b90614153565b61421b61422c916142156305f5e100613ff0565b90613bc2565b91614226600861400f565b90613599565b90614137565b61424f61426091614249662386f26fc10000613fb2565b90613bc2565b9161425a6010613fd1565b90613599565b90614119565b61428a61429b916142846d04ee2d6d415b85acef8100000000613f74565b90613bc2565b916142956020613f93565b90613599565b906140f8565b6142d26142e3916142cc7a184f03e93ff9f4daa797ed6e38ed64bf6a1f010000000000000000613f36565b90613bc2565b916142dd6040613f55565b90613599565b906140d0565b91906142f3611873565b508061430f6143096143045f611c8b565b61040b565b9161040b565b1415928361431e575b50505090565b809192935061433561432f8461040b565b9161040b565b14908115614377575b50918215614351575b50505f8080614318565b61436f91925061436361436991613501565b9261040b565b9161040b565b145f80614347565b61438391508290612c88565b5f61433e565b614391611873565b506143ac5f6143a66143a1613eee565b613f02565b01610d72565b6143c56143bf6143ba613747565b6103bc565b916103bc565b1490565b90816143e56143df6143da5f611c8b565b61040b565b9161040b565b14614446576143fe91906143f85f611c8b565b916135a7565b61441861441261440d5f611c8b565b61040b565b9161040b565b0361441f57565b61444261442b5f611c8b565b5f9182916339e3563760e11b835260048301610424565b0390fd5b6144696144525f611c8b565b5f918291633250574960e11b835260048301610424565b0390fdfea2646970667358221220e1f5cda2de37a8bb6b2020ef3053a65a9a75729e096954f8cc3cf951c924ac0564736f6c634300081e0033","linkReferences":{}},"methodIdentifiers":{"aiOracle()":"31b221cd","approve(address,uint256)":"095ea7b3","badgeCounter()":"e5ed9884","badgeToSubmissionId(uint256)":"a8744d5e","balanceOf(address)":"70a08231","createTest(string,string,string,uint256)":"939b27ee","deactivateTest(uint256)":"0a7fefdd","freelancerBadges(address,uint256)":"5b9d73d7","getApproved(uint256)":"081812fc","getFreelancerBadges(address)":"86fc79c8","getSubmission(uint256)":"3e8686cc","getSubmissionCount()":"9999d2ae","getTest(uint256)":"edef019d","getTestCount()":"0853ad8a","isApprovedForAll(address,address)":"e985e9c5","mint(address,uint256,uint8,string)":"644acc60","name()":"06fdde03","owner()":"8da5cb5b","ownerOf(uint256)":"6352211e","renounceOwnership()":"715018a6","safeTransferFrom(address,address,uint256)":"42842e0e","safeTransferFrom(address,address,uint256,bytes)":"b88d4fde","setAiOracle(address)":"fda1fd83","setApprovalForAll(address,bool)":"a22cb465","skillTests(uint256)":"674c0583","stablecoin()":"e9cbd822","submissions(uint256)":"ad73349e","submitTrial(uint256,string)":"f9e5dbaa","supportsInterface(bytes4)":"01ffc9a7","symbol()":"95d89b41","tokenURI(uint256)":"c87b56dd","transferFrom(address,address,uint256)":"23b872dd","transferOwnership(address)":"f2fde38b","userRegistry()":"5c7460d6","withdrawFees(address)":"164e68de"},"id":8}