{"abi":[{"type":"constructor","inputs":[{"name":"_agencyRegistry","type":"address","internalType":"address"},{"name":"_skillTrial","type":"address","internalType":"address"}],"stateMutability":"nonpayable"},{"type":"function","name":"AGENCY_REGISTRY","inputs":[],"outputs":[{"name":"","type":"address","internalType":"contract AgencyRegistry"}],"stateMutability":"view"},{"type":"function","name":"fulfillGstVerification","inputs":[{"name":"jobId","type":"uint256","internalType":"uint256"},{"name":"agencyId","type":"uint256","internalType":"uint256"},{"name":"isVerified","type":"bool","internalType":"bool"}],"outputs":[],"stateMutability":"nonpayable"},{"type":"function","name":"fulfillSkillGrade","inputs":[{"name":"jobId","type":"uint256","internalType":"uint256"},{"name":"submissionId","type":"uint256","internalType":"uint256"},{"name":"user","type":"address","internalType":"address"},{"name":"score","type":"uint8","internalType":"uint8"},{"name":"report","type":"string","internalType":"string"}],"outputs":[],"stateMutability":"nonpayable"},{"type":"function","name":"getJob","inputs":[{"name":"jobId","type":"uint256","internalType":"uint256"}],"outputs":[{"name":"jobType","type":"uint8","internalType":"enum AIOracle.JobType"},{"name":"status","type":"uint8","internalType":"enum AIOracle.JobStatus"},{"name":"requestHash","type":"bytes32","internalType":"bytes32"},{"name":"requester","type":"address","internalType":"address"},{"name":"referenceId","type":"uint256","internalType":"uint256"},{"name":"timestamp","type":"uint256","internalType":"uint256"}],"stateMutability":"view"},{"type":"function","name":"jobCounter","inputs":[],"outputs":[{"name":"","type":"uint256","internalType":"uint256"}],"stateMutability":"view"},{"type":"function","name":"jobs","inputs":[{"name":"","type":"uint256","internalType":"uint256"}],"outputs":[{"name":"jobId","type":"uint256","internalType":"uint256"},{"name":"jobType","type":"uint8","internalType":"enum AIOracle.JobType"},{"name":"status","type":"uint8","internalType":"enum AIOracle.JobStatus"},{"name":"requestHash","type":"bytes32","internalType":"bytes32"},{"name":"requester","type":"address","internalType":"address"},{"name":"referenceId","type":"uint256","internalType":"uint256"},{"name":"timestamp","type":"uint256","internalType":"uint256"}],"stateMutability":"view"},{"type":"function","name":"owner","inputs":[],"outputs":[{"name":"","type":"address","internalType":"address"}],"stateMutability":"view"},{"type":"function","name":"renounceOwnership","inputs":[],"outputs":[],"stateMutability":"nonpayable"},{"type":"function","name":"requestExists","inputs":[{"name":"","type":"bytes32","internalType":"bytes32"}],"outputs":[{"name":"","type":"bool","internalType":"bool"}],"stateMutability":"view"},{"type":"function","name":"requestGstVerification","inputs":[{"name":"agencyId","type":"uint256","internalType":"uint256"},{"name":"gstHash","type":"bytes32","internalType":"bytes32"}],"outputs":[{"name":"","type":"uint256","internalType":"uint256"}],"stateMutability":"nonpayable"},{"type":"function","name":"requestSkillGrade","inputs":[{"name":"submissionId","type":"uint256","internalType":"uint256"},{"name":"user","type":"address","internalType":"address"},{"name":"submissionData","type":"string","internalType":"string"}],"outputs":[{"name":"","type":"uint256","internalType":"uint256"}],"stateMutability":"nonpayable"},{"type":"function","name":"setSkillTrial","inputs":[{"name":"_skillTrialAddress","type":"address","internalType":"address"}],"outputs":[],"stateMutability":"nonpayable"},{"type":"function","name":"skillTrial","inputs":[],"outputs":[{"name":"","type":"address","internalType":"contract SkillTrial"}],"stateMutability":"view"},{"type":"function","name":"skillTrialAddress","inputs":[],"outputs":[{"name":"","type":"address","internalType":"address"}],"stateMutability":"view"},{"type":"function","name":"transferOwnership","inputs":[{"name":"newOwner","type":"address","internalType":"address"}],"outputs":[],"stateMutability":"nonpayable"},{"type":"event","name":"GstVerified","inputs":[{"name":"jobId","type":"uint256","indexed":true,"internalType":"uint256"},{"name":"agencyId","type":"uint256","indexed":true,"internalType":"uint256"},{"name":"success","type":"bool","indexed":false,"internalType":"bool"}],"anonymous":false},{"type":"event","name":"JobRequested","inputs":[{"name":"jobId","type":"uint256","indexed":true,"internalType":"uint256"},{"name":"jobType","type":"uint8","indexed":true,"internalType":"enum AIOracle.JobType"},{"name":"referenceId","type":"uint256","indexed":false,"internalType":"uint256"},{"name":"requestHash","type":"bytes32","indexed":false,"internalType":"bytes32"},{"name":"data","type":"bytes","indexed":false,"internalType":"bytes"}],"anonymous":false},{"type":"event","name":"OwnershipTransferred","inputs":[{"name":"previousOwner","type":"address","indexed":true,"internalType":"address"},{"name":"newOwner","type":"address","indexed":true,"internalType":"address"}],"anonymous":false},{"type":"event","name":"SkillGraded","inputs":[{"name":"jobId","type":"uint256","indexed":true,"internalType":"uint256"},{"name":"submissionId","type":"uint256","indexed":true,"internalType":"uint256"},{"name":"score","type":"uint8","indexed":false,"internalType":"uint8"}],"anonymous":false},{"type":"error","name":"OwnableInvalidOwner","inputs":[{"name":"owner","type":"address","internalType":"address"}]},{"type":"error","name":"OwnableUnauthorizedAccount","inputs":[{"name":"account","type":"address","internalType":"address"}]}],"bytecode":{"object":"0x60a0604052346100475761001a61001461011b565b90610216565b61002261004c565b611ebf61038082396080518181816107a901528181610eb001526114f40152611ebf90f35b610052565b60405190565b5f80fd5b601f801991011690565b634e487b7160e01b5f52604160045260245ffd5b9061007e90610056565b810190811060018060401b0382111761009657604052565b610060565b906100ae6100a761004c565b9283610074565b565b5f80fd5b60018060a01b031690565b6100c8906100b4565b90565b6100d4816100bf565b036100db57565b5f80fd5b905051906100ec826100cb565b565b9190604083820312610116578061010a610113925f86016100df565b936020016100df565b90565b6100b0565b61013961223f8038038061012e8161009b565b9283398101906100ee565b9091565b90565b61015461014f610159926100b4565b61013d565b6100b4565b90565b61016590610140565b90565b6101719061015c565b90565b61017d90610140565b90565b61018990610174565b90565b5f1b90565b906101a260018060a01b039161018c565b9181191691161790565b6101b590610174565b90565b90565b906101d06101cb6101d7926101ac565b6101b8565b8254610191565b9055565b6101e490610140565b90565b6101f0906101db565b90565b90565b9061020b610206610212926101e7565b6101f3565b8254610191565b9055565b9061022c6102499261022733610298565b610168565b60805261024261023b82610180565b60016101bb565b60026101f6565b565b90565b61026261025d6102679261024b565b61013d565b6100b4565b90565b6102739061024e565b90565b61027f906100bf565b9052565b9190610296905f60208501940190610276565b565b806102b36102ad6102a85f61026a565b6100bf565b916100bf565b146102c3576102c190610320565b565b6102e66102cf5f61026a565b5f918291631e4fbdf760e01b835260048301610283565b0390fd5b5f1c90565b60018060a01b031690565b61030661030b916102ea565b6102ef565b90565b61031890546102fa565b90565b5f0190565b6103295f61030e565b610333825f6101f6565b906103676103617f8be0079c531659141344cd1fd0a4f28419497f9722a3daafe3b4186f6b6457e0936101e7565b916101e7565b9161037061004c565b8061037a8161031b565b0390a356fe60806040526004361015610013575b610c78565b61001d5f3561010c565b8063180aedf3146101075780631b74d0461461010257806350355d76146100fd5780635b40dc32146100f8578063715018a6146100f35780638da5cb5b146100ee5780639527b6c3146100e9578063a690ce63146100e4578063b646070b146100df578063bf22c457146100da578063c307ef4e146100d5578063dfbf6c8f146100d0578063e4b04d1a146100cb578063e58049be146100c65763f2fde38b0361000e57610c45565b610c0e565b610b40565b6109d1565b61095b565b6108b1565b610821565b610772565b610707565b6106a5565b61065d565b610629565b610592565b610504565b6103f5565b60e01c90565b60405190565b5f80fd5b5f80fd5b5f80fd5b90565b61013081610124565b0361013757565b5f80fd5b9050359061014882610127565b565b9060208282031261016357610160915f0161013b565b90565b61011c565b90565b61017f61017a61018492610124565b610168565b610124565b90565b906101919061016b565b5f5260205260405f2090565b5f1c90565b90565b6101b16101b69161019d565b6101a2565b90565b6101c390546101a5565b90565b60ff1690565b6101d86101dd9161019d565b6101c6565b90565b6101ea90546101cc565b90565b60081c90565b60ff1690565b61020561020a916101ed565b6101f3565b90565b61021790546101f9565b90565b90565b61022961022e9161019d565b61021a565b90565b61023b905461021d565b90565b60018060a01b031690565b61025561025a9161019d565b61023e565b90565b6102679054610249565b90565b610275906004610187565b6102805f82016101b9565b9161028d600183016101e0565b9161029a6001820161020d565b916102a760028301610231565b916102b46003820161025d565b916102cd60056102c6600485016101b9565b93016101b9565b90565b6102d990610124565b9052565b634e487b7160e01b5f52602160045260245ffd5b600211156102fb57565b6102dd565b9061030a826102f1565b565b61031590610300565b90565b6103219061030c565b9052565b6003111561032f57565b6102dd565b9061033e82610325565b565b61034990610334565b90565b61035590610340565b9052565b90565b61036590610359565b9052565b60018060a01b031690565b61037d90610369565b90565b61038990610374565b9052565b949290979695939160e08601985f87016103a6916102d0565b602086016103b391610318565b604085016103c09161034c565b606084016103cd9161035c565b608083016103da91610380565b60a082016103e7916102d0565b60c0016103f3916102d0565b565b3461042c5761042861041061040b36600461014a565b61026a565b9361041f979597939193610112565b9788978861038d565b0390f35b610118565b61043a81610359565b0361044157565b5f80fd5b9050359061045282610431565b565b9060208282031261046d5761046a915f01610445565b90565b61011c565b61047b90610359565b90565b9061048890610472565b5f5260205260405f2090565b1c90565b60ff1690565b6104ae9060086104b39302610494565b610498565b90565b906104c1915461049e565b90565b6104da906104d56005915f9261047e565b6104b6565b90565b151590565b6104eb906104dd565b9052565b9190610502905f602085019401906104e2565b565b346105345761053061051f61051a366004610454565b6104c4565b610527610112565b918291826104ef565b0390f35b610118565b5f91031261054357565b61011c565b61055890600861055d9302610494565b6101a2565b90565b9061056b9154610548565b90565b61057a60035f90610560565b90565b9190610590905f602085019401906102d0565b565b346105c2576105a2366004610539565b6105be6105ad61056e565b6105b5610112565b9182918261057d565b0390f35b610118565b6105d0816104dd565b036105d757565b5f80fd5b905035906105e8826105c7565b565b909160608284031261061f5761061c610605845f850161013b565b93610613816020860161013b565b936040016105db565b90565b61011c565b5f0190565b346106585761064261063c3660046105ea565b91610fa1565b61064a610112565b8061065481610624565b0390f35b610118565b3461068b5761066d366004610539565b610675610ffe565b61067d610112565b8061068781610624565b0390f35b610118565b91906106a3905f60208501940190610380565b565b346106d5576106b5366004610539565b6106d16106c061100c565b6106c8610112565b91829182610690565b0390f35b610118565b919060408382031261070257806106f66106ff925f860161013b565b93602001610445565b90565b61011c565b346107385761073461072361071d3660046106da565b906114d8565b61072b610112565b9182918261057d565b0390f35b610118565b61074d9060086107529302610494565b61023e565b90565b90610760915461073d565b90565b61076f60025f90610755565b90565b346107a257610782366004610539565b61079e61078d610763565b610795610112565b91829182610690565b0390f35b610118565b7f000000000000000000000000000000000000000000000000000000000000000090565b6107df6107da6107e492610369565b610168565b610369565b90565b6107f0906107cb565b90565b6107fc906107e7565b90565b610808906107f3565b9052565b919061081f905f602085019401906107ff565b565b3461085157610831366004610539565b61084d61083c6107a7565b610844610112565b9182918261080c565b0390f35b610118565b919461089e6108a89298979561089460a09661088a6108af9a61088060c08a019e5f8b0190610318565b602089019061034c565b604087019061035c565b6060850190610380565b60808301906102d0565b01906102d0565b565b346108e8576108e46108cc6108c736600461014a565b6116c2565b926108db969496929192610112565b96879687610856565b0390f35b610118565b60018060a01b031690565b61090890600861090d9302610494565b6108ed565b90565b9061091b91546108f8565b90565b61092a60015f90610910565b90565b610936906107e7565b90565b6109429061092d565b9052565b9190610959905f60208501940190610939565b565b3461098b5761096b366004610539565b61098761097661091e565b61097e610112565b91829182610946565b0390f35b610118565b61099981610374565b036109a057565b5f80fd5b905035906109b182610990565b565b906020828203126109cc576109c9915f016109a4565b90565b61011c565b346109ff576109e96109e43660046109b3565b6117db565b6109f1610112565b806109fb81610624565b0390f35b610118565b5f80fd5b5f80fd5b601f801991011690565b634e487b7160e01b5f52604160045260245ffd5b90610a3490610a0c565b810190811067ffffffffffffffff821117610a4e57604052565b610a16565b90610a66610a5f610112565b9283610a2a565b565b67ffffffffffffffff8111610a8657610a82602091610a0c565b0190565b610a16565b90825f939282370152565b90929192610aab610aa682610a68565b610a53565b93818552602085019082840111610ac757610ac592610a8b565b565b610a08565b9080601f83011215610aea57816020610ae793359101610a96565b90565b610a04565b91606083830312610b3b57610b06825f850161013b565b92610b1483602083016109a4565b92604082013567ffffffffffffffff8111610b3657610b339201610acc565b90565b610120565b61011c565b34610b7157610b6d610b5c610b56366004610aef565b9161191a565b610b64610112565b9182918261057d565b0390f35b610118565b60ff1690565b610b8581610b76565b03610b8c57565b5f80fd5b90503590610b9d82610b7c565b565b91909160a081840312610c0957610bb8835f830161013b565b92610bc6816020840161013b565b92610bd482604085016109a4565b92610be28360608301610b90565b92608082013567ffffffffffffffff8111610c0457610c019201610acc565b90565b610120565b61011c565b34610c4057610c2a610c21366004610b9f565b93929092611d50565b610c32610112565b80610c3c81610624565b0390f35b610118565b34610c7357610c5d610c583660046109b3565b611dc4565b610c65610112565b80610c6f81610624565b0390f35b610118565b5f80fd5b90610c8f9291610c8a611dcf565b610e39565b565b90565b60209181520190565b5f7f4e6f7420475354206a6f62000000000000000000000000000000000000000000910152565b610cd1600b602092610c94565b610cda81610c9d565b0190565b610cf39060208101905f818303910152610cc4565b90565b15610cfd57565b610d05610112565b62461bcd60e51b815280610d1b60048201610cde565b0390fd5b5f7f4a6f62206e6f742070656e64696e670000000000000000000000000000000000910152565b610d53600f602092610c94565b610d5c81610d1f565b0190565b610d759060208101905f818303910152610d46565b90565b15610d7f57565b610d87610112565b62461bcd60e51b815280610d9d60048201610d60565b0390fd5b60081b90565b90610db461ff0091610da1565b9181191691161790565b610dc790610334565b90565b90565b90610de2610ddd610de992610dbe565b610dca565b8254610da7565b9055565b5f80fd5b60e01b90565b5f910312610e0157565b61011c565b916020610e27929493610e2060408201965f8301906102d0565b01906104e2565b565b610e31610112565b3d5f823e3d90fd5b919091610eab610e53610e4e60048490610187565b610c91565b610e7a610e62600183016101e0565b610e74610e6e5f610300565b91610300565b14610cf6565b610ea1610e896001830161020d565b610e9b610e955f610334565b91610334565b14610d78565b6001809101610dcd565b610ed47f00000000000000000000000000000000000000000000000000000000000000006107f3565b630762ea18848492803b15610f9c57610f005f8094610f0b610ef4610112565b97889687958694610df1565b845260048401610e06565b03925af18015610f9757610f6b575b50919091610f66610f54610f4e7f15913662a3c8a0e109e1f64cc2e3fb9d8fb47582460608bb01bfed332ebff2c39361016b565b9361016b565b93610f5d610112565b918291826104ef565b0390a3565b610f8a905f3d8111610f90575b610f828183610a2a565b810190610df7565b5f610f1a565b503d610f78565b610e29565b610ded565b90610fac9291610c7c565b565b610fb6611dcf565b610fbe610feb565b565b90565b610fd7610fd2610fdc92610fc0565b610168565b610369565b90565b610fe890610fc3565b90565b610ffc610ff75f610fdf565b611e1d565b565b611006610fae565b565b5f90565b611014611008565b5061101e5f61025d565b90565b5f90565b5f7f4f6e6c79204167656e6379526567697374727900000000000000000000000000910152565b6110596013602092610c94565b61106281611025565b0190565b61107b9060208101905f81830391015261104c565b90565b1561108557565b61108d610112565b62461bcd60e51b8152806110a360048201611066565b0390fd5b90565b6110b66110bb91610124565b6110a7565b9052565b90565b6110ce6110d391610359565b6110bf565b9052565b6020816110e96110f1938396956110aa565b0180926110c2565b0190565b60200190565b5190565b61110b6111109161019d565b610498565b90565b61111d90546110ff565b90565b5f7f4475706c69636174652072657175657374000000000000000000000000000000910152565b6111546011602092610c94565b61115d81611120565b0190565b6111769060208101905f818303910152611147565b90565b1561118057565b611188610112565b62461bcd60e51b81528061119e60048201611161565b0390fd5b634e487b7160e01b5f52601160045260245ffd5b6111bf90610124565b5f1981146111cd5760010190565b6111a2565b5f1b90565b906111e35f19916111d2565b9181191691161790565b90565b9061120561120061120c9261016b565b6111ed565b82546111d7565b9055565b61121a60e0610a53565b90565b9061122790610124565b9052565b9061123590610300565b9052565b9061124390610334565b9052565b9061125190610359565b9052565b9061125f90610374565b9052565b61126d9051610124565b90565b61127a9051610300565b90565b9061128960ff916111d2565b9181191691161790565b61129c90610300565b90565b90565b906112b76112b26112be92611293565b61129f565b825461127d565b9055565b6112cc9051610334565b90565b6112d99051610359565b90565b6112e59061019d565b90565b906112fd6112f861130492610472565b6112dc565b82546111d7565b9055565b6113129051610374565b90565b9061132660018060a01b03916111d2565b9181191691161790565b611339906107e7565b90565b90565b9061135461134f61135b92611330565b61133c565b8254611315565b9055565b9061140760c0600561140d946113825f820161137c5f8801611263565b906111f0565b61139b6001820161139560208801611270565b906112a2565b6113b4600182016113ae604088016112c2565b90610dcd565b6113cd600282016113c7606088016112cf565b906112e8565b6113e6600382016113e060808801611308565b9061133f565b6113ff600482016113f960a08801611263565b906111f0565b019201611263565b906111f0565b565b906114199161135f565b565b611424906104dd565b90565b90565b9061143f61143a6114469261141b565b611427565b825461127d565b9055565b919061145d905f6020850194019061035c565b565b60209181520190565b90825f9392825e0152565b61149261149b6020936114a093611489816110fb565b9384809361145f565b95869101611468565b610a0c565b0190565b6114c86114d59492936114be60608401955f8501906102d0565b602083019061035c565b6040818403910152611473565b90565b611659906114e4611021565b506115293361152361151d6115187f00000000000000000000000000000000000000000000000000000000000000006107f3565b610374565b91610374565b1461107e565b80611555849161154661153a610112565b938492602084016110d7565b60208201810382520382610a2a565b611567611561826110fb565b916110f5565b2061158d61158861158261157d6005859061047e565b611113565b156104dd565b611179565b61159760036101b9565b6115aa6115a3826111b6565b60036111f0565b936116265f6116158761160c83611603896115fa876115f18c916115e83395976115df429b6115d7611210565b9e8f0161121d565b60208d0161122b565b60408b01611239565b60608901611247565b60808701611255565b60a0850161121d565b60c0830161121d565b61162160048890610187565b61140f565b61163c60016116376005859061047e565b61142a565b84916116685f94919261164d610112565b9687916020830161144a565b60208201810382520386610a2a565b6116b061169e6116987faa7138673c06a8a808f68cd918cb913d1f682dc4eda7030040b3516e0af5b6239561016b565b95611293565b956116a7610112565b938493846114a4565b0390a390565b5f90565b5f90565b5f90565b61170661170b916116d16116b6565b506116da6116ba565b506116e36116be565b506116ec611008565b506116f5611021565b506116fe611021565b506004610187565b610c91565b90611718600183016101e0565b906117256001840161020d565b9261173260028201610231565b9261173f6003830161025d565b926117586005611751600486016101b9565b94016101b9565b91959493929190565b6117729061176d611dcf565b6117bb565b565b61177d906107cb565b90565b61178990611774565b90565b61179590611774565b90565b90565b906117b06117ab6117b79261178c565b611798565b8254611315565b9055565b6117d9906117d26117cb82611780565b600161179b565b600261133f565b565b6117e490611761565b565b6117f26117f79161019d565b6108ed565b90565b61180490546117e6565b90565b5f7f4f6e6c7920536b696c6c547269616c0000000000000000000000000000000000910152565b61183b600f602092610c94565b61184481611807565b0190565b61185d9060208101905f81830391015261182e565b90565b1561186757565b61186f610112565b62461bcd60e51b81528061188560048201611848565b0390fd5b60601b90565b61189890611889565b90565b6118a49061188f565b90565b6118b36118b891610374565b61189b565b9052565b5190565b905090565b6118ea6118e1926020926118d8816118bc565b948580936118c0565b93849101611468565b0190565b9161190d60208461190561191497966014966110aa565b0180926118a7565b01906118c5565b90565b90565b919091611925611021565b506119533361194d61194761194261193d60016117fa565b61092d565b610374565b91610374565b14611860565b80611980849161197185611965610112565b948593602085016118ee565b60208201810382520382610a2a565b61199261198c826110fb565b916110f5565b20916119b96119b46119ae6119a96005879061047e565b611113565b156104dd565b611179565b611a555f611a446119ca60036101b9565b6119dd6119d6826111b6565b60036111f0565b96611a3b8891611a3288611a29600193611a208d611a178b91939597611a0e429b611a06611210565b9e8f0161121d565b60208d0161122b565b60408b01611239565b60608901611247565b60808701611255565b60a0850161121d565b60c0830161121d565b611a5060048790610187565b61140f565b611a6b6001611a666005869061047e565b61142a565b8390611a7a6001939491611917565b93611ac3611ab1611aab7faa7138673c06a8a808f68cd918cb913d1f682dc4eda7030040b3516e0af5b6239561016b565b95611293565b95611aba610112565b938493846114a4565b0390a390565b90611ade94939291611ad9611dcf565b611bf8565b565b5f7f4e6f7420536b696c6c206a6f6200000000000000000000000000000000000000910152565b611b14600d602092610c94565b611b1d81611ae0565b0190565b611b369060208101905f818303910152611b07565b90565b15611b4057565b611b48610112565b62461bcd60e51b815280611b5e60048201611b21565b0390fd5b611b6b90610b76565b9052565b611b8e611b97602093611b9c93611b85816118bc565b93848093610c94565b95869101611468565b610a0c565b0190565b9092611bd390611bc9611be09694611bbf60808601975f870190610380565b60208501906102d0565b6040830190611b62565b6060818403910152611b6f565b90565b9190611bf6905f60208501940190611b62565b565b91939093611c6c611c13611c0e60048690610187565b610c91565b611c3b611c22600183016101e0565b611c35611c2f6001610300565b91610300565b14611b39565b611c62611c4a6001830161020d565b611c5c611c565f610334565b91610334565b14610d78565b6001809101610dcd565b611c7e611c7960016117fa565b61092d565b63644acc60919086938690823b15611d4b575f94611cba8692611caf94611ca3610112565b998a9889978896610df1565b865260048601611ba0565b03925af18015611d4657611d1a575b50919091611d15611d03611cfd7fa9051082a209a071f398b03ed093b29e2f7ed6647c3fc344786e7f16ac7fb7399361016b565b9361016b565b93611d0c610112565b91829182611be3565b0390a3565b611d39905f3d8111611d3f575b611d318183610a2a565b810190610df7565b5f611cc9565b503d611d27565b610e29565b610ded565b90611d5d94939291611ac9565b565b611d7090611d6b611dcf565b611d72565b565b80611d8d611d87611d825f610fdf565b610374565b91610374565b14611d9d57611d9b90611e1d565b565b611dc0611da95f610fdf565b5f918291631e4fbdf760e01b835260048301610690565b0390fd5b611dcd90611d5f565b565b611dd761100c565b611df0611dea611de5611e7c565b610374565b91610374565b03611df757565b611e19611e02611e7c565b5f91829163118cdaa760e01b835260048301610690565b0390fd5b611e265f61025d565b611e30825f61133f565b90611e64611e5e7f8be0079c531659141344cd1fd0a4f28419497f9722a3daafe3b4186f6b6457e093611330565b91611330565b91611e6d610112565b80611e7781610624565b0390a3565b611e84611008565b50339056fea2646970667358221220cff3bff7d1d11e3e01c94d06bfb1262a7574457e6a1c920221ddf4bff97ae62864736f6c634300081e0033","linkReferences":{}},"methodIdentifiers":{"AGENCY_REGISTRY()":"b646070b","fulfillGstVerification(uint256,uint256,bool)":"5b40dc32","fulfillSkillGrade(uint256,uint256,address,uint8,string)":"e58049be","getJob(uint256)":"bf22c457","jobCounter()":"50355d76","jobs(uint256)":"180aedf3","owner()":"8da5cb5b","renounceOwnership()":"715018a6","requestExists(bytes32)":"1b74d046","requestGstVerification(uint256,bytes32)":"9527b6c3","requestSkillGrade(uint256,address,string)":"e4b04d1a","setSkillTrial(address)":"dfbf6c8f","skillTrial()":"c307ef4e","skillTrialAddress()":"a690ce63","transferOwnership(address)":"f2fde38b"},"id":1}