{"abi":[{"type":"constructor","inputs":[{"name":"_zkVerifier","type":"address","internalType":"address"},{"name":"_stablecoin","type":"address","internalType":"address"},{"name":"_gasSponsor","type":"address","internalType":"address"}],"stateMutability":"nonpayable"},{"type":"function","name":"DEPOSIT_AMOUNT","inputs":[],"outputs":[{"name":"","type":"uint256","internalType":"uint256"}],"stateMutability":"view"},{"type":"function","name":"addAttestation","inputs":[{"name":"user","type":"address","internalType":"address"},{"name":"attestationType","type":"uint8","internalType":"enum UserRegistry.AttestationType"},{"name":"referenceId","type":"uint256","internalType":"uint256"}],"outputs":[],"stateMutability":"nonpayable"},{"type":"function","name":"addAttestationWithMetadata","inputs":[{"name":"user","type":"address","internalType":"address"},{"name":"attestationType","type":"uint8","internalType":"enum UserRegistry.AttestationType"},{"name":"referenceId","type":"uint256","internalType":"uint256"},{"name":"metadata","type":"string","internalType":"string"},{"name":"isPositive","type":"bool","internalType":"bool"}],"outputs":[],"stateMutability":"nonpayable"},{"type":"function","name":"attestationCounter","inputs":[],"outputs":[{"name":"","type":"uint256","internalType":"uint256"}],"stateMutability":"view"},{"type":"function","name":"attestations","inputs":[{"name":"","type":"address","internalType":"address"},{"name":"","type":"uint256","internalType":"uint256"}],"outputs":[{"name":"attestationId","type":"uint256","internalType":"uint256"},{"name":"attestationType","type":"uint8","internalType":"enum UserRegistry.AttestationType"},{"name":"referenceId","type":"uint256","internalType":"uint256"},{"name":"timestamp","type":"uint256","internalType":"uint256"},{"name":"issuer","type":"address","internalType":"address"},{"name":"metadata","type":"string","internalType":"string"},{"name":"isPositive","type":"bool","internalType":"bool"}],"stateMutability":"view"},{"type":"function","name":"authorizedCallers","inputs":[{"name":"","type":"address","internalType":"address"}],"outputs":[{"name":"","type":"bool","internalType":"bool"}],"stateMutability":"view"},{"type":"function","name":"ensToAddress","inputs":[{"name":"","type":"string","internalType":"string"}],"outputs":[{"name":"","type":"address","internalType":"address"}],"stateMutability":"view"},{"type":"function","name":"gasSponsorAddress","inputs":[],"outputs":[{"name":"","type":"address","internalType":"address"}],"stateMutability":"view"},{"type":"function","name":"getAttestationCount","inputs":[{"name":"user","type":"address","internalType":"address"}],"outputs":[{"name":"","type":"uint256","internalType":"uint256"}],"stateMutability":"view"},{"type":"function","name":"getAttestations","inputs":[{"name":"user","type":"address","internalType":"address"}],"outputs":[{"name":"","type":"tuple[]","internalType":"struct UserRegistry.Attestation[]","components":[{"name":"attestationId","type":"uint256","internalType":"uint256"},{"name":"attestationType","type":"uint8","internalType":"enum UserRegistry.AttestationType"},{"name":"referenceId","type":"uint256","internalType":"uint256"},{"name":"timestamp","type":"uint256","internalType":"uint256"},{"name":"issuer","type":"address","internalType":"address"},{"name":"metadata","type":"string","internalType":"string"},{"name":"isPositive","type":"bool","internalType":"bool"}]}],"stateMutability":"view"},{"type":"function","name":"getPositiveAttestationCount","inputs":[{"name":"user","type":"address","internalType":"address"}],"outputs":[{"name":"","type":"uint256","internalType":"uint256"}],"stateMutability":"view"},{"type":"function","name":"getUserLevel","inputs":[{"name":"user","type":"address","internalType":"address"}],"outputs":[{"name":"","type":"uint8","internalType":"enum UserRegistry.LegitimacyLevel"}],"stateMutability":"view"},{"type":"function","name":"getUserProfile","inputs":[{"name":"user","type":"address","internalType":"address"}],"outputs":[{"name":"level","type":"uint8","internalType":"enum UserRegistry.LegitimacyLevel"},{"name":"ensName","type":"string","internalType":"string"},{"name":"hasDeposited","type":"bool","internalType":"bool"},{"name":"registrationTime","type":"uint256","internalType":"uint256"}],"stateMutability":"view"},{"type":"function","name":"isVerifiedHuman","inputs":[{"name":"user","type":"address","internalType":"address"}],"outputs":[{"name":"","type":"bool","internalType":"bool"}],"stateMutability":"view"},{"type":"function","name":"linkEns","inputs":[{"name":"ensName","type":"string","internalType":"string"}],"outputs":[],"stateMutability":"nonpayable"},{"type":"function","name":"makeDeposit","inputs":[],"outputs":[],"stateMutability":"nonpayable"},{"type":"function","name":"owner","inputs":[],"outputs":[{"name":"","type":"address","internalType":"address"}],"stateMutability":"view"},{"type":"function","name":"registerBasic","inputs":[],"outputs":[],"stateMutability":"nonpayable"},{"type":"function","name":"renounceOwnership","inputs":[],"outputs":[],"stateMutability":"nonpayable"},{"type":"function","name":"setAuthorizedCaller","inputs":[{"name":"caller","type":"address","internalType":"address"},{"name":"status","type":"bool","internalType":"bool"}],"outputs":[],"stateMutability":"nonpayable"},{"type":"function","name":"stablecoin","inputs":[],"outputs":[{"name":"","type":"address","internalType":"contract IERC20"}],"stateMutability":"view"},{"type":"function","name":"transferOwnership","inputs":[{"name":"newOwner","type":"address","internalType":"address"}],"outputs":[],"stateMutability":"nonpayable"},{"type":"function","name":"updateGasSponsor","inputs":[{"name":"_newGasSponsor","type":"address","internalType":"address"}],"outputs":[],"stateMutability":"nonpayable"},{"type":"function","name":"updateZkVerifier","inputs":[{"name":"_newVerifier","type":"address","internalType":"address"}],"outputs":[],"stateMutability":"nonpayable"},{"type":"function","name":"usedProofs","inputs":[{"name":"","type":"bytes32","internalType":"bytes32"}],"outputs":[{"name":"","type":"bool","internalType":"bool"}],"stateMutability":"view"},{"type":"function","name":"users","inputs":[{"name":"","type":"address","internalType":"address"}],"outputs":[{"name":"level","type":"uint8","internalType":"enum UserRegistry.LegitimacyLevel"},{"name":"ensName","type":"string","internalType":"string"},{"name":"hasDeposited","type":"bool","internalType":"bool"},{"name":"registrationTime","type":"uint256","internalType":"uint256"},{"name":"zkProofHash","type":"bytes32","internalType":"bytes32"}],"stateMutability":"view"},{"type":"function","name":"verifyHuman","inputs":[{"name":"zkProof","type":"bytes","internalType":"bytes"},{"name":"publicSignals","type":"uint256[]","internalType":"uint256[]"}],"outputs":[],"stateMutability":"nonpayable"},{"type":"function","name":"zkVerifier","inputs":[],"outputs":[{"name":"","type":"address","internalType":"contract IZKVerifier"}],"stateMutability":"view"},{"type":"event","name":"AttestationAdded","inputs":[{"name":"user","type":"address","indexed":true,"internalType":"address"},{"name":"attestationId","type":"uint256","indexed":false,"internalType":"uint256"},{"name":"attestationType","type":"uint8","indexed":false,"internalType":"enum UserRegistry.AttestationType"},{"name":"referenceId","type":"uint256","indexed":false,"internalType":"uint256"},{"name":"issuer","type":"address","indexed":false,"internalType":"address"},{"name":"isPositive","type":"bool","indexed":false,"internalType":"bool"}],"anonymous":false},{"type":"event","name":"AuthorizedCallerUpdated","inputs":[{"name":"caller","type":"address","indexed":true,"internalType":"address"},{"name":"status","type":"bool","indexed":false,"internalType":"bool"}],"anonymous":false},{"type":"event","name":"DepositMade","inputs":[{"name":"user","type":"address","indexed":true,"internalType":"address"},{"name":"amount","type":"uint256","indexed":false,"internalType":"uint256"}],"anonymous":false},{"type":"event","name":"ENSLinked","inputs":[{"name":"user","type":"address","indexed":true,"internalType":"address"},{"name":"ensName","type":"string","indexed":false,"internalType":"string"}],"anonymous":false},{"type":"event","name":"HumanVerified","inputs":[{"name":"user","type":"address","indexed":true,"internalType":"address"},{"name":"proofHash","type":"bytes32","indexed":false,"internalType":"bytes32"}],"anonymous":false},{"type":"event","name":"OwnershipTransferred","inputs":[{"name":"previousOwner","type":"address","indexed":true,"internalType":"address"},{"name":"newOwner","type":"address","indexed":true,"internalType":"address"}],"anonymous":false},{"type":"event","name":"UserRegistered","inputs":[{"name":"user","type":"address","indexed":true,"internalType":"address"},{"name":"level","type":"uint8","indexed":false,"internalType":"enum UserRegistry.LegitimacyLevel"}],"anonymous":false},{"type":"error","name":"AlreadyRegistered","inputs":[]},{"type":"error","name":"DepositAlreadyMade","inputs":[]},{"type":"error","name":"ENSAlreadyLinked","inputs":[]},{"type":"error","name":"InsufficientAllowance","inputs":[]},{"type":"error","name":"InvalidProof","inputs":[]},{"type":"error","name":"NotBasicUser","inputs":[]},{"type":"error","name":"OwnableInvalidOwner","inputs":[{"name":"owner","type":"address","internalType":"address"}]},{"type":"error","name":"OwnableUnauthorizedAccount","inputs":[{"name":"account","type":"address","internalType":"address"}]},{"type":"error","name":"ProofAlreadyUsed","inputs":[]},{"type":"error","name":"Unauthorized","inputs":[]}],"bytecode":{"object":"0x6080604052346100305761001a610014610111565b9161023c565b610022610035565b612f106103ad8239612f1090f35b61003b565b60405190565b5f80fd5b601f801991011690565b634e487b7160e01b5f52604160045260245ffd5b906100679061003f565b810190811060018060401b0382111761007f57604052565b610049565b90610097610090610035565b928361005d565b565b5f80fd5b60018060a01b031690565b6100b19061009d565b90565b6100bd816100a8565b036100c457565b5f80fd5b905051906100d5826100b4565b565b909160608284031261010c576101096100f2845f85016100c8565b9361010081602086016100c8565b936040016100c8565b90565b610099565b61012f6132bd8038038061012481610084565b9283398101906100d7565b909192565b90565b61014b6101466101509261009d565b610134565b61009d565b90565b61015c90610137565b90565b61016890610153565b90565b5f1b90565b9061018160018060a01b039161016b565b9181191691161790565b61019490610153565b90565b90565b906101af6101aa6101b69261018b565b610197565b8254610170565b9055565b6101c390610137565b90565b6101cf906101ba565b90565b6101db906101ba565b90565b90565b906101f66101f16101fd926101d2565b6101de565b8254610170565b9055565b61020a90610137565b90565b61021690610201565b90565b90565b9061023161022c6102389261020d565b610219565b8254610170565b9055565b610268610276939261026361025c61026f94610257336102c5565b61015f565b600161019a565b6101c6565b60026101e1565b600361021c565b565b90565b61028f61028a61029492610278565b610134565b61009d565b90565b6102a09061027b565b90565b6102ac906100a8565b9052565b91906102c3905f602085019401906102a3565b565b806102e06102da6102d55f610297565b6100a8565b916100a8565b146102f0576102ee9061034d565b565b6103136102fc5f610297565b5f918291631e4fbdf760e01b8352600483016102b0565b0390fd5b5f1c90565b60018060a01b031690565b61033361033891610317565b61031c565b90565b6103459054610327565b90565b5f0190565b6103565f61033b565b610360825f61021c565b9061039461038e7f8be0079c531659141344cd1fd0a4f28419497f9722a3daafe3b4186f6b6457e09361020d565b9161020d565b9161039d610035565b806103a781610348565b0390a356fe60806040526004361015610013575b61167a565b61001d5f356101db565b806263fa27146101d65780630148606c146101d157806321923bde146101cc5780632c996e03146101c757806333097df6146101c257806340732c89146101bd5780634266c033146101b8578063454bbd29146101b35780635005305d146101ae578063536fff6c146101a9578063633c0bbc146101a457806368b96b461461019f5780636b3353111461019a578063715018a6146101955780638da5cb5b14610190578063987ee1561461018b578063a87430ba14610186578063aba6466c14610181578063c30a0f251461017c578063c657c6a514610177578063d021600114610172578063d44ab80c1461016d578063d6df096d14610168578063e1c6f44214610163578063e9cbd8221461015e578063ec6925a714610159578063f2fde38b146101545763f38fad130361000e57611645565b611603565b6115ce565b611560565b6114bf565b61148a565b6113e9565b6113b4565b611377565b61116f565b6110be565b610ecd565b610c33565b610b82565b610b4f565b610b1b565b610aaa565b6109e9565b6109b4565b6108ee565b610723565b6106a0565b61066d565b610638565b6103e1565b61033c565b6102ac565b610272565b60e01c90565b60405190565b5f80fd5b5f80fd5b5f80fd5b60018060a01b031690565b610207906101f3565b90565b610213816101fe565b0361021a57565b5f80fd5b9050359061022b8261020a565b565b9060208282031261024657610243915f0161021e565b90565b6101eb565b151590565b6102599061024b565b9052565b9190610270905f60208501940190610250565b565b346102a25761029e61028d61028836600461022d565b611682565b6102956101e1565b9182918261025d565b0390f35b6101e7565b5f0190565b346102da576102c46102bf36600461022d565b611746565b6102cc6101e1565b806102d6816102a7565b0390f35b6101e7565b634e487b7160e01b5f52602160045260245ffd5b600311156102fd57565b6102df565b9061030c826102f3565b565b61031790610302565b90565b6103239061030e565b9052565b919061033a905f6020850194019061031a565b565b3461036c5761036861035761035236600461022d565b611755565b61035f6101e1565b91829182610327565b0390f35b6101e7565b5f91031261037b57565b6101eb565b1c90565b90565b61039790600861039c9302610380565b610384565b90565b906103aa9154610387565b90565b6103b960045f9061039f565b90565b90565b6103c8906103bc565b9052565b91906103df905f602085019401906103bf565b565b34610411576103f1366004610371565b61040d6103fc6103ad565b6104046101e1565b918291826103cc565b0390f35b6101e7565b5f80fd5b5f80fd5b601f801991011690565b634e487b7160e01b5f52604160045260245ffd5b906104469061041e565b810190811067ffffffffffffffff82111761046057604052565b610428565b906104786104716101e1565b928361043c565b565b67ffffffffffffffff81116104985761049460209161041e565b0190565b610428565b90825f939282370152565b909291926104bd6104b88261047a565b610465565b938185526020850190828401116104d9576104d79261049d565b565b61041a565b9080601f830112156104fc578160206104f9933591016104a8565b90565b610416565b90602082820312610531575f82013567ffffffffffffffff811161052c5761052992016104de565b90565b6101ef565b6101eb565b5190565b905090565b90825f9392825e0152565b61056f6105669260209261055d81610536565b9485809361053a565b9384910161053f565b0190565b90565b610582610587916103bc565b610573565b9052565b61059b6105a2916020949361054a565b8092610576565b0190565b6105ba6105b16101e1565b9283928361058b565b03902090565b6105c9916105a6565b90565b60018060a01b031690565b6105e79060086105ec9302610380565b6105cc565b90565b906105fa91546105d7565b90565b6106139061060e6007915f926105c0565b6105ef565b90565b61061f906101fe565b9052565b9190610636905f60208501940190610616565b565b346106685761066461065361064e366004610501565b6105fd565b61065b6101e1565b91829182610623565b0390f35b6101e7565b3461069b5761067d366004610371565b61068561192f565b61068d6101e1565b80610697816102a7565b0390f35b6101e7565b346106ce576106b86106b336600461022d565b611b7e565b6106c06101e1565b806106ca816102a7565b0390f35b6101e7565b6106dc8161024b565b036106e357565b5f80fd5b905035906106f4826106d3565b565b919060408382031261071e578061071261071b925f860161021e565b936020016106e7565b90565b6101eb565b346107525761073c6107363660046106f6565b90611bf6565b6107446101e1565b8061074e816102a7565b0390f35b6101e7565b67ffffffffffffffff81116107755761077160209161041e565b0190565b610428565b9092919261078f61078a82610757565b610465565b938185526020850190828401116107ab576107a99261049d565b565b61041a565b9080601f830112156107ce578160206107cb9335910161077a565b90565b610416565b67ffffffffffffffff81116107eb5760208091020190565b610428565b5f80fd5b6107fd816103bc565b0361080457565b5f80fd5b90503590610815826107f4565b565b9092919261082c610827826107d3565b610465565b938185526020808601920283019281841161086957915b8383106108505750505050565b6020809161085e8486610808565b815201920191610843565b6107f0565b9080601f8301121561088c5781602061088993359101610817565b90565b610416565b9190916040818403126108e9575f81013567ffffffffffffffff81116108e457836108bd9183016107b0565b92602082013567ffffffffffffffff81116108df576108dc920161086e565b90565b6101ef565b6101ef565b6101eb565b3461091d57610907610901366004610891565b90611d92565b61090f6101e1565b80610919816102a7565b0390f35b6101e7565b90565b61093961093461093e926101f3565b610922565b6101f3565b90565b61094a90610925565b90565b61095690610941565b90565b906109639061094d565b5f5260205260405f2090565b60ff1690565b61098590600861098a9302610380565b61096f565b90565b906109989154610975565b90565b6109b1906109ac6009915f92610959565b61098d565b90565b346109e4576109e06109cf6109ca36600461022d565b61099b565b6109d76101e1565b9182918261025d565b0390f35b6101e7565b34610a1957610a15610a046109ff36600461022d565b611fab565b610a0c6101e1565b918291826103cc565b0390f35b6101e7565b60031115610a2857565b5f80fd5b90503590610a3982610a1e565b565b919060a083820312610aa557610a53815f850161021e565b92610a618260208301610a2c565b92610a6f8360408401610808565b9260608301359067ffffffffffffffff8211610aa057610a9481610a9d9386016104de565b936080016106e7565b90565b6101ef565b6101eb565b34610adc57610ac6610abd366004610a3b565b93929092612028565b610ace6101e1565b80610ad8816102a7565b0390f35b6101e7565b9091606082840312610b1657610b13610afc845f850161021e565b93610b0a8160208601610a2c565b93604001610808565b90565b6101eb565b34610b4a57610b34610b2e366004610ae1565b916120c9565b610b3c6101e1565b80610b46816102a7565b0390f35b6101e7565b34610b7d57610b5f366004610371565b610b67612126565b610b6f6101e1565b80610b79816102a7565b0390f35b6101e7565b34610bb257610b92366004610371565b610bae610b9d612134565b610ba56101e1565b91829182610623565b0390f35b6101e7565b60209181520190565b610bdf610be8602093610bed93610bd681610536565b93848093610bb7565b9586910161053f565b61041e565b0190565b610c2a610c1f606093610c3196989795610c1260808601925f87019061031a565b8482036020860152610bc0565b966040830190610250565b01906103bf565b565b34610c6757610c63610c4e610c4936600461022d565b61224a565b90610c5a9492946101e1565b94859485610bf1565b0390f35b6101e7565b90610c769061094d565b5f5260205260405f2090565b5f1c90565b60ff1690565b610c99610c9e91610c82565b610c87565b90565b610cab9054610c8d565b90565b634e487b7160e01b5f52602260045260245ffd5b9060016002830492168015610ce2575b6020831014610cdd57565b610cae565b91607f1691610cd2565b60209181520190565b5f5260205f2090565b905f9291805490610d18610d1183610cc2565b8094610cec565b916001811690815f14610d6f5750600114610d33575b505050565b610d409192939450610cf5565b915f925b818410610d5757505001905f8080610d2e565b60018160209295939554848601520191019290610d44565b92949550505060ff19168252151560200201905f8080610d2e565b90610d9491610cfe565b90565b90610db7610db092610da76101e1565b93848092610d8a565b038361043c565b565b610dc5610dca91610c82565b61096f565b90565b610dd79054610db9565b90565b610de6610deb91610c82565b610384565b90565b610df89054610dda565b90565b90565b610e0a610e0f91610c82565b610dfb565b90565b610e1c9054610dfe565b90565b610e2a906005610c6c565b610e355f8201610ca1565b91610e4260018301610d97565b91610e4f60028201610dcd565b91610e686004610e6160038501610dee565b9301610e12565b90565b90565b610e7790610e6b565b9052565b90610ecb94610eba610eaf610ec4936080969a99979a610ea260a08801925f89019061031a565b8682036020880152610bc0565b986040850190610250565b60608301906103bf565b0190610e6e565b565b34610f0157610efd610ee8610ee336600461022d565b610e1f565b91610ef49593956101e1565b95869586610e7b565b0390f35b6101e7565b5190565b60209181520190565b60200190565b610f22906103bc565b9052565b60031115610f3057565b6102df565b90610f3f82610f26565b565b610f4a90610f35565b90565b610f5690610f41565b9052565b610f63906101fe565b9052565b610f86610f8f602093610f9493610f7d81610536565b93848093610cec565b9586910161053f565b61041e565b0190565b610fa19061024b565b9052565b906110299060c08061101e60e08401610fc45f8801515f870190610f19565b610fd660208801516020870190610f4d565b610fe860408801516040870190610f19565b610ffa60608801516060870190610f19565b61100c60808801516080870190610f5a565b60a087015185820360a0870152610f67565b940151910190610f98565b90565b9061103691610fa5565b90565b60200190565b9061105361104c83610f06565b8092610f0a565b908161106460208302840194610f13565b925f915b83831061107757505050505090565b909192939460206110996110938385600195038752895161102c565b97611039565b9301930191939290611068565b6110bb9160208201915f81840391015261103f565b90565b346110ee576110ea6110d96110d436600461022d565b61242b565b6110e16101e1565b918291826110a6565b0390f35b6101e7565b6110fc81610e6b565b0361110357565b5f80fd5b90503590611114826110f3565b565b9060208282031261112f5761112c915f01611107565b90565b6101eb565b61113d90610e6b565b90565b9061114a90611134565b5f5260205260405f2090565b61116c906111676006915f92611140565b61098d565b90565b3461119f5761119b61118a611185366004611116565b611156565b6111926101e1565b9182918261025d565b0390f35b6101e7565b91906040838203126111cc57806111c06111c9925f860161021e565b93602001610808565b90565b6101eb565b906111db9061094d565b5f5260205260405f2090565b634e487b7160e01b5f52603260045260245ffd5b5490565b5f5260205f2090565b611211816111fb565b82101561122b576112236007916111ff565b910201905f90565b6111e7565b60ff1690565b61124261124791610c82565b611230565b90565b6112549054611236565b90565b61126361126891610c82565b6105cc565b90565b6112759054611257565b90565b6112839060086111d1565b9061128d826111fb565b8110156112f95761129d91611208565b506112a95f8201610dee565b916112b66001830161124a565b916112c360028201610dee565b916112d060038301610dee565b916112dd6004820161126b565b916112f660066112ef60058501610d97565b9301610dcd565b90565b5f80fd5b61130690610f41565b9052565b9796946113609061135660c09661134c61136d9760408e6113456113759e999a61133b60e084019c5f8501906103bf565b60208301906112fd565b01906103bf565b60608c01906103bf565b60808a0190610616565b87820360a0890152610bc0565b940190610250565b565b346113af576113ab61139361138d3660046111a4565b90611278565b936113a29795979391936101e1565b9788978861130a565b0390f35b6101e7565b346113e4576113e06113cf6113ca36600461022d565b6124c5565b6113d76101e1565b918291826103cc565b0390f35b6101e7565b34611417576114016113fc366004610501565b612798565b6114096101e1565b80611413816102a7565b0390f35b6101e7565b60018060a01b031690565b61143790600861143c9302610380565b61141c565b90565b9061144a9154611427565b90565b61145960015f9061143f565b90565b61146590610941565b90565b6114719061145c565b9052565b9190611488905f60208501940190611468565b565b346114ba5761149a366004610371565b6114b66114a561144d565b6114ad6101e1565b91829182611475565b0390f35b6101e7565b346114ed576114cf366004610371565b6114d76129d8565b6114df6101e1565b806114e9816102a7565b0390f35b6101e7565b60018060a01b031690565b61150d9060086115129302610380565b6114f2565b90565b9061152091546114fd565b90565b61152f60025f90611515565b90565b61153b90610941565b90565b61154790611532565b9052565b919061155e905f6020850194019061153e565b565b3461159057611570366004610371565b61158c61157b611523565b6115836101e1565b9182918261154b565b0390f35b6101e7565b90565b6115ac6115a76115b192611595565b610922565b6103bc565b90565b6115c062989680611598565b90565b6115cb6115b4565b90565b346115fe576115de366004610371565b6115fa6115e96115c3565b6115f16101e1565b918291826103cc565b0390f35b6101e7565b346116315761161b61161636600461022d565b612b3c565b6116236101e1565b8061162d816102a7565b0390f35b6101e7565b61164260035f906105ef565b90565b3461167557611655366004610371565b611671611660611636565b6116686101e1565b91829182610623565b0390f35b6101e7565b5f80fd5b5f90565b5f61169a6116a09261169261167e565b506005610c6c565b01610ca1565b6116b36116ad6002610302565b91610302565b1490565b6116c8906116c3612b47565b611731565b565b6116d390610925565b90565b6116df906116ca565b90565b5f1b90565b906116f860018060a01b03916116e2565b9181191691161790565b61170b906116ca565b90565b90565b9061172661172161172d92611702565b61170e565b82546116e7565b9055565b61173d611744916116d6565b6001611711565b565b61174f906116b7565b565b5f90565b5f61176d61177392611765611751565b506005610c6c565b01610ca1565b90565b61178261178791610c82565b6114f2565b90565b6117949054611776565b90565b6117a090610941565b90565b60e01b90565b905051906117b6826107f4565b565b906020828203126117d1576117ce915f016117a9565b90565b6101eb565b9160206117f79294936117f060408201965f830190610616565b0190610616565b565b6118016101e1565b3d5f823e3d90fd5b90505190611816826106d3565b565b906020828203126118315761182e915f01611809565b90565b6101eb565b60409061185f611866949695939661185560608401985f850190610616565b6020830190610616565b01906103bf565b565b5f7f5472616e73666572206661696c65640000000000000000000000000000000000910152565b61189c600f602092610bb7565b6118a581611868565b0190565b6118be9060208101905f81830391015261188f565b90565b156118c857565b6118d06101e1565b62461bcd60e51b8152806118e6600482016118a9565b0390fd5b906118f660ff916116e2565b9181191691161790565b6119099061024b565b90565b90565b9061192461191f61192b92611900565b61190c565b82546118ea565b9055565b611946600261194060053390610c6c565b01610dcd565b611b1f5761195c611957600261178a565b611532565b602063dd62ed3e91339061198a61197230611797565b9461199561197e6101e1565b968795869485946117a3565b8452600484016117d6565b03915afa908115611b1a575f91611aec575b506119c16119bb6119b66115b4565b6103bc565b916103bc565b10611ad0576119d86119d3600261178a565b611532565b60206323b872dd913390611a105f6119f0600361126b565b95611a1b6119fc6115b4565b611a046101e1565b988997889687956117a3565b855260048501611836565b03925af18015611acb57611a36915f91611a9d575b506118c1565b611a4f60016002611a4960053390610c6c565b0161190f565b33611a586115b4565b90611a98611a867fd15c9547ea5c06670c0010ce19bc32d54682a4b3801ece7f3ab0c3f17106b4bb9261094d565b92611a8f6101e1565b918291826103cc565b0390a2565b611abe915060203d8111611ac4575b611ab6818361043c565b810190611818565b5f611a30565b503d611aac565b6117f9565b5f6313be252b60e01b815280611ae8600482016102a7565b0390fd5b611b0d915060203d8111611b13575b611b05818361043c565b8101906117b8565b5f6119a7565b503d611afb565b6117f9565b5f630300583960e31b815280611b37600482016102a7565b0390fd5b611b4c90611b47612b47565b611b71565b565b90565b90611b66611b61611b6d9261094d565b611b4e565b82546116e7565b9055565b611b7c906003611b51565b565b611b8790611b3b565b565b90611b9b91611b96612b47565b611b9d565b565b611bb282611bad60098490610959565b61190f565b611bf1611bdf7fad857fa38c9319cb80848f1ef2f924383b90297eb5d71755738ff037d100faa19261094d565b92611be86101e1565b9182918261025d565b0390a2565b90611c0091611b89565b565b611c0e611c1391610c82565b61141c565b90565b611c209054611c02565b90565b5190565b60209181520190565b611c4f611c58602093611c5d93611c4681611c23565b93848093611c27565b9586910161053f565b61041e565b0190565b5190565b60209181520190565b60200190565b90611c8181602093610f19565b0190565b60200190565b90611ca8611ca2611c9b84611c61565b8093611c65565b92611c6e565b905f5b818110611cb85750505090565b909192611cd1611ccb6001928651611c74565b94611c85565b9101919091611cab565b9091611cf5611d039360408401908482035f860152611c30565b916020818403910152611c8b565b90565b60200190565b611d1590610302565b90565b90565b90611d30611d2b611d3792611d0c565b611d18565b82546118ea565b9055565b90611d475f19916116e2565b9181191691161790565b611d5a90610c82565b90565b90611d72611d6d611d7992611134565b611d51565b8254611d3b565b9055565b9190611d90905f60208501940190610e6e565b565b90611da95f611da360053390610c6c565b01610ca1565b611dbc611db66001610302565b91610302565b03611f8b576020611dd5611dd06001611c16565b61145c565b91631e8e1e1392611df9859294611e04611ded6101e1565b968795869485946117a3565b845260048401611cdb565b03915afa8015611f8657611e20915f91611f58575b501561024b565b611f3c57611e36611e3082611c23565b91611d06565b20611e4b611e4660068390611140565b610dcd565b611f2057611e656001611e6060068490611140565b61190f565b611e7d60025f611e7760053390610c6c565b01611d1b565b611e95816004611e8f60053390610c6c565b01611d5d565b33611ed5611ec37fac2560685f85ea52eb1017414fed5bfa085fed52bd335577b12681ed51670f3e9261094d565b92611ecc6101e1565b91829182611d7d565b0390a233600290611f1b611f097f8e18574f8a7333e6a87112742a55853a643e2f0550f4e1a3a2c3f1bb2994441d9261094d565b92611f126101e1565b91829182610327565b0390a2565b5f63c9838a6560e01b815280611f38600482016102a7565b0390fd5b5f6309bde33960e01b815280611f54600482016102a7565b0390fd5b611f79915060203d8111611f7f575b611f71818361043c565b810190611818565b5f611e19565b503d611f67565b6117f9565b5f630cbf50dd60e01b815280611fa3600482016102a7565b0390fd5b5f90565b611fc2611fc791611fba611fa7565b5060086111d1565b6111fb565b90565b93929190611feb611fe5611fe060093390610959565b610dcd565b1561024b565b611ffa57611ff894612015565b565b5f6282b42960e81b815280612011600482016102a7565b0390fd5b916120269492939190919293612d6b565b565b9061203594939291611fca565b565b919061205661205061204b60093390610959565b610dcd565b1561024b565b61206557612063926120ae565b565b5f6282b42960e81b81528061207c600482016102a7565b0390fd5b9061209261208d8361047a565b610465565b918252565b6120a05f612080565b90565b6120ab612097565b90565b906120c7929190916001926120c16120a3565b92612d6b565b565b906120d49291612037565b565b6120de612b47565b6120e6612113565b565b90565b6120ff6120fa612104926120e8565b610922565b6101f3565b90565b612110906120eb565b90565b61212461211f5f612107565b612e6e565b565b61212e6120d6565b565b5f90565b61213c612130565b506121465f61126b565b90565b606090565b9061215890610302565b9052565b52565b906121699061024b565b9052565b90612177906103bc565b9052565b9061218590610e6b565b9052565b61219360a0610465565b90565b9061221561220c60046121a7612189565b946121be6121b65f8301610ca1565b5f880161214e565b6121d66121cd60018301610d97565b6020880161215c565b6121ee6121e560028301610dcd565b6040880161215f565b6122066121fd60038301610dee565b6060880161216d565b01610e12565b6080840161217b565b565b61222090612196565b90565b61222d9051610302565b90565b61223a905161024b565b90565b61224790516103bc565b90565b61227c61228191612259611751565b50612262612149565b5061226b61167e565b50612274611fa7565b506005610c6c565b612217565b61228c5f8201612223565b6020820151926122aa60606122a360408601612230565b940161223d565b9193929190565b606090565b67ffffffffffffffff81116122ce5760208091020190565b610428565b906122e56122e0836122b6565b610465565b918252565b906122f490610f35565b9052565b90612302906101fe565b9052565b61231060e0610465565b90565b906123c26123b96006612324612306565b9461233b6123335f8301610dee565b5f880161216d565b61235361234a6001830161124a565b602088016122ea565b61236b61236260028301610dee565b6040880161216d565b61238361237a60038301610dee565b6060880161216d565b61239b6123926004830161126b565b608088016122f8565b6123b36123aa60058301610d97565b60a0880161215c565b01610dcd565b60c0840161215f565b565b6123cd90612313565b90565b906123da826111fb565b6123e3816122d3565b926123f160208501916111ff565b5f915b8383106124015750505050565b60076020600192612411856123c4565b8152019201920191906123f4565b612428906123d0565b90565b6124426124479161243a6122b1565b5060086111d1565b61241f565b90565b61245e612459612463926120e8565b610922565b6103bc565b90565b600161247291016103bc565b90565b9061247f82610f06565b811015612490576020809102010190565b6111e7565b634e487b7160e01b5f52601160045260245ffd5b6124b2906103bc565b5f1981146124c05760010190565b612495565b906124ce611fa7565b506124eb6124e66124de5f61244a565b9360086111d1565b61241f565b916124f55f61244a565b5b8061251161250b61250687610f06565b6103bc565b916103bc565b10156125565761252e60c0612527868490612475565b5101612230565b612541575b61253c90612466565b6124f6565b9061254e61253c916124a9565b919050612533565b5090915090565b90565b61256a9054610cc2565b90565b634e487b7160e01b5f525f60045260245ffd5b601f602091010490565b1b90565b919060086125a99102916125a35f198461258a565b9261258a565b9181191691161790565b6125c76125c26125cc926103bc565b610922565b6103bc565b90565b90565b91906125e86125e36125f0936125b3565b6125cf565b90835461258e565b9055565b61260691612600611fa7565b916125d2565b565b5b818110612614575050565b806126215f6001936125f4565b01612609565b9190601f8111612637575b505050565b61264361266893610cf5565b90602061264f84612580565b83019310612670575b61266190612580565b0190612608565b5f8080612632565b915061266181929050612658565b9061268e905f1990600802610380565b191690565b8161269d9161267e565b906002021790565b906126af81610536565b9067ffffffffffffffff821161276f576126d3826126cd8554610cc2565b85612627565b602090601f8311600114612707579180916126f6935f926126fb575b5050612693565b90555b565b90915001515f806126ef565b601f1983169161271685610cf5565b925f5b8181106127575750916002939185600196941061273d575b505050020190556126f9565b61274d910151601f84169061267e565b90555f8080612731565b91936020600181928787015181550195019201612719565b610428565b9061277e916126a5565b565b6127959160208201915f818403910152610bc0565b90565b6127ae5f6127a860053390610c6c565b01610ca1565b6127c06127ba5f610302565b91610302565b146128d8576127e46127df60016127d960053390610c6c565b0161255d565b612560565b6127f66127f05f61244a565b916103bc565b116128bc5761280f61280a600783906105c0565b61126b565b61282961282361281e5f612107565b6101fe565b916101fe565b036128a05761284681600161284060053390610c6c565b01612774565b61285b33612856600784906105c0565b611b51565b3361289b6128897f413df153bebb8673717c75df0c9bd35401ad0caf0a04db4db145d544f181cb1b9261094d565b926128926101e1565b91829182612780565b0390a2565b5f63c982c49960e01b8152806128b8600482016102a7565b0390fd5b5f63c982c49960e01b8152806128d4600482016102a7565b0390fd5b5f630cbf50dd60e01b8152806128f0600482016102a7565b0390fd5b61290861290361290d926120e8565b6116e2565b610e6b565b90565b61291a60a0610465565b90565b5190565b9061293661293161293d926125b3565b6125cf565b8254611d3b565b9055565b61294b9051610e6b565b90565b906129c4608060046129ca946129715f820161296b5f8801612223565b90611d1b565b61298a600182016129846020880161291d565b90612774565b6129a36002820161299d60408801612230565b9061190f565b6129bc600382016129b66060880161223d565b90612921565b019201612941565b90611d5d565b565b906129d69161294e565b565b6129ee5f6129e860053390610c6c565b01610ca1565b612a006129fa5f610302565b91610302565b03612abb57612a736001612a625f612a5942612a50612a1e5f6128f4565b93612a33612a2a612910565b975f890161214e565b612a47612a3e6120a3565b6020890161215c565b6040870161215f565b6060850161216d565b6080830161217b565b612a6e60053390610c6c565b6129cc565b33600190612ab6612aa47f8e18574f8a7333e6a87112742a55853a643e2f0550f4e1a3a2c3f1bb2994441d9261094d565b92612aad6101e1565b91829182610327565b0390a2565b5f630ea075bf60e21b815280612ad3600482016102a7565b0390fd5b612ae890612ae3612b47565b612aea565b565b80612b05612aff612afa5f612107565b6101fe565b916101fe565b14612b1557612b1390612e6e565b565b612b38612b215f612107565b5f918291631e4fbdf760e01b835260048301610623565b0390fd5b612b4590612ad7565b565b612b4f612134565b612b68612b62612b5d612ecd565b6101fe565b916101fe565b03612b6f57565b612b91612b7a612ecd565b5f91829163118cdaa760e01b835260048301610623565b0390fd5b90565b612ba260e0610465565b90565b5f5260205f2090565b5490565b612bbb81612bae565b821015612bd557612bcd600791612ba5565b910201905f90565b6111e7565b612be49051610f35565b90565b612bf090610f35565b90565b90565b90612c0b612c06612c1292612be7565b612bf3565b82546118ea565b9055565b612c2090516101fe565b90565b90612ccb60c06006612cd194612c465f8201612c405f880161223d565b90612921565b612c5f60018201612c5960208801612bda565b90612bf6565b612c7860028201612c726040880161223d565b90612921565b612c9160038201612c8b6060880161223d565b90612921565b612caa60048201612ca460808801612c16565b90611b51565b612cc360058201612cbd60a0880161291d565b90612774565b019201612230565b9061190f565b565b9190612ce457612ce291612c23565b565b61256d565b9081549168010000000000000000831015612d195782612d11916001612d1795018155612bb2565b90612cd3565b565b610428565b90959492612d6994612d58612d6292612d4e608096612d4460a088019c5f8901906103bf565b60208701906112fd565b60408501906103bf565b6060830190610616565b0190610250565b565b919091612d786004610dee565b612d81816124a9565b612d8c906004612921565b93600882612d99916111d1565b612da290612b95565b90859085908590423391928b94612db7612b98565b965f880190612dc59161216d565b6020870190612dd3916122ea565b6040860190612de19161216d565b6060850190612def9161216d565b6080840190612dfd916122f8565b60a0830190612e0b9161215c565b60c0820190612e199161215f565b612e2291612ce9565b9291909133947f73c45bc901b5ea7c51c92c804a2067dd8c8b557fa2e23ff3dfc0b023297938cf94612e539061094d565b95612e5c6101e1565b948594612e699486612d1e565b0390a2565b612e775f61126b565b612e81825f611b51565b90612eb5612eaf7f8be0079c531659141344cd1fd0a4f28419497f9722a3daafe3b4186f6b6457e09361094d565b9161094d565b91612ebe6101e1565b80612ec8816102a7565b0390a3565b612ed5612130565b50339056fea2646970667358221220227a48e3170f028717beda827c7244ea54d83cec52434cbb7dbf46fce54efde864736f6c634300081e0033","linkReferences":{}},"methodIdentifiers":{"DEPOSIT_AMOUNT()":"ec6925a7","addAttestation(address,uint8,uint256)":"6b335311","addAttestationWithMetadata(address,uint8,uint256,string,bool)":"68b96b46","attestationCounter()":"2c996e03","attestations(address,uint256)":"c657c6a5","authorizedCallers(address)":"536fff6c","ensToAddress(string)":"33097df6","gasSponsorAddress()":"f38fad13","getAttestationCount(address)":"633c0bbc","getAttestations(address)":"aba6466c","getPositiveAttestationCount(address)":"d0216001","getUserLevel(address)":"21923bde","getUserProfile(address)":"987ee156","isVerifiedHuman(address)":"0063fa27","linkEns(string)":"d44ab80c","makeDeposit()":"40732c89","owner()":"8da5cb5b","registerBasic()":"e1c6f442","renounceOwnership()":"715018a6","setAuthorizedCaller(address,bool)":"454bbd29","stablecoin()":"e9cbd822","transferOwnership(address)":"f2fde38b","updateGasSponsor(address)":"4266c033","updateZkVerifier(address)":"0148606c","usedProofs(bytes32)":"c30a0f25","users(address)":"a87430ba","verifyHuman(bytes,uint256[])":"5005305d","zkVerifier()":"d6df096d"},"id":9}