{"abi":[{"type":"constructor","inputs":[{"name":"_stablecoin","type":"address","internalType":"address"}],"stateMutability":"nonpayable"},{"type":"function","name":"COVERAGE_PERCENTAGE","inputs":[],"outputs":[{"name":"","type":"uint256","internalType":"uint256"}],"stateMutability":"view"},{"type":"function","name":"POLICY_DURATION","inputs":[],"outputs":[{"name":"","type":"uint256","internalType":"uint256"}],"stateMutability":"view"},{"type":"function","name":"PREMIUM_PERCENTAGE","inputs":[],"outputs":[{"name":"","type":"uint256","internalType":"uint256"}],"stateMutability":"view"},{"type":"function","name":"buyInsurance","inputs":[{"name":"projectId","type":"uint256","internalType":"uint256"},{"name":"coverageAmount","type":"uint256","internalType":"uint256"}],"outputs":[{"name":"","type":"uint256","internalType":"uint256"}],"stateMutability":"nonpayable"},{"type":"function","name":"expirePolicy","inputs":[{"name":"policyId","type":"uint256","internalType":"uint256"}],"outputs":[],"stateMutability":"nonpayable"},{"type":"function","name":"fileClaim","inputs":[{"name":"policyId","type":"uint256","internalType":"uint256"},{"name":"claimAmount","type":"uint256","internalType":"uint256"}],"outputs":[],"stateMutability":"nonpayable"},{"type":"function","name":"getPolicy","inputs":[{"name":"policyId","type":"uint256","internalType":"uint256"}],"outputs":[{"name":"policyholder","type":"address","internalType":"address"},{"name":"projectId","type":"uint256","internalType":"uint256"},{"name":"coverageAmount","type":"uint256","internalType":"uint256"},{"name":"premiumPaid","type":"uint256","internalType":"uint256"},{"name":"status","type":"uint8","internalType":"enum InsurancePool.PolicyStatus"},{"name":"expiryTime","type":"uint256","internalType":"uint256"}],"stateMutability":"view"},{"type":"function","name":"getPoolBalance","inputs":[],"outputs":[{"name":"","type":"uint256","internalType":"uint256"}],"stateMutability":"view"},{"type":"function","name":"getPoolMetrics","inputs":[],"outputs":[{"name":"premiumsCollected","type":"uint256","internalType":"uint256"},{"name":"claimsPaid","type":"uint256","internalType":"uint256"},{"name":"currentBalance","type":"uint256","internalType":"uint256"},{"name":"profit","type":"uint256","internalType":"uint256"}],"stateMutability":"view"},{"type":"function","name":"getUserPolicies","inputs":[{"name":"user","type":"address","internalType":"address"}],"outputs":[{"name":"","type":"uint256[]","internalType":"uint256[]"}],"stateMutability":"view"},{"type":"function","name":"owner","inputs":[],"outputs":[{"name":"","type":"address","internalType":"address"}],"stateMutability":"view"},{"type":"function","name":"policies","inputs":[{"name":"","type":"uint256","internalType":"uint256"}],"outputs":[{"name":"policyholder","type":"address","internalType":"address"},{"name":"projectId","type":"uint256","internalType":"uint256"},{"name":"coverageAmount","type":"uint256","internalType":"uint256"},{"name":"premiumPaid","type":"uint256","internalType":"uint256"},{"name":"startTime","type":"uint256","internalType":"uint256"},{"name":"expiryTime","type":"uint256","internalType":"uint256"},{"name":"status","type":"uint8","internalType":"enum InsurancePool.PolicyStatus"}],"stateMutability":"view"},{"type":"function","name":"policyCounter","inputs":[],"outputs":[{"name":"","type":"uint256","internalType":"uint256"}],"stateMutability":"view"},{"type":"function","name":"projectToPolicy","inputs":[{"name":"","type":"uint256","internalType":"uint256"}],"outputs":[{"name":"","type":"uint256","internalType":"uint256"}],"stateMutability":"view"},{"type":"function","name":"renounceOwnership","inputs":[],"outputs":[],"stateMutability":"nonpayable"},{"type":"function","name":"stablecoin","inputs":[],"outputs":[{"name":"","type":"address","internalType":"contract IERC20"}],"stateMutability":"view"},{"type":"function","name":"totalClaimsPaid","inputs":[],"outputs":[{"name":"","type":"uint256","internalType":"uint256"}],"stateMutability":"view"},{"type":"function","name":"totalPremiumsCollected","inputs":[],"outputs":[{"name":"","type":"uint256","internalType":"uint256"}],"stateMutability":"view"},{"type":"function","name":"transferOwnership","inputs":[{"name":"newOwner","type":"address","internalType":"address"}],"outputs":[],"stateMutability":"nonpayable"},{"type":"function","name":"userPolicies","inputs":[{"name":"","type":"address","internalType":"address"},{"name":"","type":"uint256","internalType":"uint256"}],"outputs":[{"name":"","type":"uint256","internalType":"uint256"}],"stateMutability":"view"},{"type":"function","name":"withdrawPremiums","inputs":[{"name":"amount","type":"uint256","internalType":"uint256"}],"outputs":[],"stateMutability":"nonpayable"},{"type":"event","name":"ClaimFiled","inputs":[{"name":"policyId","type":"uint256","indexed":true,"internalType":"uint256"},{"name":"claimAmount","type":"uint256","indexed":false,"internalType":"uint256"}],"anonymous":false},{"type":"event","name":"ClaimPaid","inputs":[{"name":"policyId","type":"uint256","indexed":true,"internalType":"uint256"},{"name":"recipient","type":"address","indexed":true,"internalType":"address"},{"name":"amount","type":"uint256","indexed":false,"internalType":"uint256"}],"anonymous":false},{"type":"event","name":"InsurancePurchased","inputs":[{"name":"policyId","type":"uint256","indexed":true,"internalType":"uint256"},{"name":"policyholder","type":"address","indexed":true,"internalType":"address"},{"name":"projectId","type":"uint256","indexed":true,"internalType":"uint256"},{"name":"coverageAmount","type":"uint256","indexed":false,"internalType":"uint256"},{"name":"premium","type":"uint256","indexed":false,"internalType":"uint256"}],"anonymous":false},{"type":"event","name":"OwnershipTransferred","inputs":[{"name":"previousOwner","type":"address","indexed":true,"internalType":"address"},{"name":"newOwner","type":"address","indexed":true,"internalType":"address"}],"anonymous":false},{"type":"event","name":"PremiumWithdrawn","inputs":[{"name":"owner","type":"address","indexed":true,"internalType":"address"},{"name":"amount","type":"uint256","indexed":false,"internalType":"uint256"}],"anonymous":false},{"type":"error","name":"ClaimExceedsCoverage","inputs":[]},{"type":"error","name":"InsufficientPoolBalance","inputs":[]},{"type":"error","name":"InvalidCoverageAmount","inputs":[]},{"type":"error","name":"InvalidProjectId","inputs":[]},{"type":"error","name":"OwnableInvalidOwner","inputs":[{"name":"owner","type":"address","internalType":"address"}]},{"type":"error","name":"OwnableUnauthorizedAccount","inputs":[{"name":"account","type":"address","internalType":"address"}]},{"type":"error","name":"PolicyAlreadyExists","inputs":[]},{"type":"error","name":"PolicyNotActive","inputs":[]},{"type":"error","name":"ReentrancyGuardReentrantCall","inputs":[]}],"bytecode":{"object":"0x60a0604052346100695761001961001461012e565b610186565b61002161006e565b61232c6104478239608051818181610bc001528181610d9c01528181611306015281816113fb0152818161170d0152818161179801528181611d4c0152611fae015261232c90f35b610074565b60405190565b5f80fd5b601f801991011690565b634e487b7160e01b5f52604160045260245ffd5b906100a090610078565b810190811060018060401b038211176100b857604052565b610082565b906100d06100c961006e565b9283610096565b565b5f80fd5b60018060a01b031690565b6100ea906100d6565b90565b6100f6816100e1565b036100fd57565b5f80fd5b9050519061010e826100ed565b565b9060208282031261012957610126915f01610101565b90565b6100d2565b61014c61277380380380610141816100bd565b928339810190610110565b90565b90565b61016661016161016b926100d6565b61014f565b6100d6565b90565b61017790610152565b90565b6101839061016e565b90565b6101989061019333610226565b61017a565b608052565b90565b90565b6101b76101b26101bc9261019d565b61014f565b6101a0565b90565b6101c960016101a3565b90565b5f1b90565b906101dd5f19916101cc565b9181191691161790565b6101fb6101f6610200926101a0565b61014f565b6101a0565b90565b90565b9061021b610216610222926101e7565b610203565b82546101d1565b9055565b61022f906102a0565b61025161023a6101bf565b5f61024b610246610344565b610358565b01610206565b565b90565b61026a61026561026f92610253565b61014f565b6100d6565b90565b61027b90610256565b90565b610287906100e1565b9052565b919061029e905f6020850194019061027e565b565b806102bb6102b56102b05f610272565b6100e1565b916100e1565b146102cb576102c9906103e7565b565b6102ee6102d75f610272565b5f918291631e4fbdf760e01b83526004830161028b565b0390fd5b5f90565b90565b90565b61031061030b610315926102f6565b6101cc565b6102f9565b90565b6103417f9b779b17422d0df92223018b32b4d1fa46e071723d6817e2486d003becc55f006102fc565b90565b61034c6102f2565b50610355610318565b90565b90565b5f1c90565b60018060a01b031690565b61037761037c9161035b565b610360565b90565b610389905461036b565b90565b9061039d60018060a01b03916101cc565b9181191691161790565b6103b090610152565b90565b6103bc906103a7565b90565b90565b906103d76103d26103de926103b3565b6103bf565b825461038c565b9055565b5f0190565b6103f05f61037f565b6103fa825f6103c2565b9061042e6104287f8be0079c531659141344cd1fd0a4f28419497f9722a3daafe3b4186f6b6457e0936103b3565b916103b3565b9161043761006e565b80610441816103e2565b0390a356fe60806040526004361015610013575b610c78565b61001d5f3561016c565b806315f01a9b146101675780631866509f1461016257806319ac46141461015d5780632b07fce3146101585780633037e4cd1461015357806337e947261461014e5780633d36adc5146101495780633dadde20146101445780634e8d9c4d1461013f5780636532ccf51461013a578063715018a61461013557806377e7f51a146101305780638da5cb5b1461012b5780639b70e2fb14610126578063a193b7a414610121578063a7b1b3531461011c578063abd70aa214610117578063d3e8948314610112578063d52c1bea1461010d578063e9cbd822146101085763f2fde38b0361000e57610c45565b610c10565b610b89565b610b3e565b6109ac565b610976565b610941565b6108c1565b610853565b610809565b61079f565b61076a565b610728565b6106f3565b6106ae565b610558565b6104f8565b6104b7565b610391565b610261565b6101ee565b60e01c90565b60405190565b5f80fd5b5f80fd5b5f91031261018a57565b61017c565b90565b90565b90565b6101ac6101a76101b19261018f565b610195565b610192565b90565b6101be6064610198565b90565b6101c96101b4565b90565b6101d590610192565b9052565b91906101ec905f602085019401906101cc565b565b3461021e576101fe366004610180565b61021a6102096101c1565b610211610172565b918291826101d9565b0390f35b610178565b61025861025f9461024e606094989795610244608086019a5f8701906101cc565b60208501906101cc565b60408301906101cc565b01906101cc565b565b3461029557610271366004610180565b61029161027c610d6e565b90610288949294610172565b94859485610223565b0390f35b610178565b60018060a01b031690565b6102ae9061029a565b90565b6102ba816102a5565b036102c157565b5f80fd5b905035906102d2826102b1565b565b906020828203126102ed576102ea915f016102c5565b90565b61017c565b5190565b60209181520190565b60200190565b61030e90610192565b9052565b9061031f81602093610305565b0190565b60200190565b90610346610340610339846102f2565b80936102f6565b926102ff565b905f5b8181106103565750505090565b90919261036f6103696001928651610312565b94610323565b9101919091610349565b61038e9160208201915f818403910152610329565b90565b346103c1576103bd6103ac6103a73660046102d4565b610f61565b6103b4610172565b91829182610379565b0390f35b610178565b6103cf81610192565b036103d657565b5f80fd5b905035906103e7826103c6565b565b90602082820312610402576103ff915f016103da565b90565b61017c565b610410906102a5565b9052565b634e487b7160e01b5f52602160045260245ffd5b6003111561043257565b610414565b9061044182610428565b565b61044c90610437565b90565b61045890610443565b9052565b91946104a46104ae9298979561049a60a0966104906104b59a61048660c08a019e5f8b0190610407565b60208901906101cc565b60408701906101cc565b60608501906101cc565b608083019061044f565b01906101cc565b565b346104ee576104ea6104d26104cd3660046103e9565b610f8b565b926104e1969496929192610172565b9687968761045c565b0390f35b610178565b5f0190565b346105265761051061050b3660046103e9565b611073565b610518610172565b80610522816104f3565b0390f35b610178565b91906040838203126105535780610547610550925f86016103da565b936020016103da565b90565b61017c565b346105875761057161056b36600461052b565b906115c5565b610579610172565b80610583816104f3565b0390f35b610178565b91906040838203126105b457806105a86105b1925f86016102c5565b936020016103da565b90565b61017c565b6105cd6105c86105d29261029a565b610195565b61029a565b90565b6105de906105b9565b90565b6105ea906105d5565b90565b906105f7906105e1565b5f5260205260405f2090565b634e487b7160e01b5f52603260045260245ffd5b5490565b5f5260205f2090565b61062d81610617565b8210156106475761063f60019161061b565b910201905f90565b610603565b1c90565b90565b610663906008610668930261064c565b610650565b90565b906106769154610653565b90565b6106849060066105ed565b61068d81610617565b8210156106aa576106a7916106a191610624565b9061066b565b90565b5f80fd5b346106df576106db6106ca6106c436600461058c565b90610679565b6106d2610172565b918291826101d9565b0390f35b610178565b6106f060025f9061066b565b90565b3461072357610703366004610180565b61071f61070e6106e4565b610716610172565b918291826101d9565b0390f35b610178565b346107565761074061073b3660046103e9565b6118c2565b610748610172565b80610752816104f3565b0390f35b610178565b61076760035f9061066b565b90565b3461079a5761077a366004610180565b61079661078561075b565b61078d610172565b918291826101d9565b0390f35b610178565b346107cd576107af366004610180565b6107b761191a565b6107bf610172565b806107c9816104f3565b0390f35b610178565b90565b6107e96107e46107ee926107d2565b610195565b610192565b90565b6107fb60056107d5565b90565b6108066107f1565b90565b3461083957610819366004610180565b6108356108246107fe565b61082c610172565b918291826101d9565b0390f35b610178565b9190610851905f60208501940190610407565b565b3461088357610863366004610180565b61087f61086e611924565b610876610172565b9182918261083e565b0390f35b610178565b90565b61089f61089a6108a492610888565b610195565b610192565b90565b6108b36276a70061088b565b90565b6108be6108a7565b90565b346108f1576108d1366004610180565b6108ed6108dc6108b6565b6108e4610172565b918291826101d9565b0390f35b610178565b61090a61090561090f92610192565b610195565b610192565b90565b9061091c906108f6565b5f5260205260405f2090565b61093e906109396005915f92610912565b61066b565b90565b346109715761096d61095c6109573660046103e9565b610928565b610964610172565b918291826101d9565b0390f35b610178565b346109a7576109a361099261098c36600461052b565b90611f86565b61099a610172565b918291826101d9565b0390f35b610178565b346109dc576109bc366004610180565b6109d86109c7611f9b565b6109cf610172565b918291826101d9565b0390f35b610178565b906109eb906108f6565b5f5260205260405f2090565b5f1c90565b60018060a01b031690565b610a13610a18916109f7565b6109fc565b90565b610a259054610a07565b90565b610a34610a39916109f7565b610650565b90565b610a469054610a28565b90565b60ff1690565b610a5b610a60916109f7565b610a49565b90565b610a6d9054610a4f565b90565b610a7b9060046109e1565b610a865f8201610a1b565b91610a9360018301610a3c565b91610aa060028201610a3c565b91610aad60038301610a3c565b91610aba60048201610a3c565b91610ad36006610acc60058501610a3c565b9301610a63565b90565b949290979695939160e08601985f8701610aef91610407565b60208601610afc916101cc565b60408501610b09916101cc565b60608401610b16916101cc565b60808301610b23916101cc565b60a08201610b30916101cc565b60c001610b3c9161044f565b565b34610b7557610b71610b59610b543660046103e9565b610a70565b93610b68979597939193610172565b97889788610ad6565b0390f35b610178565b610b8660015f9061066b565b90565b34610bb957610b99366004610180565b610bb5610ba4610b7a565b610bac610172565b918291826101d9565b0390f35b610178565b7f000000000000000000000000000000000000000000000000000000000000000090565b610beb906105d5565b90565b610bf790610be2565b9052565b9190610c0e905f60208501940190610bee565b565b34610c4057610c20366004610180565b610c3c610c2b610bbe565b610c33610172565b91829182610bfb565b0390f35b610178565b34610c7357610c5d610c583660046102d4565b6120b2565b610c65610172565b80610c6f816104f3565b0390f35b610178565b5f80fd5b5f90565b610c89906105d5565b90565b601f801991011690565b634e487b7160e01b5f52604160045260245ffd5b90610cb490610c8c565b810190811067ffffffffffffffff821117610cce57604052565b610c96565b60e01b90565b90505190610ce6826103c6565b565b90602082820312610d0157610cfe915f01610cd9565b90565b61017c565b610d0e610172565b3d5f823e3d90fd5b90565b610d2d610d28610d3292610d16565b610195565b610192565b90565b634e487b7160e01b5f52601160045260245ffd5b610d58610d5e91939293610192565b92610192565b8203918211610d6957565b610d35565b610d76610c7c565b50610d7f610c7c565b50610d88610c7c565b50610d91610c7c565b50610df26020610dc07f0000000000000000000000000000000000000000000000000000000000000000610be2565b6370a0823190610de7610dd230610c80565b92610ddb610172565b95869485938493610cd3565b83526004830161083e565b03915afa908115610ea9575f91610e7b575b5090610e106002610a3c565b610e1a6003610a3c565b9291610e266002610a3c565b610e41610e3b610e366003610a3c565b610192565b91610192565b115f14610e6d57610e65610e556002610a3c565b610e5f6003610a3c565b90610d49565b5b9193929190565b610e765f610d19565b610e66565b610e9c915060203d8111610ea2575b610e948183610caa565b810190610ce8565b5f610e04565b503d610e8a565b610d06565b606090565b60209181520190565b610ec69054610a28565b90565b60010190565b90610eec610ee6610edf84610617565b8093610eb3565b9261061b565b905f5b818110610efc5750505090565b909192610f1c610f16600192610f1187610ebc565b610312565b94610ec9565b9101919091610eef565b90610f3091610ecf565b90565b90610f53610f4c92610f43610172565b93848092610f26565b0383610caa565b565b610f5e90610f33565b90565b610f78610f7d91610f70610eae565b5060066105ed565b610f55565b90565b5f90565b5f90565b90565b610fcf610fd491610f9a610f80565b50610fa3610c7c565b50610fac610c7c565b50610fb5610c7c565b50610fbe610f84565b50610fc7610c7c565b5060046109e1565b610f88565b90610fe05f8301610a1b565b90610fed60018401610a3c565b92610ffa60028201610a3c565b9261100760038301610a3c565b92611020600561101960068601610a63565b9401610a3c565b91959493929190565b5f1b90565b9061103a60ff91611029565b9181191691161790565b61104d90610437565b90565b90565b9061106861106361106f92611044565b611050565b825461102e565b9055565b6110816110869160046109e1565b610f88565b61109260068201610a63565b6110a461109e5f610437565b91610437565b14806110c8575b6110b3575b50565b6110c290600660019101611053565b5f6110b0565b50426110e76110e16110dc60058501610a3c565b610192565b91610192565b116110ab565b906110ff916110fa6120e9565b61125b565b611107612141565b565b61111861111e91939293610192565b92610192565b820180921161112957565b610d35565b9061113a5f1991611029565b9181191691161790565b90565b9061115c611157611163926108f6565b611144565b825461112e565b9055565b151590565b61117581611167565b0361117c57565b5f80fd5b9050519061118d8261116c565b565b906020828203126111a8576111a5915f01611180565b90565b61017c565b9160206111ce9294936111c760408201965f830190610407565b01906101cc565b565b60209181520190565b5f7f436c61696d207061796d656e74206661696c6564000000000000000000000000910152565b61120d60146020926111d0565b611216816111d9565b0190565b61122f9060208101905f818303910152611200565b90565b1561123957565b611241610172565b62461bcd60e51b8152806112576004820161121a565b0390fd5b9061127061126b600484906109e1565b610f88565b913361128e6112886112835f8701610a1b565b6102a5565b916102a5565b036115a95761129f60068401610a63565b6112b16112ab5f610437565b91610437565b0361158d57426112d46112ce6112c960058701610a3c565b610192565b91610192565b1161157157816112f76112f16112ec60028701610a3c565b610192565b91610192565b116115555761135c602061132a7f0000000000000000000000000000000000000000000000000000000000000000610be2565b6370a082319061135161133c30610c80565b92611345610172565b95869485938493610cd3565b83526004830161083e565b03915afa908115611550575f91611522575b5061138161137b84610192565b91610192565b1061150657611394600260068501611053565b6113b16113aa836113a56003610a3c565b611109565b6003611147565b8082906113f36113e17fb6878ca816e10a11f864110d8008f082d53b8220f09f89e8c40ed5d704f251c7926108f6565b926113ea610172565b918291826101d9565b0390a261141f7f0000000000000000000000000000000000000000000000000000000000000000610be2565b90602063a9059cbb926114335f8701610a1b565b906114515f879661145c611445610172565b98899687958694610cd3565b8452600484016111ad565b03925af19081156115015761147d5f926114849484916114d3575b50611232565b9301610a1b565b90916114ce6114bc6114b67faf3c8fdd75d667f71d36d7840b8ef9086c516c9b047ad6a83a5a66151342123a936108f6565b936105e1565b936114c5610172565b918291826101d9565b0390a3565b6114f4915060203d81116114fa575b6114ec8183610caa565b81019061118f565b5f611477565b503d6114e2565b610d06565b5f63bc6072f160e01b81528061151e600482016104f3565b0390fd5b611543915060203d8111611549575b61153b8183610caa565b810190610ce8565b5f61136e565b503d611531565b610d06565b5f63b1adfabf60e01b81528061156d600482016104f3565b0390fd5b5f638966b51f60e01b815280611589600482016104f3565b0390fd5b5f638966b51f60e01b8152806115a5600482016104f3565b0390fd5b5f638966b51f60e01b8152806115c1600482016104f3565b0390fd5b906115cf916110ed565b565b6115e2906115dd612165565b6115e4565b565b6115f5906115f06120e9565b611703565b6115fd612141565b565b5f7f496e73756666696369656e742062616c616e6365000000000000000000000000910152565b61163360146020926111d0565b61163c816115ff565b0190565b6116559060208101905f818303910152611626565b90565b1561165f57565b611667610172565b62461bcd60e51b81528061167d60048201611640565b0390fd5b5f7f5769746864726177616c206661696c6564000000000000000000000000000000910152565b6116b560116020926111d0565b6116be81611681565b0190565b6116d79060208101905f8183039101526116a8565b90565b156116e157565b6116e9610172565b62461bcd60e51b8152806116ff600482016116c2565b0390fd5b61176360206117317f0000000000000000000000000000000000000000000000000000000000000000610be2565b6370a082319061175861174330610c80565b9261174c610172565b95869485938493610cd3565b83526004830161083e565b03915afa80156118bd57611793915f9161188f575b5061178c6117868492610192565b91610192565b1115611658565b6117bc7f0000000000000000000000000000000000000000000000000000000000000000610be2565b602063a9059cbb916117cc611924565b906117ea5f86956117f56117de610172565b97889687958694610cd3565b8452600484016111ad565b03925af1801561188a57611810915f9161185c575b506116da565b611818611924565b6118576118457f348b7eea760f92b2347a75754bd560a3afa7ef0266d79ee7a17f114a4c9a2ce7926105e1565b9261184e610172565b918291826101d9565b0390a2565b61187d915060203d8111611883575b6118758183610caa565b81019061118f565b5f61180a565b503d61186b565b610d06565b6118b0915060203d81116118b6575b6118a88183610caa565b810190610ce8565b5f611778565b503d61189e565b610d06565b6118cb906115d1565b565b6118d5612165565b6118dd611907565b565b6118f36118ee6118f892610d16565b610195565b61029a565b90565b611904906118df565b90565b6119186119135f6118fb565b6121b3565b565b6119226118cd565b565b61192c610f80565b506119365f610a1b565b90565b9061194c92916119476120e9565b611cda565b90611955612141565b565b61196661196c91939293610192565b92610192565b91611978838202610192565b92818404149015171561198757565b610d35565b634e487b7160e01b5f52601260045260245ffd5b6119ac6119b291610192565b91610192565b9081156119bd570490565b61198c565b6040906119eb6119f294969593966119e160608401985f850190610407565b6020830190610407565b01906101cc565b565b5f7f5072656d69756d207472616e73666572206661696c6564000000000000000000910152565b611a2860176020926111d0565b611a31816119f4565b0190565b611a4a9060208101905f818303910152611a1b565b90565b15611a5457565b611a5c610172565b62461bcd60e51b815280611a7260048201611a35565b0390fd5b611a7f90610192565b5f198114611a8d5760010190565b610d35565b90611aa5611a9e610172565b9283610caa565b565b611ab160e0611a92565b90565b90611abe906102a5565b9052565b90611acc90610192565b9052565b90611ada90610437565b9052565b611ae890516102a5565b90565b90611afc60018060a01b0391611029565b9181191691161790565b90565b90611b1e611b19611b25926105e1565b611b06565b8254611aeb565b9055565b611b339051610192565b90565b611b409051610437565b90565b90611beb60c06006611bf194611b665f8201611b605f8801611ade565b90611b09565b611b7f60018201611b7960208801611b29565b90611147565b611b9860028201611b9260408801611b29565b90611147565b611bb160038201611bab60608801611b29565b90611147565b611bca60048201611bc460808801611b29565b90611147565b611be360058201611bdd60a08801611b29565b90611147565b019201611b36565b90611053565b565b90611bfd91611b43565b565b90565b5f5260205f2090565b5490565b611c1881611c0b565b821015611c3257611c2a600191611c02565b910201905f90565b610603565b1b90565b91906008611c56910291611c505f1984611c37565b92611c37565b9181191691161790565b9190611c76611c71611c7e936108f6565b611144565b908354611c3b565b9055565b9081549168010000000000000000831015611cb25782611caa916001611cb095018155611c0f565b90611c60565b565b610c96565b916020611cd8929493611cd160408201965f8301906101cc565b01906101cc565b565b9190915080611cf1611ceb5f610d19565b91610192565b14611f6a57611d0a611d0560058490610912565b610a3c565b611d1c611d165f610d19565b91610192565b03611f4e57611d46611d3682611d306107f1565b90611957565b611d406064610198565b906119a0565b90611d707f0000000000000000000000000000000000000000000000000000000000000000610be2565b60206323b872dd913390611da05f611d8730610c80565b95611dab89611d94610172565b98899788968795610cd3565b8552600485016119c2565b03925af18015611f4957611dc6915f91611f1b575b50611a4d565b611dd06001610a3c565b611de3611ddc82611a76565b6001611147565b92611e6f5f611e5e33611e5585611e4c88611e438b611e3a4293611e31611e1242611e0c6108a7565b90611109565b97611e288d9b611e20611aa7565b9e8f01611ab4565b60208d01611ac2565b60408b01611ac2565b60608901611ac2565b60808701611ac2565b60a08501611ac2565b60c08301611ad0565b611e6a600487906109e1565b611bf3565b611e8484611e7f60058490610912565b611147565b611ea2611e9b611e96600633906105ed565b611bff565b8590611c82565b611ebf611eb884611eb36002610a3c565b611109565b6002611147565b8333919293611f00611efa611ef47f8911f316c190f1fb5d719640d1903df435c7440a3c91a4757468db3326af6209946108f6565b946105e1565b946108f6565b94611f15611f0c610172565b92839283611cb7565b0390a490565b611f3c915060203d8111611f42575b611f348183610caa565b81019061118f565b5f611dc0565b503d611f2a565b610d06565b5f6342693d1160e11b815280611f66600482016104f3565b0390fd5b5f630c6b378160e41b815280611f82600482016104f3565b0390fd5b90611f9891611f93610c7c565b611939565b90565b611fa3610c7c565b506120046020611fd27f0000000000000000000000000000000000000000000000000000000000000000610be2565b6370a0823190611ff9611fe430610c80565b92611fed610172565b95869485938493610cd3565b83526004830161083e565b03915afa908115612048575f9161201a575b5090565b61203b915060203d8111612041575b6120338183610caa565b810190610ce8565b5f612016565b503d612029565b610d06565b61205e90612059612165565b612060565b565b8061207b6120756120705f6118fb565b6102a5565b916102a5565b1461208b57612089906121b3565b565b6120ae6120975f6118fb565b5f918291631e4fbdf760e01b83526004830161083e565b0390fd5b6120bb9061204d565b565b90565b6120d46120cf6120d9926120bd565b610195565b610192565b90565b6120e660026120c0565b90565b6120f1612212565b6121136120fc6120dc565b5f61210d61210861228e565b6122a2565b01611147565b565b90565b61212c61212761213192612115565b610195565b610192565b90565b61213e6001612118565b90565b61216361214c612134565b5f61215d61215861228e565b6122a2565b01611147565b565b61216d611924565b61218661218061217b6122a5565b6102a5565b916102a5565b0361218d57565b6121af6121986122a5565b5f91829163118cdaa760e01b83526004830161083e565b0390fd5b6121bc5f610a1b565b6121c6825f611b09565b906121fa6121f47f8be0079c531659141344cd1fd0a4f28419497f9722a3daafe3b4186f6b6457e0936105e1565b916105e1565b91612203610172565b8061220d816104f3565b0390a3565b61221a6122b6565b61222057565b5f633ee5aeb560e01b815280612238600482016104f3565b0390fd5b5f90565b90565b90565b61225a61225561225f92612240565b611029565b612243565b90565b61228b7f9b779b17422d0df92223018b32b4d1fa46e071723d6817e2486d003becc55f00612246565b90565b61229661223c565b5061229f612262565b90565b90565b6122ad610f80565b503390565b5f90565b6122be6122b2565b506122d95f6122d36122ce61228e565b6122a2565b01610a3c565b6122f26122ec6122e76120dc565b610192565b91610192565b149056fea2646970667358221220339aaab08ed1dfccfdcb25375403a5295f96cbc94613b00f1c8e9c98d9eccfad64736f6c634300081e0033","linkReferences":{}},"methodIdentifiers":{"COVERAGE_PERCENTAGE()":"15f01a9b","POLICY_DURATION()":"9b70e2fb","PREMIUM_PERCENTAGE()":"77e7f51a","buyInsurance(uint256,uint256)":"a7b1b353","expirePolicy(uint256)":"3037e4cd","fileClaim(uint256,uint256)":"37e94726","getPolicy(uint256)":"2b07fce3","getPoolBalance()":"abd70aa2","getPoolMetrics()":"1866509f","getUserPolicies(address)":"19ac4614","owner()":"8da5cb5b","policies(uint256)":"d3e89483","policyCounter()":"d52c1bea","projectToPolicy(uint256)":"a193b7a4","renounceOwnership()":"715018a6","stablecoin()":"e9cbd822","totalClaimsPaid()":"6532ccf5","totalPremiumsCollected()":"3dadde20","transferOwnership(address)":"f2fde38b","userPolicies(address,uint256)":"3d36adc5","withdrawPremiums(uint256)":"4e8d9c4d"},"id":6}