{"abi":[{"type":"constructor","inputs":[{"name":"_stablecoin","type":"address","internalType":"address"},{"name":"_userRegistry","type":"address","internalType":"address"}],"stateMutability":"nonpayable"},{"type":"function","name":"JURORS_PER_CASE","inputs":[],"outputs":[{"name":"","type":"uint256","internalType":"uint256"}],"stateMutability":"view"},{"type":"function","name":"MIN_STAKE","inputs":[],"outputs":[{"name":"","type":"uint256","internalType":"uint256"}],"stateMutability":"view"},{"type":"function","name":"STABLECOIN","inputs":[],"outputs":[{"name":"","type":"address","internalType":"contract IERC20"}],"stateMutability":"view"},{"type":"function","name":"USER_REGISTRY","inputs":[],"outputs":[{"name":"","type":"address","internalType":"contract UserRegistry"}],"stateMutability":"view"},{"type":"function","name":"VOTING_PERIOD","inputs":[],"outputs":[{"name":"","type":"uint256","internalType":"uint256"}],"stateMutability":"view"},{"type":"function","name":"activeJurors","inputs":[{"name":"","type":"uint256","internalType":"uint256"}],"outputs":[{"name":"","type":"address","internalType":"address"}],"stateMutability":"view"},{"type":"function","name":"castVote","inputs":[{"name":"disputeId","type":"uint256","internalType":"uint256"},{"name":"choice","type":"uint8","internalType":"enum DisputeJury.VoteChoice"}],"outputs":[],"stateMutability":"nonpayable"},{"type":"function","name":"createDispute","inputs":[{"name":"projectId","type":"uint256","internalType":"uint256"},{"name":"milestoneIndex","type":"uint256","internalType":"uint256"},{"name":"client","type":"address","internalType":"address"},{"name":"freelancer","type":"address","internalType":"address"},{"name":"amount","type":"uint256","internalType":"uint256"}],"outputs":[{"name":"","type":"uint256","internalType":"uint256"}],"stateMutability":"nonpayable"},{"type":"function","name":"disputeCounter","inputs":[],"outputs":[{"name":"","type":"uint256","internalType":"uint256"}],"stateMutability":"view"},{"type":"function","name":"disputes","inputs":[{"name":"","type":"uint256","internalType":"uint256"}],"outputs":[{"name":"projectId","type":"uint256","internalType":"uint256"},{"name":"milestoneIndex","type":"uint256","internalType":"uint256"},{"name":"client","type":"address","internalType":"address"},{"name":"freelancer","type":"address","internalType":"address"},{"name":"amount","type":"uint256","internalType":"uint256"},{"name":"votesAcceptAi","type":"uint256","internalType":"uint256"},{"name":"votesForClient","type":"uint256","internalType":"uint256"},{"name":"votesForFreelancer","type":"uint256","internalType":"uint256"},{"name":"outcome","type":"uint8","internalType":"enum DisputeJury.DisputeOutcome"},{"name":"createdAt","type":"uint256","internalType":"uint256"},{"name":"resolvedAt","type":"uint256","internalType":"uint256"},{"name":"fundsDistributed","type":"bool","internalType":"bool"},{"name":"aiReport","type":"string","internalType":"string"},{"name":"aiRecommendedSplit","type":"uint8","internalType":"uint8"}],"stateMutability":"view"},{"type":"function","name":"finalizeDispute","inputs":[{"name":"disputeId","type":"uint256","internalType":"uint256"}],"outputs":[],"stateMutability":"nonpayable"},{"type":"function","name":"getActiveJurorCount","inputs":[],"outputs":[{"name":"","type":"uint256","internalType":"uint256"}],"stateMutability":"view"},{"type":"function","name":"getDispute","inputs":[{"name":"disputeId","type":"uint256","internalType":"uint256"}],"outputs":[{"name":"","type":"uint256","internalType":"uint256"},{"name":"","type":"address","internalType":"address"},{"name":"","type":"address","internalType":"address"},{"name":"","type":"uint256","internalType":"uint256"},{"name":"","type":"uint8","internalType":"enum DisputeJury.DisputeOutcome"},{"name":"","type":"uint256","internalType":"uint256"},{"name":"","type":"uint256","internalType":"uint256"},{"name":"","type":"uint256","internalType":"uint256"},{"name":"","type":"string","internalType":"string"}],"stateMutability":"view"},{"type":"function","name":"getDisputeJurors","inputs":[{"name":"disputeId","type":"uint256","internalType":"uint256"}],"outputs":[{"name":"","type":"address[]","internalType":"address[]"}],"stateMutability":"view"},{"type":"function","name":"getJurorInfo","inputs":[{"name":"juror","type":"address","internalType":"address"}],"outputs":[{"name":"","type":"uint256","internalType":"uint256"},{"name":"","type":"uint256","internalType":"uint256"},{"name":"","type":"uint256","internalType":"uint256"},{"name":"","type":"bool","internalType":"bool"}],"stateMutability":"view"},{"type":"function","name":"jurorIndices","inputs":[{"name":"","type":"address","internalType":"address"}],"outputs":[{"name":"","type":"uint256","internalType":"uint256"}],"stateMutability":"view"},{"type":"function","name":"jurors","inputs":[{"name":"","type":"address","internalType":"address"}],"outputs":[{"name":"stakedAmount","type":"uint256","internalType":"uint256"},{"name":"casesJudged","type":"uint256","internalType":"uint256"},{"name":"reputationScore","type":"uint256","internalType":"uint256"},{"name":"isActive","type":"bool","internalType":"bool"}],"stateMutability":"view"},{"type":"function","name":"owner","inputs":[],"outputs":[{"name":"","type":"address","internalType":"address"}],"stateMutability":"view"},{"type":"function","name":"projectEscrowAddress","inputs":[],"outputs":[{"name":"","type":"address","internalType":"address"}],"stateMutability":"view"},{"type":"function","name":"renounceOwnership","inputs":[],"outputs":[],"stateMutability":"nonpayable"},{"type":"function","name":"setAiReport","inputs":[{"name":"disputeId","type":"uint256","internalType":"uint256"},{"name":"report","type":"string","internalType":"string"},{"name":"recommendedSplit","type":"uint8","internalType":"uint8"}],"outputs":[],"stateMutability":"nonpayable"},{"type":"function","name":"setProjectEscrowAddress","inputs":[{"name":"_projectEscrow","type":"address","internalType":"address"}],"outputs":[],"stateMutability":"nonpayable"},{"type":"function","name":"stakeAsJuror","inputs":[{"name":"amount","type":"uint256","internalType":"uint256"}],"outputs":[],"stateMutability":"nonpayable"},{"type":"function","name":"transferOwnership","inputs":[{"name":"newOwner","type":"address","internalType":"address"}],"outputs":[],"stateMutability":"nonpayable"},{"type":"function","name":"unstake","inputs":[{"name":"amount","type":"uint256","internalType":"uint256"}],"outputs":[],"stateMutability":"nonpayable"},{"type":"event","name":"DisputeCreated","inputs":[{"name":"disputeId","type":"uint256","indexed":true,"internalType":"uint256"},{"name":"projectId","type":"uint256","indexed":false,"internalType":"uint256"},{"name":"milestoneIndex","type":"uint256","indexed":false,"internalType":"uint256"}],"anonymous":false},{"type":"event","name":"DisputeResolved","inputs":[{"name":"disputeId","type":"uint256","indexed":true,"internalType":"uint256"},{"name":"outcome","type":"uint8","indexed":false,"internalType":"enum DisputeJury.DisputeOutcome"}],"anonymous":false},{"type":"event","name":"JurorStaked","inputs":[{"name":"juror","type":"address","indexed":true,"internalType":"address"},{"name":"amount","type":"uint256","indexed":false,"internalType":"uint256"}],"anonymous":false},{"type":"event","name":"JurorUnstaked","inputs":[{"name":"juror","type":"address","indexed":true,"internalType":"address"},{"name":"amount","type":"uint256","indexed":false,"internalType":"uint256"}],"anonymous":false},{"type":"event","name":"OwnershipTransferred","inputs":[{"name":"previousOwner","type":"address","indexed":true,"internalType":"address"},{"name":"newOwner","type":"address","indexed":true,"internalType":"address"}],"anonymous":false},{"type":"event","name":"RewardDistributed","inputs":[{"name":"juror","type":"address","indexed":true,"internalType":"address"},{"name":"amount","type":"uint256","indexed":false,"internalType":"uint256"}],"anonymous":false},{"type":"event","name":"VoteCast","inputs":[{"name":"disputeId","type":"uint256","indexed":true,"internalType":"uint256"},{"name":"juror","type":"address","indexed":true,"internalType":"address"},{"name":"choice","type":"uint8","indexed":false,"internalType":"enum DisputeJury.VoteChoice"}],"anonymous":false},{"type":"error","name":"AlreadyVoted","inputs":[]},{"type":"error","name":"FundsAlreadyDistributed","inputs":[]},{"type":"error","name":"InsufficientStake","inputs":[]},{"type":"error","name":"NotEnoughJurors","inputs":[]},{"type":"error","name":"NotJurorInCase","inputs":[]},{"type":"error","name":"NotVerifiedHuman","inputs":[]},{"type":"error","name":"OwnableInvalidOwner","inputs":[{"name":"owner","type":"address","internalType":"address"}]},{"type":"error","name":"OwnableUnauthorizedAccount","inputs":[{"name":"account","type":"address","internalType":"address"}]},{"type":"error","name":"ReentrancyGuardReentrantCall","inputs":[]},{"type":"error","name":"Unauthorized","inputs":[]},{"type":"error","name":"VotingEnded","inputs":[]},{"type":"error","name":"VotingNotEnded","inputs":[]}],"bytecode":{"object":"0x60c0604052346100575761001a61001461012b565b9061019c565b61002261005c565b6131796104728239608051818181610d08015281816115100152612453015260a051818181610c2401526123c2015261317990f35b610062565b60405190565b5f80fd5b601f801991011690565b634e487b7160e01b5f52604160045260245ffd5b9061008e90610066565b810190811060018060401b038211176100a657604052565b610070565b906100be6100b761005c565b9283610084565b565b5f80fd5b60018060a01b031690565b6100d8906100c4565b90565b6100e4816100cf565b036100eb57565b5f80fd5b905051906100fc826100db565b565b9190604083820312610126578061011a610123925f86016100ef565b936020016100ef565b90565b6100c0565b6101496135eb8038038061013e816100ab565b9283398101906100fe565b9091565b90565b61016461015f610169926100c4565b61014d565b6100c4565b90565b61017590610150565b90565b6101819061016c565b90565b61018d90610150565b90565b61019990610184565b90565b906101b26101ba926101ad3361020c565b610178565b608052610190565b60a052565b90565b6101d66101d16101db926101bf565b61014d565b6100c4565b90565b6101e7906101c2565b90565b6101f3906100cf565b9052565b919061020a905f602085019401906101ea565b565b610214610266565b8061022f6102296102245f6101de565b6100cf565b916100cf565b1461023f5761023d906103a9565b565b61026261024b5f6101de565b5f918291631e4fbdf760e01b8352600483016101f7565b0390fd5b61026e6102f9565b565b90565b90565b61028a61028561028f92610270565b61014d565b610273565b90565b61029c6001610276565b90565b5f1b90565b906102b05f199161029f565b9181191691161790565b6102ce6102c96102d392610273565b61014d565b610273565b90565b90565b906102ee6102e96102f5926102ba565b6102d6565b82546102a4565b9055565b61031b610304610292565b5f61031561031061045a565b61046e565b016102d9565b565b5f1c90565b60018060a01b031690565b61033961033e9161031d565b610322565b90565b61034b905461032d565b90565b9061035f60018060a01b039161029f565b9181191691161790565b61037290610150565b90565b61037e90610369565b90565b90565b906103996103946103a092610375565b610381565b825461034e565b9055565b5f0190565b6103b25f610341565b6103bc825f610384565b906103f06103ea7f8be0079c531659141344cd1fd0a4f28419497f9722a3daafe3b4186f6b6457e093610375565b91610375565b916103f961005c565b80610403816103a4565b0390a3565b5f90565b90565b90565b61042661042161042b9261040c565b61029f565b61040f565b90565b6104577f9b779b17422d0df92223018b32b4d1fa46e071723d6817e2486d003becc55f00610412565b90565b610462610408565b5061046b61042e565b90565b9056fe60806040526004361015610013575b6112ab565b61001d5f356101ac565b80632e17de78146101a757806347e2a6e6146101a2578063564a565d1461019d578063567813881461019857806356989a83146101935780635a59efb21461018e57806370e0a9db14610189578063715018a6146101845780637adfe4831461017f5780637d36f4d31461017a578063860a551f146101755780638da5cb5b1461017057806393a397761461016b57806395152b84146101665780639a97f2dd146101615780639f2b9c571461015c578063b1610d7e14610157578063cb1c2b5c14610152578063dca5f6b01461014d578063df3b8ae314610148578063e2da844d14610143578063e3a96cbd1461013e578063eff2c3ec14610139578063f2fde38b146101345763f5b7e4080361000e57611278565b611245565b61120c565b6111cd565b61110e565b611064565b610ff4565b610f2b565b610ebc565b610e4e565b610dc0565b610d8d565b610d58565b610cd1565b610c9c565b610bed565b610b7f565b610abe565b610a89565b6109f8565b6108ab565b610877565b6107e5565b6102f6565b61020d565b60e01c90565b60405190565b5f80fd5b5f80fd5b5f80fd5b90565b6101d0816101c4565b036101d757565b5f80fd5b905035906101e8826101c7565b565b9060208282031261020357610200915f016101db565b90565b6101bc565b5f0190565b3461023b576102256102203660046101ea565b611644565b61022d6101b2565b8061023781610208565b0390f35b6101b8565b5190565b60209181520190565b60200190565b60018060a01b031690565b61026790610253565b90565b6102739061025e565b9052565b906102848160209361026a565b0190565b60200190565b906102ab6102a561029e84610240565b8093610244565b9261024d565b905f5b8181106102bb5750505090565b9091926102d46102ce6001928651610277565b94610288565b91019190916102ae565b6102f39160208201915f81840391015261028e565b90565b346103265761032261031161030c3660046101ea565b611702565b6103196101b2565b918291826102de565b0390f35b6101b8565b90565b61034261033d610347926101c4565b61032b565b6101c4565b90565b906103549061032e565b5f5260205260405f2090565b5f1c90565b90565b61037461037991610360565b610365565b90565b6103869054610368565b90565b60018060a01b031690565b6103a06103a591610360565b610389565b90565b6103b29054610394565b90565b60ff1690565b6103c76103cc91610360565b6103b5565b90565b6103d990546103bb565b90565b60ff1690565b6103ee6103f391610360565b6103dc565b90565b61040090546103e2565b90565b634e487b7160e01b5f52602260045260245ffd5b9060016002830492168015610437575b602083101461043257565b610403565b91607f1691610427565b60209181520190565b5f5260205f2090565b905f929180549061046d61046683610417565b8094610441565b916001811690815f146104c45750600114610488575b505050565b610495919293945061044a565b915f925b8184106104ac57505001905f8080610483565b60018160209295939554848601520191019290610499565b92949550505060ff19168252151560200201905f8080610483565b906104e991610453565b90565b601f801991011690565b634e487b7160e01b5f52604160045260245ffd5b90610514906104ec565b810190811067ffffffffffffffff82111761052e57604052565b6104f6565b9061055361054c926105436101b2565b938480926104df565b038361050a565b565b60ff1690565b61056761056c91610360565b610555565b90565b610579905461055b565b90565b61058790600361034a565b906105935f830161037c565b916105a06001820161037c565b916105ad600283016103a8565b916105ba600382016103a8565b916105c76004830161037c565b916105d46008820161037c565b916105e16009830161037c565b916105ee600a820161037c565b916105fb600b83016103cf565b91610608600c820161037c565b91610615600d830161037c565b91610622600e82016103f6565b9161063b6010610634600f8501610533565b930161056f565b90565b610647906101c4565b9052565b6106549061025e565b9052565b634e487b7160e01b5f52602160045260245ffd5b6004111561067657565b610658565b906106858261066c565b565b6106909061067b565b90565b61069c90610687565b9052565b151590565b6106ae906106a0565b9052565b5190565b60209181520190565b90825f9392825e0152565b6106e96106f26020936106f7936106e0816106b2565b938480936106b6565b958691016106bf565b6104ec565b0190565b60ff1690565b61070a906106fb565b9052565b9e9d9c9b9997959391928f919b999795936101c083019c5f84016107319161063e565b6020830161073e9161063e565b6040820161074b9161064b565b6060016107579161064b565b60808d016107649161063e565b60a08c016107719161063e565b60c08b0161077e9161063e565b60e08a0161078b9161063e565b610100890161079991610693565b61012088016107a79161063e565b61014087016107b59161063e565b61016086016107c3916106a5565b8481036101808601526107d5916106ca565b926101a0016107e391610701565b565b34610828576108246108006107fb3660046101ea565b61057c565b9a61081b9e9c9e9a919a9992999893989794979695966101b2565b9e8f9e8f61070e565b0390f35b6101b8565b6003111561083757565b5f80fd5b905035906108488261082d565b565b9190604083820312610872578061086661086f925f86016101db565b9360200161083b565b90565b6101bc565b346108a65761089061088a36600461084a565b9061180c565b6108986101b2565b806108a281610208565b0390f35b6101b8565b346108d9576108c36108be3660046101ea565b611a5d565b6108cb6101b2565b806108d581610208565b0390f35b6101b8565b5f80fd5b5f80fd5b906108f96108f26101b2565b928361050a565b565b67ffffffffffffffff8111610919576109156020916104ec565b0190565b6104f6565b90825f939282370152565b9092919261093e610939826108fb565b6108e6565b9381855260208501908284011161095a576109589261091e565b565b6108e2565b9080601f8301121561097d5781602061097a93359101610929565b90565b6108de565b61098b816106fb565b0361099257565b5f80fd5b905035906109a382610982565b565b90916060828403126109f3576109bd835f84016101db565b9260208301359067ffffffffffffffff82116109ee576109e2816109eb93860161095f565b93604001610996565b90565b6101c0565b6101bc565b34610a2757610a11610a0b3660046109a5565b91611d17565b610a196101b2565b80610a2381610208565b0390f35b6101b8565b5f910312610a3657565b6101bc565b1c90565b610a4f906008610a549302610a3b565b610389565b90565b90610a629154610a3f565b90565b610a7160015f90610a57565b90565b9190610a87905f6020850194019061064b565b565b34610ab957610a99366004610a2c565b610ab5610aa4610a65565b610aac6101b2565b91829182610a74565b0390f35b6101b8565b34610aec57610ace366004610a2c565b610ad6611dff565b610ade6101b2565b80610ae881610208565b0390f35b6101b8565b610afa8161025e565b03610b0157565b5f80fd5b90503590610b1282610af1565b565b919060a083820312610b6557610b2c815f85016101db565b92610b3a82602083016101db565b92610b62610b4b8460408501610b05565b93610b598160608601610b05565b936080016101db565b90565b6101bc565b9190610b7d905f6020850194019061063e565b565b34610bb357610baf610b9e610b95366004610b14565b93929092612086565b610ba66101b2565b91829182610b6a565b0390f35b6101b8565b610bc8906008610bcd9302610a3b565b610365565b90565b90610bdb9154610bb8565b90565b610bea60025f90610bd0565b90565b34610c1d57610bfd366004610a2c565b610c19610c08610bde565b610c106101b2565b91829182610b6a565b0390f35b6101b8565b7f000000000000000000000000000000000000000000000000000000000000000090565b610c5a610c55610c5f92610253565b61032b565b610253565b90565b610c6b90610c46565b90565b610c7790610c62565b90565b610c8390610c6e565b9052565b9190610c9a905f60208501940190610c7a565b565b34610ccc57610cac366004610a2c565b610cc8610cb7610c22565b610cbf6101b2565b91829182610c87565b0390f35b6101b8565b34610d0157610ce1366004610a2c565b610cfd610cec6121fe565b610cf46101b2565b91829182610a74565b0390f35b6101b8565b7f000000000000000000000000000000000000000000000000000000000000000090565b610d3390610c62565b90565b610d3f90610d2a565b9052565b9190610d56905f60208501940190610d36565b565b34610d8857610d68366004610a2c565b610d84610d73610d06565b610d7b6101b2565b91829182610d43565b0390f35b6101b8565b34610dbb57610da5610da03660046101ea565b612681565b610dad6101b2565b80610db781610208565b0390f35b6101b8565b34610df057610dd0366004610a2c565b610dec610ddb61268c565b610de36101b2565b91829182610b6a565b0390f35b6101b8565b90602082820312610e0e57610e0b915f01610b05565b90565b6101bc565b610e1c90610c62565b90565b90610e2990610e13565b5f5260205260405f2090565b610e4b90610e466006915f92610e1f565b610bd0565b90565b34610e7e57610e7a610e69610e64366004610df5565b610e35565b610e716101b2565b91829182610b6a565b0390f35b6101b8565b90565b610e9a610e95610e9f92610e83565b61032b565b6101c4565b90565b610eae62093a80610e86565b90565b610eb9610ea2565b90565b34610eec57610ecc366004610a2c565b610ee8610ed7610eb1565b610edf6101b2565b91829182610b6a565b0390f35b6101b8565b90565b610f08610f03610f0d92610ef1565b61032b565b6101c4565b90565b610f1d6305f5e100610ef4565b90565b610f28610f10565b90565b34610f5b57610f3b366004610a2c565b610f57610f46610f20565b610f4e6101b2565b91829182610b6a565b0390f35b6101b8565b90610f6a90610e13565b5f5260205260405f2090565b610f81906004610f60565b90610f8d5f830161037c565b91610f9a6001820161037c565b91610fb36003610fac6002850161037c565b93016103f6565b90565b610feb610ff294610fe1606094989795610fd7608086019a5f87019061063e565b602085019061063e565b604083019061063e565b01906106a5565b565b346110285761102461100f61100a366004610df5565b610f76565b9061101b9492946101b2565b94859485610fb6565b0390f35b6101b8565b90565b61104461103f6110499261102d565b61032b565b6101c4565b90565b6110566005611030565b90565b61106161104c565b90565b3461109457611074366004610a2c565b61109061107f611059565b6110876101b2565b91829182610b6a565b0390f35b6101b8565b634e487b7160e01b5f52603260045260245ffd5b5490565b5f5260205f2090565b6110c3816110ad565b8210156110dd576110d56001916110b1565b910201905f90565b611099565b60056110ed816110ad565b82101561110a5761110791611101916110ba565b90610a57565b90565b5f80fd5b3461113e5761113a6111296111243660046101ea565b6110e2565b6111316101b2565b91829182610a74565b0390f35b6101b8565b96949290979593916101208801985f890161115d9161063e565b6020880161116a9161064b565b604087016111779161064b565b606086016111849161063e565b6080850161119191610693565b60a0840161119e9161063e565b60c083016111ab9161063e565b60e082016111b89161063e565b8082039061010001526111ca916106ca565b90565b34611207576112036111e86111e33660046101ea565b6126b7565b956111fa9997999591959492946101b2565b998a998a611143565b0390f35b6101b8565b346112405761123c611227611222366004610df5565b61279e565b906112339492946101b2565b94859485610fb6565b0390f35b6101b8565b346112735761125d611258366004610df5565b612871565b6112656101b2565b8061126f81610208565b0390f35b6101b8565b346112a65761129061128b366004610df5565b61294b565b6112986101b2565b806112a281610208565b0390f35b6101b8565b5f80fd5b6112c0906112bb612982565b611485565b6112c86129da565b565b90565b634e487b7160e01b5f52601160045260245ffd5b6112f06112f6919392936101c4565b926101c4565b820391821161130157565b6112cd565b5f1b90565b906113175f1991611306565b9181191691161790565b90565b906113396113346113409261032e565b611321565b825461130b565b9055565b9061135060ff91611306565b9181191691161790565b611363906106a0565b90565b90565b9061137e6113796113859261135a565b611366565b8254611344565b9055565b60e01b90565b611398816106a0565b0361139f57565b5f80fd5b905051906113b08261138f565b565b906020828203126113cb576113c8915f016113a3565b90565b6101bc565b9160206113f19294936113ea60408201965f83019061064b565b019061063e565b565b6113fb6101b2565b3d5f823e3d90fd5b5f7f556e7374616b65206661696c6564000000000000000000000000000000000000910152565b611437600e6020926106b6565b61144081611403565b0190565b6114599060208101905f81830391015261142a565b90565b1561146357565b61146b6101b2565b62461bcd60e51b81528061148160048201611444565b0390fd5b61149961149460043390610f60565b6112ca565b6114a45f820161037c565b6114b66114b0846101c4565b916101c4565b10611628576114da826114d45f8401916114cf8361037c565b6112e1565b90611324565b6114e55f820161037c565b6114fe6114f86114f3610f10565b6101c4565b916101c4565b1080611616575b6115f9575b506115347f0000000000000000000000000000000000000000000000000000000000000000610d2a565b602063a9059cbb91339061155b5f869561156661154f6101b2565b97889687958694611389565b8452600484016113d0565b03925af180156115f457611581915f916115c6575b5061145c565b336115c16115af7f610a1d949cc1ca7d4391b2530deda84f33b5f02dbd462643f21cd8a1b3cd573f92610e13565b926115b86101b2565b91829182610b6a565b0390a2565b6115e7915060203d81116115ed575b6115df818361050a565b8101906113b2565b5f61157b565b503d6115d5565b6113f3565b6116109061160633612a55565b60035f9101611369565b5f61150a565b50611623600382016103f6565b611505565b5f6378de4a6960e11b81528061164060048201610208565b0390fd5b61164d906112af565b565b606090565b60209181520190565b6116679054610394565b90565b60010190565b9061168d611687611680846110ad565b8093611654565b926110b1565b905f5b81811061169d5750505090565b9091926116bd6116b76001926116b28761165d565b610277565b9461166a565b9101919091611690565b906116d191611670565b90565b906116f46116ed926116e46101b2565b938480926116c7565b038361050a565b565b6116ff906116d4565b90565b600561171b6117219261171361164f565b50600361034a565b016116f6565b90565b90565b61173661173c919392936101c4565b926101c4565b820180921161174757565b6112cd565b9061175690610e13565b5f5260205260405f2090565b9061176c90610e13565b5f5260205260405f2090565b6003111561178257565b610658565b9061179182611778565b565b61179c90611787565b90565b90565b906117b76117b26117be92611793565b61179f565b8254611344565b9055565b6117cb906101c4565b5f1981146117d95760010190565b6112cd565b6117e790611787565b90565b6117f3906117de565b9052565b919061180a905f602085019401906117ea565b565b9061182161181c6003849061034a565b611724565b4261185061184a611845611837600c860161037c565b61183f610ea2565b90611727565b6101c4565b916101c4565b11611a415761186b61186660068301339061174c565b6103f6565b611a255761188361187d843390612b1e565b156106a0565b611a0957611976916118a3600161189e60068501339061174c565b611369565b6118ba816118b5600785013390611762565b6117a2565b806118cd6118c75f611787565b91611787565b145f146119a7576118f2600883016118ec6118e78261037c565b6117c2565b90611324565b5b839033909161194061192e6119287feba4866100b822f0f391e610e7edfab790b9e8766c0012733c26b2f1858e8dd79361032e565b93610e13565b936119376101b2565b918291826117f7565b0390a3611970600a6119696119576008850161037c565b6119636009860161037c565b90611727565b920161037c565b90611727565b61198f61198961198461104c565b6101c4565b916101c4565b14611998575b50565b6119a190612bc6565b5f611995565b806119bb6119b56001611787565b91611787565b145f146119e6576119e0600983016119da6119d58261037c565b6117c2565b90611324565b5b6118f3565b611a04600a83016119fe6119f98261037c565b6117c2565b90611324565b6119e1565b5f63aa17c98960e01b815280611a2160048201610208565b0390fd5b5f637c9a1cf960e01b815280611a3d60048201610208565b0390fd5b5f637a19ed0560e01b815280611a5960048201610208565b0390fd5b611a71611a6c6003839061034a565b611724565b42611aa0611a9a611a95611a87600c860161037c565b611a8f610ea2565b90611727565b6101c4565b916101c4565b1115611ad757600b611ab291016103cf565b611ac4611abe5f61067b565b9161067b565b03611ad457611ad290612bc6565b565b50565b5f633fc30bd160e11b815280611aef60048201610208565b0390fd5b601f602091010490565b1b90565b91906008611b1c910291611b165f1984611afd565b92611afd565b9181191691161790565b9190611b3c611b37611b449361032e565b611321565b908354611b01565b9055565b5f90565b611b5e91611b58611b48565b91611b26565b565b5b818110611b6c575050565b80611b795f600193611b4c565b01611b61565b9190601f8111611b8f575b505050565b611b9b611bc09361044a565b906020611ba784611af3565b83019310611bc8575b611bb990611af3565b0190611b60565b5f8080611b8a565b9150611bb981929050611bb0565b90611be6905f1990600802610a3b565b191690565b81611bf591611bd6565b906002021790565b90611c07816106b2565b9067ffffffffffffffff8211611cc757611c2b82611c258554610417565b85611b7f565b602090601f8311600114611c5f57918091611c4e935f92611c53575b5050611beb565b90555b565b90915001515f80611c47565b601f19831691611c6e8561044a565b925f5b818110611caf57509160029391856001969410611c95575b50505002019055611c51565b611ca5910151601f841690611bd6565b90555f8080611c89565b91936020600181928787015181550195019201611c71565b6104f6565b90611cd691611bfd565b565b611cec611ce7611cf1926106fb565b61032b565b6106fb565b90565b90565b90611d0c611d07611d1392611cd8565b611cf4565b8254611344565b9055565b909133611d35611d2f611d2a60016103a8565b61025e565b9161025e565b141580611d8d575b611d7257611d6a601091611d62611d7095600f611d5c6003889061034a565b01611ccc565b92600361034a565b01611cf7565b565b5f6282b42960e81b815280611d8960048201610208565b0390fd5b5033611da8611da2611d9d6121fe565b61025e565b9161025e565b1415611d3d565b611db7612d04565b611dbf611dec565b565b90565b611dd8611dd3611ddd92611dc1565b61032b565b610253565b90565b611de990611dc4565b90565b611dfd611df85f611de0565b612d52565b565b611e07611daf565b565b5f7f4f6e6c792050726f6a656374457363726f770000000000000000000000000000910152565b611e3d60126020926106b6565b611e4681611e09565b0190565b611e5f9060208101905f818303910152611e30565b90565b15611e6957565b611e716101b2565b62461bcd60e51b815280611e8760048201611e4a565b0390fd5b90611e9c60018060a01b0391611306565b9181191691161790565b90565b90611ebe611eb9611ec592610e13565b611ea6565b8254611e8b565b9055565b611ed29061067b565b90565b90565b90611eed611ee8611ef492611ec9565b611ed5565b8254611344565b9055565b90565b611f0f611f0a611f1492611ef8565b61032b565b6106fb565b90565b600190818003010490565b5b818110611f2e575050565b80611f3b5f600193611b4c565b01611f23565b9091828110611f50575b505050565b611f6e611f68611f62611f7995611f17565b92611f17565b926110b1565b918201910190611f22565b5f8080611f4b565b90680100000000000000008111611faa5781611f9f611fa8936110ad565b90828155611f41565b565b6104f6565b611fb9905161025e565b90565b91906008611fdc910291611fd660018060a01b0384611afd565b92611afd565b9181191691161790565b611fef82610240565b9167ffffffffffffffff83116120525761201d6120176001926120128686611f81565b61024d565b926110b1565b9204915f5b83811061202f5750505050565b600190602061204561204086611faf565b611ea6565b9401938184015501612022565b6104f6565b9061206191611fe6565b565b91602061208492949361207d60408201965f83019061063e565b019061063e565b565b9193909293612093611b48565b506120b9336120b36120ad6120a860016103a8565b61025e565b9161025e565b14611e62565b6120c360056110ad565b6120dc6120d66120d161104c565b6101c4565b916101c4565b106121de576121556121969261214c6120f5600261037c565b612108612101826117c2565b6002611324565b9761214361212061211b60038c9061034a565b611724565b9561212d895f8901611324565b61213a8a60018901611324565b60028701611ea9565b60038501611ea9565b60048301611324565b6121625f600b8301611ed8565b61216f42600c8301611324565b61218561217c6032611efb565b60108301611cf7565b600561218f612ec9565b9101612057565b8290916121c37f8092765f946b732cf44a3a396fe2854f71320d246c46d0f03ccb563fcbcc920e9261032e565b926121d86121cf6101b2565b92839283612063565b0390a290565b5f63325d6d3960e01b8152806121f660048201610208565b0390fd5b5f90565b6122066121fa565b506122105f6103a8565b90565b6122249061221f612982565b6123b8565b61222c6129da565b565b61223790610c62565b90565b60409061226361226a949695939661225960608401985f85019061064b565b602083019061064b565b019061063e565b565b5f7f5374616b65207472616e73666572206661696c65640000000000000000000000910152565b6122a060156020926106b6565b6122a98161226c565b0190565b6122c29060208101905f818303910152612293565b90565b156122cc57565b6122d46101b2565b62461bcd60e51b8152806122ea600482016122ad565b0390fd5b90565b5f5260205f2090565b5490565b612307816122fa565b821015612321576123196001916122f1565b910201905f90565b611099565b919061233c61233761234493610e13565b611ea6565b908354611fbc565b9055565b90815491680100000000000000008310156123785782612370916001612376950181556122fe565b90612326565b565b6104f6565b61239161238c61239692611dc1565b61032b565b6101c4565b90565b90565b6123b06123ab6123b592612399565b61032b565b6101c4565b90565b61240f60206123e67f0000000000000000000000000000000000000000000000000000000000000000610c6e565b6263fa279061240433926123f86101b2565b95869485938493611389565b835260048301610a74565b03915afa801561267c5761242b915f9161264e575b50156106a0565b612632578061244961244361243e610f10565b6101c4565b916101c4565b10612616576124777f0000000000000000000000000000000000000000000000000000000000000000610d2a565b60206323b872dd9133906124a75f61248e3061222e565b956124b28861249b6101b2565b98899788968795611389565b85526004850161223a565b03925af18015612611576124cd915f916125e3575b506122c5565b61251a6124e46124df60043390610f60565b6112ca565b6124f96124f3600383016103f6565b156106a0565b61255f575b6125145f8492019161250f8361037c565b611727565b90611324565b3361255a6125487fc9626d754b3720da351a26831dc4d1481cb9f2dd7ec9ba5356f710bcf4354b5992610e13565b926125516101b2565b91829182610b6a565b0390a2565b61257d61256c60056110ad565b61257860063390610e1f565b611324565b61259161258a60056122ee565b3390612348565b61259d6002820161037c565b6125af6125a95f61237d565b916101c4565b146125c8575b6125c3600160038301611369565b6124fe565b6125de6125d5606461239c565b60028301611324565b6125b5565b612604915060203d811161260a575b6125fc818361050a565b8101906113b2565b5f6124c7565b503d6125f2565b6113f3565b5f6378de4a6960e11b81528061262e60048201610208565b0390fd5b5f6329c1fbb960e01b81528061264a60048201610208565b0390fd5b61266f915060203d8111612675575b612667818361050a565b8101906113b2565b5f612424565b503d61265d565b6113f3565b61268a90612213565b565b612694611b48565b5061269f60056110ad565b90565b5f90565b606090565b6126b490610533565b90565b61271661271b916126c6611b48565b506126cf6121fa565b506126d86121fa565b506126e1611b48565b506126ea6126a2565b506126f3611b48565b506126fc611b48565b50612705611b48565b5061270e6126a6565b50600361034a565b611724565b906127275f830161037c565b90612734600284016103a8565b92612741600382016103a8565b9261274e6004830161037c565b9261275b600b84016103cf565b926127686008820161037c565b926127756009830161037c565b92612797600f612787600a860161037c565b94019299989796959493926126ab565b90565b5f90565b6127d06127d5916127ad611b48565b506127b6611b48565b506127bf611b48565b506127c861279a565b506004610f60565b6112ca565b6127e05f820161037c565b6127ec6001830161037c565b9261280560036127fe6002860161037c565b94016103f6565b9193929190565b61281d90612818612d04565b61281f565b565b8061283a61283461282f5f611de0565b61025e565b9161025e565b1461284a5761284890612d52565b565b61286d6128565f611de0565b5f918291631e4fbdf760e01b835260048301610a74565b0390fd5b61287a9061280c565b565b61288d90612888612d04565b612911565b565b5f7f416c726561647920736574000000000000000000000000000000000000000000910152565b6128c3600b6020926106b6565b6128cc8161288f565b0190565b6128e59060208101905f8183039101526128b6565b90565b156128ef57565b6128f76101b2565b62461bcd60e51b81528061290d600482016128d0565b0390fd5b6129499061294261292260016103a8565b61293c6129366129315f611de0565b61025e565b9161025e565b146128e8565b6001611ea9565b565b6129549061287c565b565b90565b61296d61296861297292612956565b61032b565b6101c4565b90565b61297f6002612959565b90565b61298a613063565b6129ac612995612975565b5f6129a66129a16130df565b6130f3565b01611324565b565b90565b6129c56129c06129ca926129ae565b61032b565b6101c4565b90565b6129d760016129b1565b90565b6129fc6129e56129cd565b5f6129f66129f16130df565b6130f3565b01611324565b565b634e487b7160e01b5f52603160045260245ffd5b612a2491612a1e6121fa565b91612326565b565b612a2f816122fa565b8015612a50576001900390612a4d612a4783836122fe565b90612a12565b55565b6129fe565b5f612ac3612ac892612a71612a6c60068390610e1f565b61037c565b612a8e612a7e60056110ad565b612a8860016129b1565b906112e1565b9080612aa2612a9c846101c4565b916101c4565b03612aca575b5050612abc612ab760056122ee565b612a26565b6006610e1f565b611b4c565b565b612b03612ae4612ade612b089460056110ba565b90610a57565b91612afb83612af5600584906110ba565b90612326565b916006610e1f565b611324565b5f80612aa8565b6001612b1b91016101c4565b90565b6005612b37612b3d92612b2f61279a565b50600361034a565b016122ee565b90612b475f61237d565b5b80612b63612b5d612b58866122fa565b6101c4565b916101c4565b1015612baa57612b7d612b778483906122fe565b90610a57565b612b8f612b898461025e565b9161025e565b14612ba257612b9d90612b0f565b612b48565b505050600190565b5050505f90565b9190612bc4905f60208501940190610693565b565b612c39600b612bdf612bda6003859061034a565b611724565b92612bec6008850161037c565b612c09612c03612bfe6009880161037c565b6101c4565b916101c4565b101580612cd3575b5f14612c7e57612c246001838601611ed8565b5b612c3242600d8601611324565b92016103cf565b90612c79612c677f2ffcfee146bc0d5ff304c6b65111a0d485af9456dc64eee7d66ebdcc90b223ea9261032e565b92612c706101b2565b91829182612bb1565b0390a2565b612c8a6009850161037c565b612ca7612ca1612c9c600a880161037c565b6101c4565b916101c4565b115f14612cc157612cbb6002838601611ed8565b5b612c25565b612cce6003838601611ed8565b612cbc565b50612ce06008850161037c565b612cfd612cf7612cf2600a880161037c565b6101c4565b916101c4565b1015612c11565b612d0c6121fe565b612d25612d1f612d1a6130f6565b61025e565b9161025e565b03612d2c57565b612d4e612d376130f6565b5f91829163118cdaa760e01b835260048301610a74565b0390fd5b612d5b5f6103a8565b612d65825f611ea9565b90612d99612d937f8be0079c531659141344cd1fd0a4f28419497f9722a3daafe3b4186f6b6457e093610e13565b91610e13565b91612da26101b2565b80612dac81610208565b0390a3565b67ffffffffffffffff8111612dc95760208091020190565b6104f6565b90612de0612ddb83612db1565b6108e6565b918252565b369037565b90612e0f612df783612dce565b92602080612e058693612db1565b9201910390612de5565b565b90565b612e20612e25916101c4565b612e11565b9052565b602081612e3b612e4393839695612e14565b018092612e14565b0190565b60200190565b5190565b612e5d612e6291610360565b61032e565b90565b634e487b7160e01b5f52601260045260245ffd5b612e85612e8b916101c4565b916101c4565b908115612e96570690565b612e65565b90612ea582610240565b811015612eb6576020809102010190565b611099565b90612ec59061025e565b9052565b612ed161164f565b50612ee2612edd61104c565b612dea565b90612eec5f61237d565b91612f47612f3742612f1f4491612f10612f046101b2565b93849260208401612e29565b6020820181038252038261050a565b612f31612f2b82612e4d565b91612e47565b20612e51565b612f4160056110ad565b90612e79565b92612f515f61237d565b5b80612f6e612f68612f6360056110ad565b6101c4565b916101c4565b1080613042575b1561303a57612fd790612faf612fa9612fa2612f92898590611727565b612f9c60056110ad565b90612e79565b60056110ba565b90610a57565b612fc66003612fc060048490610f60565b016103f6565b80613003575b612fdc575b506117c2565b612f52565b612ffd9093612ff8869195612ff0876117c2565b969092612e9b565b612ebb565b5f612fd1565b5061301a5f61301460048490610f60565b0161037c565b61303361302d613028610f10565b6101c4565b916101c4565b1015612fcc565b505090915090565b508161305d61305761305261104c565b6101c4565b916101c4565b10612f75565b61306b613103565b61307157565b5f633ee5aeb560e01b81528061308960048201610208565b0390fd5b5f90565b90565b90565b6130ab6130a66130b092613091565b611306565b613094565b90565b6130dc7f9b779b17422d0df92223018b32b4d1fa46e071723d6817e2486d003becc55f00613097565b90565b6130e761308d565b506130f06130b3565b90565b90565b6130fe6121fa565b503390565b61310b61279a565b506131265f61312061311b6130df565b6130f3565b0161037c565b61313f613139613134612975565b6101c4565b916101c4565b149056fea2646970667358221220d39741f4bc0c75834831cfc671802fed8595582179d8fc20d07a6ef2b145f6a064736f6c634300081e0033","linkReferences":{}},"methodIdentifiers":{"JURORS_PER_CASE()":"df3b8ae3","MIN_STAKE()":"cb1c2b5c","STABLECOIN()":"93a39776","USER_REGISTRY()":"860a551f","VOTING_PERIOD()":"b1610d7e","activeJurors(uint256)":"e2da844d","castVote(uint256,uint8)":"56781388","createDispute(uint256,uint256,address,address,uint256)":"7adfe483","disputeCounter()":"7d36f4d3","disputes(uint256)":"564a565d","finalizeDispute(uint256)":"56989a83","getActiveJurorCount()":"9a97f2dd","getDispute(uint256)":"e3a96cbd","getDisputeJurors(uint256)":"47e2a6e6","getJurorInfo(address)":"eff2c3ec","jurorIndices(address)":"9f2b9c57","jurors(address)":"dca5f6b0","owner()":"8da5cb5b","projectEscrowAddress()":"70e0a9db","renounceOwnership()":"715018a6","setAiReport(uint256,string,uint8)":"5a59efb2","setProjectEscrowAddress(address)":"f5b7e408","stakeAsJuror(uint256)":"95152b84","transferOwnership(address)":"f2fde38b","unstake(uint256)":"2e17de78"},"id":3}