{"abi":[{"type":"function","name":"verifyProof","inputs":[{"name":"","type":"bytes","internalType":"bytes"},{"name":"","type":"uint256[]","internalType":"uint256[]"}],"outputs":[{"name":"","type":"bool","internalType":"bool"}],"stateMutability":"pure"},{"type":"function","name":"version","inputs":[],"outputs":[{"name":"","type":"string","internalType":"string"}],"stateMutability":"pure"}],"bytecode":{"object":"0x608060405234601c57600e6020565b61044b61002b823961044b90f35b6026565b60405190565b5f80fdfe60806040526004361015610013575b61035f565b61001d5f3561003c565b80631e8e1e1314610037576354fd4d500361000e5761032a565b610284565b60e01c90565b60405190565b5f80fd5b5f80fd5b5f80fd5b5f80fd5b5f80fd5b601f801991011690565b634e487b7160e01b5f52604160045260245ffd5b906100849061005c565b810190811067ffffffffffffffff82111761009e57604052565b610066565b906100b66100af610042565b928361007a565b565b67ffffffffffffffff81116100d6576100d260209161005c565b0190565b610066565b90825f939282370152565b909291926100fb6100f6826100b8565b6100a3565b9381855260208501908284011161011757610115926100db565b565b610058565b9080601f8301121561013a57816020610137933591016100e6565b90565b610054565b67ffffffffffffffff81116101575760208091020190565b610066565b5f80fd5b90565b61016c81610160565b0361017357565b5f80fd5b9050359061018482610163565b565b9092919261019b6101968261013f565b6100a3565b93818552602080860192028301928184116101d857915b8383106101bf5750505050565b602080916101cd8486610177565b8152019201916101b2565b61015c565b9080601f830112156101fb578160206101f893359101610186565b90565b610054565b919091604081840312610258575f81013567ffffffffffffffff8111610253578361022c91830161011c565b92602082013567ffffffffffffffff811161024e5761024b92016101dd565b90565b610050565b610050565b61004c565b151590565b61026b9061025d565b9052565b9190610282905f60208501940190610262565b565b346102b5576102b16102a061029a366004610200565b90610367565b6102a8610042565b9182918261026f565b0390f35b610048565b5f9103126102c457565b61004c565b5190565b60209181520190565b90825f9392825e0152565b61030061030960209361030e936102f7816102c9565b938480936102cd565b958691016102d6565b61005c565b0190565b6103279160208201915f8184039101526102e1565b90565b3461035a5761033a3660046102ba565b610356610345610401565b61034d610042565b91829182610312565b0390f35b610048565b5f80fd5b5f90565b5050610371610363565b50600190565b606090565b67ffffffffffffffff811161039a5761039660209161005c565b0190565b610066565b906103b16103ac8361037c565b6100a3565b918252565b5f7f312e302e302d6d6f636b00000000000000000000000000000000000000000000910152565b6103e7600a61039f565b906103f4602083016103b6565b565b6103fe6103dd565b90565b610409610377565b506104126103f6565b9056fea264697066735822122022d5149cd1ca90c78759645ef52e2692157a8db5dff96184ab3286d3003b1b9c64736f6c634300081e0033","linkReferences":{}},"methodIdentifiers":{"verifyProof(bytes,uint256[])":"1e8e1e13","version()":"54fd4d50"},"id":12}