{"abi":[{"type":"constructor","inputs":[{"name":"_stablecoin","type":"address","internalType":"address"},{"name":"_userRegistry","type":"address","internalType":"address"}],"stateMutability":"nonpayable"},{"type":"function","name":"STAKE_AMOUNT","inputs":[],"outputs":[{"name":"","type":"uint256","internalType":"uint256"}],"stateMutability":"view"},{"type":"function","name":"addTeamMember","inputs":[{"name":"user","type":"address","internalType":"address"}],"outputs":[],"stateMutability":"nonpayable"},{"type":"function","name":"agencies","inputs":[{"name":"","type":"uint256","internalType":"uint256"}],"outputs":[{"name":"owner","type":"address","internalType":"address"},{"name":"companyName","type":"string","internalType":"string"},{"name":"gstNumberHash","type":"bytes32","internalType":"bytes32"},{"name":"isGstVerified","type":"bool","internalType":"bool"},{"name":"stakeAmount","type":"uint256","internalType":"uint256"},{"name":"registeredAt","type":"uint256","internalType":"uint256"},{"name":"isActive","type":"bool","internalType":"bool"}],"stateMutability":"view"},{"type":"function","name":"agencyCounter","inputs":[],"outputs":[{"name":"","type":"uint256","internalType":"uint256"}],"stateMutability":"view"},{"type":"function","name":"aiOracleAddress","inputs":[],"outputs":[{"name":"","type":"address","internalType":"address"}],"stateMutability":"view"},{"type":"function","name":"deactivateAgency","inputs":[{"name":"agencyId","type":"uint256","internalType":"uint256"}],"outputs":[],"stateMutability":"nonpayable"},{"type":"function","name":"getAgency","inputs":[{"name":"agencyId","type":"uint256","internalType":"uint256"}],"outputs":[{"name":"owner","type":"address","internalType":"address"},{"name":"companyName","type":"string","internalType":"string"},{"name":"gstNumberHash","type":"bytes32","internalType":"bytes32"},{"name":"isGstVerified","type":"bool","internalType":"bool"},{"name":"stakeAmount","type":"uint256","internalType":"uint256"},{"name":"teamSize","type":"uint256","internalType":"uint256"},{"name":"isActive","type":"bool","internalType":"bool"}],"stateMutability":"view"},{"type":"function","name":"getAgencyIdByOwner","inputs":[{"name":"owner","type":"address","internalType":"address"}],"outputs":[{"name":"","type":"uint256","internalType":"uint256"}],"stateMutability":"view"},{"type":"function","name":"getTeamMembers","inputs":[{"name":"agencyId","type":"uint256","internalType":"uint256"}],"outputs":[{"name":"","type":"address[]","internalType":"address[]"}],"stateMutability":"view"},{"type":"function","name":"gstHashUsed","inputs":[{"name":"","type":"bytes32","internalType":"bytes32"}],"outputs":[{"name":"","type":"bool","internalType":"bool"}],"stateMutability":"view"},{"type":"function","name":"isTeamMember","inputs":[{"name":"agencyId","type":"uint256","internalType":"uint256"},{"name":"user","type":"address","internalType":"address"}],"outputs":[{"name":"","type":"bool","internalType":"bool"}],"stateMutability":"view"},{"type":"function","name":"owner","inputs":[],"outputs":[{"name":"","type":"address","internalType":"address"}],"stateMutability":"view"},{"type":"function","name":"ownerToAgency","inputs":[{"name":"","type":"address","internalType":"address"}],"outputs":[{"name":"","type":"uint256","internalType":"uint256"}],"stateMutability":"view"},{"type":"function","name":"registerAgency","inputs":[{"name":"companyName","type":"string","internalType":"string"},{"name":"gstHash","type":"bytes32","internalType":"bytes32"}],"outputs":[{"name":"","type":"uint256","internalType":"uint256"}],"stateMutability":"nonpayable"},{"type":"function","name":"removeTeamMember","inputs":[{"name":"user","type":"address","internalType":"address"}],"outputs":[],"stateMutability":"nonpayable"},{"type":"function","name":"renounceOwnership","inputs":[],"outputs":[],"stateMutability":"nonpayable"},{"type":"function","name":"setAiOracle","inputs":[{"name":"_aiOracle","type":"address","internalType":"address"}],"outputs":[],"stateMutability":"nonpayable"},{"type":"function","name":"setGstVerified","inputs":[{"name":"agencyId","type":"uint256","internalType":"uint256"},{"name":"status","type":"bool","internalType":"bool"}],"outputs":[],"stateMutability":"nonpayable"},{"type":"function","name":"stablecoin","inputs":[],"outputs":[{"name":"","type":"address","internalType":"contract IERC20"}],"stateMutability":"view"},{"type":"function","name":"transferOwnership","inputs":[{"name":"newOwner","type":"address","internalType":"address"}],"outputs":[],"stateMutability":"nonpayable"},{"type":"function","name":"userRegistry","inputs":[],"outputs":[{"name":"","type":"address","internalType":"contract UserRegistry"}],"stateMutability":"view"},{"type":"event","name":"AgencyDeactivated","inputs":[{"name":"agencyId","type":"uint256","indexed":true,"internalType":"uint256"}],"anonymous":false},{"type":"event","name":"AgencyRegistered","inputs":[{"name":"agencyId","type":"uint256","indexed":true,"internalType":"uint256"},{"name":"owner","type":"address","indexed":true,"internalType":"address"},{"name":"companyName","type":"string","indexed":false,"internalType":"string"},{"name":"gstNumberHash","type":"bytes32","indexed":false,"internalType":"bytes32"},{"name":"stakeAmount","type":"uint256","indexed":false,"internalType":"uint256"}],"anonymous":false},{"type":"event","name":"GstVerificationStatusChanged","inputs":[{"name":"agencyId","type":"uint256","indexed":true,"internalType":"uint256"},{"name":"isVerified","type":"bool","indexed":false,"internalType":"bool"}],"anonymous":false},{"type":"event","name":"OwnershipTransferred","inputs":[{"name":"previousOwner","type":"address","indexed":true,"internalType":"address"},{"name":"newOwner","type":"address","indexed":true,"internalType":"address"}],"anonymous":false},{"type":"event","name":"StakeWithdrawn","inputs":[{"name":"agencyId","type":"uint256","indexed":true,"internalType":"uint256"},{"name":"amount","type":"uint256","indexed":false,"internalType":"uint256"}],"anonymous":false},{"type":"event","name":"TeamMemberAdded","inputs":[{"name":"agencyId","type":"uint256","indexed":true,"internalType":"uint256"},{"name":"member","type":"address","indexed":true,"internalType":"address"}],"anonymous":false},{"type":"event","name":"TeamMemberRemoved","inputs":[{"name":"agencyId","type":"uint256","indexed":true,"internalType":"uint256"},{"name":"member","type":"address","indexed":true,"internalType":"address"}],"anonymous":false},{"type":"error","name":"AgencyNotActive","inputs":[]},{"type":"error","name":"AlreadyRegistered","inputs":[]},{"type":"error","name":"AlreadyTeamMember","inputs":[]},{"type":"error","name":"GstAlreadyUsed","inputs":[]},{"type":"error","name":"InvalidStakeAmount","inputs":[]},{"type":"error","name":"NotAgencyOwner","inputs":[]},{"type":"error","name":"NotTeamMember","inputs":[]},{"type":"error","name":"NotVerifiedHuman","inputs":[]},{"type":"error","name":"OwnableInvalidOwner","inputs":[{"name":"owner","type":"address","internalType":"address"}]},{"type":"error","name":"OwnableUnauthorizedAccount","inputs":[{"name":"account","type":"address","internalType":"address"}]},{"type":"error","name":"ReentrancyGuardReentrantCall","inputs":[]},{"type":"error","name":"Unauthorized","inputs":[]}],"bytecode":{"object":"0x60c0604052346100505761001a610014610124565b90610195565b610022610055565b6121b46104628239608051818181610d4a0152611461015260a051818181610a910152611a9201526121b490f35b61005b565b60405190565b5f80fd5b601f801991011690565b634e487b7160e01b5f52604160045260245ffd5b906100879061005f565b810190811060018060401b0382111761009f57604052565b610069565b906100b76100b0610055565b928361007d565b565b5f80fd5b60018060a01b031690565b6100d1906100bd565b90565b6100dd816100c8565b036100e457565b5f80fd5b905051906100f5826100d4565b565b919060408382031261011f578061011361011c925f86016100e8565b936020016100e8565b90565b6100b9565b61014261261680380380610137816100a4565b9283398101906100f7565b9091565b90565b61015d610158610162926100bd565b610146565b6100bd565b90565b61016e90610149565b90565b61017a90610165565b90565b61018690610149565b90565b6101929061017d565b90565b906101ab6101b3926101a633610241565b610171565b608052610189565b60a052565b90565b90565b6101d26101cd6101d7926101b8565b610146565b6101bb565b90565b6101e460016101be565b90565b5f1b90565b906101f85f19916101e7565b9181191691161790565b61021661021161021b926101bb565b610146565b6101bb565b90565b90565b9061023661023161023d92610202565b61021e565b82546101ec565b9055565b61024a906102bb565b61026c6102556101da565b5f61026661026161035f565b610373565b01610221565b565b90565b61028561028061028a9261026e565b610146565b6100bd565b90565b61029690610271565b90565b6102a2906100c8565b9052565b91906102b9905f60208501940190610299565b565b806102d66102d06102cb5f61028d565b6100c8565b916100c8565b146102e6576102e490610402565b565b6103096102f25f61028d565b5f918291631e4fbdf760e01b8352600483016102a6565b0390fd5b5f90565b90565b90565b61032b61032661033092610311565b6101e7565b610314565b90565b61035c7f9b779b17422d0df92223018b32b4d1fa46e071723d6817e2486d003becc55f00610317565b90565b61036761030d565b50610370610333565b90565b90565b5f1c90565b60018060a01b031690565b61039261039791610376565b61037b565b90565b6103a49054610386565b90565b906103b860018060a01b03916101e7565b9181191691161790565b6103cb90610149565b90565b6103d7906103c2565b90565b90565b906103f26103ed6103f9926103ce565b6103da565b82546103a7565b9055565b5f0190565b61040b5f61039a565b610415825f6103dd565b906104496104437f8be0079c531659141344cd1fd0a4f28419497f9722a3daafe3b4186f6b6457e0936103ce565b916103ce565b91610452610055565b8061045c816103fd565b0390a356fe60806040526004361015610013575b610ea4565b61001d5f3561016c565b806301738281146101675780630762ea18146101625780630b935a2d1461015d57806314eba0261461015857806320591af6146101535780633c8d830d1461014e5780633eb2b5ad1461014957806341b3e87114610144578063556524be1461013f5780635a95c69a1461013a5780635c7460d614610135578063715018a6146101305780637b15e5df1461012b5780638d758f90146101265780638da5cb5b14610121578063b71b36251461011c578063d9386c4614610117578063e9cbd82214610112578063f2fde38b1461010d578063faf5625f146101085763fda1fd830361000e57610e71565b610e3c565b610dcf565b610d9a565b610d13565b610cd1565b610c9c565b610c67565b610b93565b610b16565b610ae1565b610a4b565b610986565b610951565b61091e565b6108e2565b61057f565b6104c3565b61046f565b6102c3565b610238565b60e01c90565b60405190565b5f80fd5b5f80fd5b5f80fd5b90565b61019081610184565b0361019757565b5f80fd5b905035906101a882610187565b565b60018060a01b031690565b6101be906101aa565b90565b6101ca816101b5565b036101d157565b5f80fd5b905035906101e2826101c1565b565b919060408382031261020c5780610200610209925f860161019b565b936020016101d5565b90565b61017c565b151590565b61021f90610211565b9052565b9190610236905f60208501940190610216565b565b346102695761026561025461024e3660046101e4565b90610ec2565b61025c610172565b91829182610223565b0390f35b610178565b61027781610211565b0361027e57565b5f80fd5b9050359061028f8261026e565b565b91906040838203126102b957806102ad6102b6925f860161019b565b93602001610282565b90565b61017c565b5f0190565b346102f2576102dc6102d6366004610291565b90610fd9565b6102e4610172565b806102ee816102be565b0390f35b610178565b5f80fd5b5f80fd5b601f801991011690565b634e487b7160e01b5f52604160045260245ffd5b90610327906102ff565b810190811067ffffffffffffffff82111761034157604052565b610309565b90610359610352610172565b928361031d565b565b67ffffffffffffffff8111610379576103756020916102ff565b0190565b610309565b90825f939282370152565b9092919261039e6103998261035b565b610346565b938185526020850190828401116103ba576103b89261037e565b565b6102fb565b9080601f830112156103dd578160206103da93359101610389565b90565b6102f7565b90565b6103ee816103e2565b036103f557565b5f80fd5b90503590610406826103e5565b565b9190604083820312610448575f8301359067ffffffffffffffff821161044357610437816104409386016103bf565b936020016103f9565b90565b610180565b61017c565b61045690610184565b9052565b919061046d905f6020850194019061044d565b565b346104a05761049c61048b610485366004610408565b90611667565b610493610172565b9182918261045a565b0390f35b610178565b906020828203126104be576104bb915f016101d5565b90565b61017c565b346104f1576104db6104d63660046104a5565b6117f7565b6104e3610172565b806104ed816102be565b0390f35b610178565b9060208282031261050f5761050c915f016103f9565b90565b61017c565b61051d906103e2565b90565b9061052a90610514565b5f5260205260405f2090565b1c90565b60ff1690565b6105509060086105559302610536565b61053a565b90565b906105639154610540565b90565b61057c906105776005915f92610520565b610558565b90565b346105af576105ab61059a6105953660046104f6565b610566565b6105a2610172565b91829182610223565b0390f35b610178565b906020828203126105cd576105ca915f0161019b565b90565b61017c565b90565b6105e96105e46105ee92610184565b6105d2565b610184565b90565b906105fb906105d5565b5f5260205260405f2090565b5f1c90565b60018060a01b031690565b61062361062891610607565b61060c565b90565b6106359054610617565b90565b634e487b7160e01b5f52602260045260245ffd5b906001600283049216801561066c575b602083101461066757565b610638565b91607f169161065c565b60209181520190565b5f5260205f2090565b905f92918054906106a261069b8361064c565b8094610676565b916001811690815f146106f957506001146106bd575b505050565b6106ca919293945061067f565b915f925b8184106106e157505001905f80806106b8565b600181602092959395548486015201910192906106ce565b92949550505060ff19168252151560200201905f80806106b8565b9061071e91610688565b90565b9061074161073a92610731610172565b93848092610714565b038361031d565b565b90565b61075261075791610607565b610743565b90565b6107649054610746565b90565b61077361077891610607565b61053a565b90565b6107859054610767565b90565b90565b61079761079c91610607565b610788565b90565b6107a9905461078b565b90565b6107b79060036105f1565b6107c25f820161062b565b916107cf60018301610721565b916107dc6002820161075a565b916107e96003830161077b565b916107f66004820161079f565b9161080f60066108086005850161079f565b930161077b565b90565b61081b906101b5565b9052565b5190565b60209181520190565b90825f9392825e0152565b61085661085f6020936108649361084d8161081f565b93848093610823565b9586910161082c565b6102ff565b0190565b610871906103e2565b9052565b929796946108cf906108c560c0966108bb6108b06108e09b966108d9986108a360e08c01925f8d0190610812565b8a820360208c0152610837565b9c6040890190610868565b6060870190610216565b608085019061044d565b60a083019061044d565b0190610216565b565b34610919576109156108fd6108f83660046105b4565b6107ac565b9361090c979597939193610172565b97889788610875565b0390f35b610178565b3461094c576109366109313660046104a5565b611a15565b61093e610172565b80610948816102be565b0390f35b610178565b346109815761097d61096c6109673660046104a5565b611c34565b610974610172565b9182918261045a565b0390f35b610178565b346109bd576109b96109a161099c3660046105b4565b611c68565b936109b0979597939193610172565b97889788610875565b0390f35b610178565b6109d66109d16109db926101aa565b6105d2565b6101aa565b90565b6109e7906109c2565b90565b6109f3906109de565b90565b90610a00906109ea565b5f5260205260405f2090565b610a1c906008610a219302610536565b610788565b90565b90610a2f9154610a0c565b90565b610a4890610a436004915f926109f6565b610a24565b90565b34610a7b57610a77610a66610a613660046104a5565b610a32565b610a6e610172565b9182918261045a565b0390f35b610178565b5f910312610a8a57565b61017c565b7f000000000000000000000000000000000000000000000000000000000000000090565b610abc906109de565b90565b610ac890610ab3565b9052565b9190610adf905f60208501940190610abf565b565b34610b1157610af1366004610a80565b610b0d610afc610a8f565b610b04610172565b91829182610acc565b0390f35b610178565b34610b4457610b26366004610a80565b610b2e611d68565b610b36610172565b80610b40816102be565b0390f35b610178565b610b59906008610b5e9302610536565b61060c565b90565b90610b6c9154610b49565b90565b610b7b60015f90610b61565b90565b9190610b91905f60208501940190610812565b565b34610bc357610ba3366004610a80565b610bbf610bae610b6f565b610bb6610172565b91829182610b7e565b0390f35b610178565b5190565b60209181520190565b60200190565b610be4906101b5565b9052565b90610bf581602093610bdb565b0190565b60200190565b90610c1c610c16610c0f84610bc8565b8093610bcc565b92610bd5565b905f5b818110610c2c5750505090565b909192610c45610c3f6001928651610be8565b94610bf9565b9101919091610c1f565b610c649160208201915f818403910152610bff565b90565b34610c9757610c93610c82610c7d3660046105b4565b611e25565b610c8a610172565b91829182610c4f565b0390f35b610178565b34610ccc57610cac366004610a80565b610cc8610cb7611e47565b610cbf610172565b91829182610b7e565b0390f35b610178565b34610cff57610ce9610ce43660046105b4565b611ec9565b610cf1610172565b80610cfb816102be565b0390f35b610178565b610d1060025f90610a24565b90565b34610d4357610d23366004610a80565b610d3f610d2e610d04565b610d36610172565b9182918261045a565b0390f35b610178565b7f000000000000000000000000000000000000000000000000000000000000000090565b610d75906109de565b90565b610d8190610d6c565b9052565b9190610d98905f60208501940190610d78565b565b34610dca57610daa366004610a80565b610dc6610db5610d48565b610dbd610172565b91829182610d85565b0390f35b610178565b34610dfd57610de7610de23660046104a5565b611f39565b610def610172565b80610df9816102be565b0390f35b610178565b90565b610e19610e14610e1e92610e02565b6105d2565b610184565b90565b610e2e631dcd6500610e05565b90565b610e39610e21565b90565b34610e6c57610e4c366004610a80565b610e68610e57610e31565b610e5f610172565b9182918261045a565b0390f35b610178565b34610e9f57610e89610e843660046104a5565b611f64565b610e91610172565b80610e9b816102be565b0390f35b610178565b5f80fd5b5f90565b90610eb6906109ea565b5f5260205260405f2090565b610eea916008610edf610ee593610ed7610ea8565b5060036105f1565b01610eac565b61077b565b90565b9033610f0a610f04610eff600161062b565b6101b5565b916101b5565b03610f1a57610f1891610f7f565b565b5f6282b42960e81b815280610f31600482016102be565b0390fd5b5f1b90565b90610f4660ff91610f35565b9181191691161790565b610f5990610211565b90565b90565b90610f74610f6f610f7b92610f50565b610f5c565b8254610f3a565b9055565b610f96826003610f908185906105f1565b01610f5f565b610fd4610fc27eb56c935fc5c00935c333f66df70fdff7d66957369bb9175e0a3f4fe8632a9a926105d5565b92610fcb610172565b91829182610223565b0390a2565b90610fe391610eed565b565b5f90565b90610ffc9291610ff7611f9b565b611415565b90611005611fd4565b565b90565b61101e61101961102392611007565b6105d2565b610184565b90565b61102f906109de565b90565b60e01b90565b905051906110458261026e565b565b906020828203126110605761105d915f01611038565b90565b61017c565b60409061108e611095949695939661108460608401985f850190610812565b6020830190610812565b019061044d565b565b61109f610172565b3d5f823e3d90fd5b5f7f5374616b65207472616e73666572206661696c65640000000000000000000000910152565b6110db6015602092610823565b6110e4816110a7565b0190565b6110fd9060208101905f8183039101526110ce565b90565b1561110757565b61110f610172565b62461bcd60e51b815280611125600482016110e8565b0390fd5b634e487b7160e01b5f52601160045260245ffd5b61114690610184565b5f1981146111545760010190565b611129565b906111655f1991610f35565b9181191691161790565b90565b9061118761118261118e926105d5565b61116f565b8254611159565b9055565b90565b906111a660018060a01b0391610f35565b9181191691161790565b90565b906111c86111c36111cf926109ea565b6111b0565b8254611195565b9055565b601f602091010490565b1b90565b919060086111fc9102916111f65f19846111dd565b926111dd565b9181191691161790565b919061121c611217611224936105d5565b61116f565b9083546111e1565b9055565b61123a91611234610fe5565b91611206565b565b5b818110611248575050565b806112555f600193611228565b0161123d565b9190601f811161126b575b505050565b61127761129c9361067f565b906020611283846111d3565b830193106112a4575b611295906111d3565b019061123c565b5f8080611266565b91506112958192905061128c565b906112c2905f1990600802610536565b191690565b816112d1916112b2565b906002021790565b906112e38161081f565b9067ffffffffffffffff82116113a35761130782611301855461064c565b8561125b565b602090601f831160011461133b5791809161132a935f9261132f575b50506112c7565b90555b565b90915001515f80611323565b601f1983169161134a8561067f565b925f5b81811061138b57509160029391856001969410611371575b5050500201905561132d565b611381910151601f8416906112b2565b90555f8080611365565b9193602060018192878701518155019501920161134d565b610309565b906113b2916112d9565b565b6113bd90610607565b90565b906113d56113d06113dc92610514565b6113b4565b8254611159565b9055565b60409061140c6114016114139597969460608401908482035f860152610837565b966020830190610868565b019061044d565b565b9190915061142d611428600433906109f6565b61079f565b61143f6114395f61100a565b91610184565b0361164b5761145861145360058390610520565b61077b565b61162f576114857f0000000000000000000000000000000000000000000000000000000000000000610d6c565b60206323b872dd9133906114bc5f61149c30611026565b956114c76114a8610e21565b6114b0610172565b98899788968795611032565b855260048501611065565b03925af1801561162a576114e2915f916115fc575b50611100565b6114f46114ef600261079f565b61113d565b6114ff816002611172565b91611576611517611512600386906105f1565b611192565b611523335f83016111b3565b61153083600183016113a8565b61153d84600283016113c0565b61154a5f60038301610f5f565b61155e611555610e21565b60048301611172565b61156b4260058301611172565b600660019101610f5f565b61158b83611586600433906109f6565b611172565b6115a1600161159c60058590610520565b610f5f565b823391926115ad610e21565b936115f66115e46115de7f49982c48d9f32a6a0fbe9d3fc51b6e00a8c8981cbf3b171cf63c88b9eeb5c1f5956105d5565b956109ea565b956115ed610172565b938493846113e0565b0390a390565b61161d915060203d8111611623575b611615818361031d565b810190611047565b5f6114dc565b503d61160b565b611097565b5f63150e8e2f60e31b815280611647600482016102be565b0390fd5b5f630ea075bf60e21b815280611663600482016102be565b0390fd5b9061167991611674610fe5565b610fe9565b90565b60016116889101610184565b90565b5490565b634e487b7160e01b5f52603260045260245ffd5b5f5260205f2090565b6116b58161168b565b8210156116cf576116c76001916116a3565b910201905f90565b61168f565b90565b6116eb6116e66116f0926116d4565b6105d2565b610184565b90565b61170261170891939293610184565b92610184565b820391821161171357565b611129565b9190600861173891029161173260018060a01b03846111dd565b926111dd565b9181191691161790565b9190611758611753611760936109ea565b6111b0565b908354611718565b9055565b90565b634e487b7160e01b5f52603160045260245ffd5b5490565b5f5260205f2090565b6117918161177b565b8210156117ab576117a360019161177f565b910201905f90565b61168f565b5f90565b6117c6916117c06117b0565b91611742565b565b6117d18161177b565b80156117f25760019003906117ef6117e98383611788565b906117b4565b55565b611767565b61180b611806600433906109f6565b61079f565b908161181f6118195f61100a565b91610184565b146119c457611838611833600384906105f1565b611192565b9161185861185261184d600886018590610eac565b61077b565b15610211565b6119a8576118735f61186e600886018590610eac565b610f5f565b61188a5f6118856009860185906109f6565b611228565b6118935f61100a565b5b806118b26118ac6118a76007880161168b565b610184565b91610184565b101561199f576118cf6118c96007860183906116ac565b90610b61565b6118e16118db856101b5565b916101b5565b146118f4576118ef9061167c565b611894565b60078461194861194e9361194261193961193386611953999a9b0161192d61191d89890161168b565b61192760016116d7565b906116f3565b906116ac565b90610b61565b918585016116ac565b90611742565b01611764565b6117c8565b5b906119876119817ed7e569bad022591d762a1450f4a69b70ff8d2eff93079644814cfb17ae2793936105d5565b916109ea565b91611990610172565b8061199a816102be565b0390a3565b50909150611954565b5f632793ed7d60e01b8152806119c0600482016102be565b0390fd5b5f63178d4d6b60e01b8152806119dc600482016102be565b0390fd5b9081549168010000000000000000831015611a105782611a08916001611a0e95018155611788565b90611742565b565b610309565b611a29611a24600433906109f6565b61079f565b80611a3c611a365f61100a565b91610184565b14611c1857611a55611a50600383906105f1565b611192565b611a6a611a646006830161077b565b15610211565b611bfc57611a84611a7f600883018590610eac565b61077b565b611be057611adf6020611ab67f0000000000000000000000000000000000000000000000000000000000000000610ab3565b6263fa2790611ad48792611ac8610172565b95869485938493611032565b835260048301610b7e565b03915afa8015611bdb57611afb915f91611bad575b5015610211565b611b915780611b19611b126007611b459401611764565b85906119e0565b611b316001611b2c600884018790610eac565b610f5f565b611b40600942920185906109f6565b611172565b90611b79611b737f1ecb79e38af33b5e8751cc9cf391eb185feff6f68630686146e1e2e2753f00d8936105d5565b916109ea565b91611b82610172565b80611b8c816102be565b0390a3565b5f6329c1fbb960e01b815280611ba9600482016102be565b0390fd5b611bce915060203d8111611bd4575b611bc6818361031d565b810190611047565b5f611af4565b503d611bbc565b611097565b5f63a9af455b60e01b815280611bf8600482016102be565b0390fd5b5f636a666c1160e01b815280611c14600482016102be565b0390fd5b5f63178d4d6b60e01b815280611c30600482016102be565b0390fd5b611c4b611c5091611c43610fe5565b5060046109f6565b61079f565b90565b606090565b5f90565b611c6590610721565b90565b611cb5611cba91611c776117b0565b50611c80611c53565b50611c89611c58565b50611c92610ea8565b50611c9b610fe5565b50611ca4610fe5565b50611cad610ea8565b5060036105f1565b611192565b611cc55f820161062b565b6001820192611cd66002840161075a565b92611ce36003820161077b565b92611cf06004830161079f565b92611d13611d0c6006611d056007870161168b565b950161077b565b9297611c5c565b959493929190565b611d23611ff8565b611d2b611d55565b565b611d41611d3c611d4692611007565b6105d2565b6101aa565b90565b611d5290611d2d565b90565b611d66611d615f611d49565b612046565b565b611d70611d1b565b565b606090565b60209181520190565b611d8a9054610617565b90565b60010190565b90611db0611daa611da38461168b565b8093611d77565b926116a3565b905f5b818110611dc05750505090565b909192611de0611dda600192611dd587611d80565b610be8565b94611d8d565b9101919091611db3565b90611df491611d93565b90565b90611e17611e1092611e07610172565b93848092611dea565b038361031d565b565b611e2290611df7565b90565b6007611e3e611e4492611e36611d72565b5060036105f1565b01611e19565b90565b611e4f6117b0565b50611e595f61062b565b90565b611e6d90611e68611ff8565b611e6f565b565b611e875f6006611e81600385906105f1565b01610f5f565b611eb17ff25f79424be5cb867ce6d4ac47ed969a90c283c4c8c1cbae5aade74eb8a7c137916105d5565b90611eba610172565b80611ec4816102be565b0390a2565b611ed290611e5c565b565b611ee590611ee0611ff8565b611ee7565b565b80611f02611efc611ef75f611d49565b6101b5565b916101b5565b14611f1257611f1090612046565b565b611f35611f1e5f611d49565b5f918291631e4fbdf760e01b835260048301610b7e565b0390fd5b611f4290611ed4565b565b611f5590611f50611ff8565b611f57565b565b611f629060016111b3565b565b611f6d90611f44565b565b90565b611f86611f81611f8b92611f6f565b6105d2565b610184565b90565b611f986002611f72565b90565b611fa36120a5565b611fc5611fae611f8e565b5f611fbf611fba61211a565b61212e565b01611172565b565b611fd160016116d7565b90565b611ff6611fdf611fc7565b5f611ff0611feb61211a565b61212e565b01611172565b565b612000611e47565b61201961201361200e612131565b6101b5565b916101b5565b0361202057565b61204261202b612131565b5f91829163118cdaa760e01b835260048301610b7e565b0390fd5b61204f5f61062b565b612059825f6111b3565b9061208d6120877f8be0079c531659141344cd1fd0a4f28419497f9722a3daafe3b4186f6b6457e0936109ea565b916109ea565b91612096610172565b806120a0816102be565b0390a3565b6120ad61213e565b6120b357565b5f633ee5aeb560e01b8152806120cb600482016102be565b0390fd5b90565b6120e66120e16120eb926120cf565b610f35565b6103e2565b90565b6121177f9b779b17422d0df92223018b32b4d1fa46e071723d6817e2486d003becc55f006120d2565b90565b612122611c58565b5061212b6120ee565b90565b90565b6121396117b0565b503390565b612146610ea8565b506121615f61215b61215661211a565b61212e565b0161079f565b61217a61217461216f611f8e565b610184565b91610184565b149056fea26469706673582212204dddebc33407cc2c06242da45a987ed4a81ac7a85f2848a4b522d9ecc733857864736f6c634300081e0033","linkReferences":{}},"methodIdentifiers":{"STAKE_AMOUNT()":"faf5625f","addTeamMember(address)":"3eb2b5ad","agencies(uint256)":"3c8d830d","agencyCounter()":"d9386c46","aiOracleAddress()":"7b15e5df","deactivateAgency(uint256)":"b71b3625","getAgency(uint256)":"556524be","getAgencyIdByOwner(address)":"41b3e871","getTeamMembers(uint256)":"8d758f90","gstHashUsed(bytes32)":"20591af6","isTeamMember(uint256,address)":"01738281","owner()":"8da5cb5b","ownerToAgency(address)":"5a95c69a","registerAgency(string,bytes32)":"0b935a2d","removeTeamMember(address)":"14eba026","renounceOwnership()":"715018a6","setAiOracle(address)":"fda1fd83","setGstVerified(uint256,bool)":"0762ea18","stablecoin()":"e9cbd822","transferOwnership(address)":"f2fde38b","userRegistry()":"5c7460d6"},"id":2}