{"abi":[{"type":"constructor","inputs":[{"name":"_stablecoin","type":"address","internalType":"address"},{"name":"_userRegistry","type":"address","internalType":"address"},{"name":"_agencyRegistry","type":"address","internalType":"address"},{"name":"_enterpriseAccess","type":"address","internalType":"address"}],"stateMutability":"nonpayable"},{"type":"function","name":"STABLECOIN","inputs":[],"outputs":[{"name":"","type":"address","internalType":"contract IERC20"}],"stateMutability":"view"},{"type":"function","name":"addMilestone","inputs":[{"name":"projectId","type":"uint256","internalType":"uint256"},{"name":"amount","type":"uint256","internalType":"uint256"},{"name":"description","type":"string","internalType":"string"}],"outputs":[],"stateMutability":"nonpayable"},{"type":"function","name":"agencyRegistry","inputs":[],"outputs":[{"name":"","type":"address","internalType":"contract AgencyRegistry"}],"stateMutability":"view"},{"type":"function","name":"approveMilestone","inputs":[{"name":"projectId","type":"uint256","internalType":"uint256"},{"name":"milestoneId","type":"uint256","internalType":"uint256"}],"outputs":[],"stateMutability":"nonpayable"},{"type":"function","name":"clientCancel","inputs":[{"name":"projectId","type":"uint256","internalType":"uint256"}],"outputs":[],"stateMutability":"nonpayable"},{"type":"function","name":"completeMilestone","inputs":[{"name":"projectId","type":"uint256","internalType":"uint256"},{"name":"milestoneId","type":"uint256","internalType":"uint256"}],"outputs":[],"stateMutability":"nonpayable"},{"type":"function","name":"createDispute","inputs":[{"name":"projectId","type":"uint256","internalType":"uint256"},{"name":"milestoneId","type":"uint256","internalType":"uint256"}],"outputs":[],"stateMutability":"nonpayable"},{"type":"function","name":"createProject","inputs":[{"name":"freelancer","type":"address","internalType":"address"},{"name":"milestoneAmounts","type":"uint256[]","internalType":"uint256[]"},{"name":"milestoneDescriptions","type":"string[]","internalType":"string[]"}],"outputs":[{"name":"","type":"uint256","internalType":"uint256"}],"stateMutability":"nonpayable"},{"type":"function","name":"disputeJuryAddress","inputs":[],"outputs":[{"name":"","type":"address","internalType":"address"}],"stateMutability":"view"},{"type":"function","name":"enterpriseAccess","inputs":[],"outputs":[{"name":"","type":"address","internalType":"contract EnterpriseAccess"}],"stateMutability":"view"},{"type":"function","name":"freelancerCancel","inputs":[{"name":"projectId","type":"uint256","internalType":"uint256"}],"outputs":[],"stateMutability":"nonpayable"},{"type":"function","name":"getMilestone","inputs":[{"name":"projectId","type":"uint256","internalType":"uint256"},{"name":"milestoneId","type":"uint256","internalType":"uint256"}],"outputs":[{"name":"","type":"tuple","internalType":"struct ProjectEscrow.Milestone","components":[{"name":"description","type":"string","internalType":"string"},{"name":"amount","type":"uint256","internalType":"uint256"},{"name":"status","type":"uint8","internalType":"enum ProjectEscrow.MilestoneStatus"},{"name":"completionTime","type":"uint256","internalType":"uint256"}]}],"stateMutability":"view"},{"type":"function","name":"getMilestoneCount","inputs":[{"name":"projectId","type":"uint256","internalType":"uint256"}],"outputs":[{"name":"","type":"uint256","internalType":"uint256"}],"stateMutability":"view"},{"type":"function","name":"getProject","inputs":[{"name":"projectId","type":"uint256","internalType":"uint256"}],"outputs":[{"name":"","type":"tuple","internalType":"struct ProjectEscrow.Project","components":[{"name":"projectId","type":"uint256","internalType":"uint256"},{"name":"client","type":"address","internalType":"address"},{"name":"freelancer","type":"address","internalType":"address"},{"name":"agencyId","type":"uint256","internalType":"uint256"},{"name":"totalAmount","type":"uint256","internalType":"uint256"},{"name":"amountPaid","type":"uint256","internalType":"uint256"},{"name":"status","type":"uint8","internalType":"enum ProjectEscrow.ProjectStatus"},{"name":"milestones","type":"tuple[]","internalType":"struct ProjectEscrow.Milestone[]","components":[{"name":"description","type":"string","internalType":"string"},{"name":"amount","type":"uint256","internalType":"uint256"},{"name":"status","type":"uint8","internalType":"enum ProjectEscrow.MilestoneStatus"},{"name":"completionTime","type":"uint256","internalType":"uint256"}]},{"name":"isEnterpriseProject","type":"bool","internalType":"bool"}]}],"stateMutability":"view"},{"type":"function","name":"projectCounter","inputs":[],"outputs":[{"name":"","type":"uint256","internalType":"uint256"}],"stateMutability":"view"},{"type":"function","name":"projects","inputs":[{"name":"","type":"uint256","internalType":"uint256"}],"outputs":[{"name":"projectId","type":"uint256","internalType":"uint256"},{"name":"client","type":"address","internalType":"address"},{"name":"freelancer","type":"address","internalType":"address"},{"name":"agencyId","type":"uint256","internalType":"uint256"},{"name":"totalAmount","type":"uint256","internalType":"uint256"},{"name":"amountPaid","type":"uint256","internalType":"uint256"},{"name":"status","type":"uint8","internalType":"enum ProjectEscrow.ProjectStatus"},{"name":"isEnterpriseProject","type":"bool","internalType":"bool"}],"stateMutability":"view"},{"type":"function","name":"setDisputeJuryAddress","inputs":[{"name":"_juryAddress","type":"address","internalType":"address"}],"outputs":[],"stateMutability":"nonpayable"},{"type":"function","name":"userRegistry","inputs":[],"outputs":[{"name":"","type":"address","internalType":"contract UserRegistry"}],"stateMutability":"view"},{"type":"event","name":"DisputeCreated","inputs":[{"name":"projectId","type":"uint256","indexed":true,"internalType":"uint256"},{"name":"milestoneId","type":"uint256","indexed":true,"internalType":"uint256"}],"anonymous":false},{"type":"event","name":"MilestoneAdded","inputs":[{"name":"projectId","type":"uint256","indexed":true,"internalType":"uint256"},{"name":"milestoneId","type":"uint256","indexed":true,"internalType":"uint256"},{"name":"amount","type":"uint256","indexed":false,"internalType":"uint256"}],"anonymous":false},{"type":"event","name":"MilestoneApproved","inputs":[{"name":"projectId","type":"uint256","indexed":true,"internalType":"uint256"},{"name":"milestoneId","type":"uint256","indexed":true,"internalType":"uint256"},{"name":"amount","type":"uint256","indexed":false,"internalType":"uint256"}],"anonymous":false},{"type":"event","name":"MilestoneCompleted","inputs":[{"name":"projectId","type":"uint256","indexed":true,"internalType":"uint256"},{"name":"milestoneId","type":"uint256","indexed":true,"internalType":"uint256"}],"anonymous":false},{"type":"event","name":"ProjectCancelled","inputs":[{"name":"projectId","type":"uint256","indexed":true,"internalType":"uint256"},{"name":"cancelledBy","type":"address","indexed":true,"internalType":"address"},{"name":"reason","type":"string","indexed":false,"internalType":"string"}],"anonymous":false},{"type":"event","name":"ProjectCreated","inputs":[{"name":"projectId","type":"uint256","indexed":true,"internalType":"uint256"},{"name":"client","type":"address","indexed":true,"internalType":"address"},{"name":"freelancer","type":"address","indexed":true,"internalType":"address"},{"name":"totalAmount","type":"uint256","indexed":false,"internalType":"uint256"}],"anonymous":false},{"type":"error","name":"InvalidAmount","inputs":[]},{"type":"error","name":"MilestoneNotCompleted","inputs":[]},{"type":"error","name":"MilestoneNotPending","inputs":[]},{"type":"error","name":"NotClient","inputs":[]},{"type":"error","name":"NotClientOrFreelancer","inputs":[]},{"type":"error","name":"NotFreelancer","inputs":[]},{"type":"error","name":"ProjectNotActive","inputs":[]},{"type":"error","name":"ReentrancyGuardReentrantCall","inputs":[]},{"type":"error","name":"Unauthorized","inputs":[]}],"bytecode":{"object":"0x60e06040523461007f5761001d61001461016c565b9291909161025e565b610025610084565b6135e86103b08239608051818181610aa701528181611365015281816119cc01528181611dac015281816124bb0152612c4e015260a05181818161085101528181611ed30152612b49015260c0518161046f01526135e890f35b61008a565b60405190565b5f80fd5b601f801991011690565b634e487b7160e01b5f52604160045260245ffd5b906100b69061008e565b810190811060018060401b038211176100ce57604052565b610098565b906100e66100df610084565b92836100ac565b565b5f80fd5b60018060a01b031690565b610100906100ec565b90565b61010c816100f7565b0361011357565b5f80fd5b9050519061012482610103565b565b6080818303126101675761013c825f8301610117565b9261016461014d8460208501610117565b9361015b8160408601610117565b93606001610117565b90565b6100e8565b61018a6139988038038061017f816100d3565b928339810190610126565b90919293565b90565b6101a76101a26101ac926100ec565b610190565b6100ec565b90565b6101b890610193565b90565b6101c4906101af565b90565b6101d090610193565b90565b6101dc906101c7565b90565b6101e890610193565b90565b6101f4906101df565b90565b61020090610193565b90565b61020c906101f7565b90565b5f1b90565b9061022560018060a01b039161020f565b9181191691161790565b610238906101f7565b90565b90565b9061025361024e61025a9261022f565b61023b565b8254610214565b9055565b6102969261028661029c959361027e61028e94610279610322565b6101bb565b6080526101d3565b60a0526101eb565b60c052610203565b5f61023e565b565b90565b90565b6102b86102b36102bd9261029e565b610190565b6102a1565b90565b6102ca60016102a4565b90565b906102d95f199161020f565b9181191691161790565b6102f76102f26102fc926102a1565b610190565b6102a1565b90565b90565b9061031761031261031e926102e3565b6102ff565b82546102cd565b9055565b61034461032d6102c0565b5f61033e610339610398565b6103ac565b01610302565b565b5f90565b90565b90565b61036461035f6103699261034a565b61020f565b61034d565b90565b6103957f9b779b17422d0df92223018b32b4d1fa46e071723d6817e2486d003becc55f00610350565b90565b6103a0610346565b506103a961036c565b90565b9056fe60806040526004361015610013575b610f35565b61001d5f3561013c565b80630b397f7514610137578063107046bd14610132578063141bd4e01461012d5780631dbde11f1461012857806320913da5146101235780635bb6b4211461011e5780635c7460d6146101195780637f0e5a79146101145780638ed9895c1461010f57806393a397761461010a5780639ae9b90014610105578063ad0deb0f14610100578063c2010e50146100fb578063f0f3f2c8146100f6578063f17010f5146100f1578063f26999cd146100ec578063f326206b146100e75763f8a518ed0361000e57610f00565b610e97565b610e63565b610e2e565b610daf565b610bb0565b610b7d565b610b4a565b610af7565b610a6f565b610947565b6108a1565b610816565b6106b9565b610658565b6104e7565b61041f565b61019d565b60e01c90565b60405190565b5f80fd5b5f80fd5b5f80fd5b90565b61016081610154565b0361016757565b5f80fd5b9050359061017882610157565b565b9060208282031261019357610190915f0161016b565b90565b61014c565b5f0190565b346101cb576101b56101b036600461017a565b61144f565b6101bd610142565b806101c781610198565b0390f35b610148565b90565b6101e76101e26101ec92610154565b6101d0565b610154565b90565b906101f9906101d3565b5f5260205260405f2090565b5f1c90565b90565b61021961021e91610205565b61020a565b90565b61022b905461020d565b90565b60018060a01b031690565b61024561024a91610205565b61022e565b90565b6102579054610239565b90565b60ff1690565b61026c61027191610205565b61025a565b90565b61027e9054610260565b90565b60ff1690565b61029361029891610205565b610281565b90565b6102a59054610287565b90565b6102b39060036101ef565b906102bf5f8301610221565b916102cc6001820161024d565b916102d96002830161024d565b916102e660038201610221565b916102f360048301610221565b9161030060058201610221565b91610319600861031260068501610274565b930161029b565b90565b61032590610154565b9052565b60018060a01b031690565b61033d90610329565b90565b61034990610334565b9052565b634e487b7160e01b5f52602160045260245ffd5b6003111561036b57565b61034d565b9061037a82610361565b565b61038590610370565b90565b6103919061037c565b9052565b151590565b6103a390610395565b9052565b959391989796949290986101008701995f88016103c39161031c565b602087016103d091610340565b604086016103dd91610340565b606085016103ea9161031c565b608084016103f79161031c565b60a083016104049161031c565b60c0820161041191610388565b60e00161041d9161039a565b565b346104595761045561043a61043536600461017a565b6102a8565b9461044c989698949194939293610142565b988998896103a7565b0390f35b610148565b5f91031261046857565b61014c565b7f000000000000000000000000000000000000000000000000000000000000000090565b6104a56104a06104aa92610329565b6101d0565b610329565b90565b6104b690610491565b90565b6104c2906104ad565b90565b6104ce906104b9565b9052565b91906104e5905f602085019401906104c5565b565b34610517576104f736600461045e565b61051361050261046d565b61050a610142565b918291826104d2565b0390f35b610148565b5f80fd5b5f80fd5b601f801991011690565b634e487b7160e01b5f52604160045260245ffd5b9061054c90610524565b810190811067ffffffffffffffff82111761056657604052565b61052e565b9061057e610577610142565b9283610542565b565b67ffffffffffffffff811161059e5761059a602091610524565b0190565b61052e565b90825f939282370152565b909291926105c36105be82610580565b61056b565b938185526020850190828401116105df576105dd926105a3565b565b610520565b9080601f83011215610602578160206105ff933591016105ae565b90565b61051c565b916060838303126106535761061e825f850161016b565b9261062c836020830161016b565b92604082013567ffffffffffffffff811161064e5761064b92016105e4565b90565b610150565b61014c565b346106875761067161066b366004610607565b91611bb5565b610679610142565b8061068381610198565b0390f35b610148565b91906040838203126106b457806106a86106b1925f860161016b565b9360200161016b565b90565b61014c565b346106e8576106d26106cc36600461068c565b9061201a565b6106da610142565b806106e481610198565b0390f35b610148565b6106f681610334565b036106fd57565b5f80fd5b9050359061070e826106ed565b565b5f80fd5b5f80fd5b909182601f830112156107525781359167ffffffffffffffff831161074d57602001926020830284011161074857565b610714565b610710565b61051c565b909182601f830112156107915781359167ffffffffffffffff831161078c57602001926020830284011161078757565b610714565b610710565b61051c565b6060818303126107fc576107ac825f8301610701565b92602082013567ffffffffffffffff81116107f757836107cd918401610718565b929093604082013567ffffffffffffffff81116107f2576107ee9201610757565b9091565b610150565b610150565b61014c565b9190610814905f6020850194019061031c565b565b3461084a5761084661083561082c366004610796565b93929092612731565b61083d610142565b91829182610801565b0390f35b610148565b7f000000000000000000000000000000000000000000000000000000000000000090565b61087c906104ad565b90565b61088890610873565b9052565b919061089f905f6020850194019061087f565b565b346108d1576108b136600461045e565b6108cd6108bc61084f565b6108c4610142565b9182918261088c565b0390f35b610148565b1c90565b60018060a01b031690565b6108f59060086108fa93026108d6565b6108da565b90565b9061090891546108e5565b90565b6109165f5f906108fd565b90565b610922906104ad565b90565b61092e90610919565b9052565b9190610945905f60208501940190610925565b565b346109775761095736600461045e565b61097361096261090b565b61096a610142565b91829182610932565b0390f35b610148565b5190565b60209181520190565b90825f9392825e0152565b6109b36109bc6020936109c1936109aa8161097c565b93848093610980565b95869101610989565b610524565b0190565b6109ce90610154565b9052565b600411156109dc57565b61034d565b906109eb826109d2565b565b6109f6906109e1565b90565b610a02906109ed565b9052565b90610a5490606080610a25608084015f8701518582035f870152610994565b94610a38602082015160208601906109c5565b610a4a604082015160408601906109f9565b01519101906109c5565b90565b610a6c9160208201915f818403910152610a06565b90565b34610aa057610a9c610a8b610a8536600461068c565b906128dc565b610a93610142565b91829182610a57565b0390f35b610148565b7f000000000000000000000000000000000000000000000000000000000000000090565b610ad2906104ad565b90565b610ade90610ac9565b9052565b9190610af5905f60208501940190610ad5565b565b34610b2757610b0736600461045e565b610b23610b12610aa5565b610b1a610142565b91829182610ae2565b0390f35b610148565b90602082820312610b4557610b42915f01610701565b90565b61014c565b34610b7857610b62610b5d366004610b2c565b612908565b610b6a610142565b80610b7481610198565b0390f35b610148565b34610bab57610b95610b9036600461017a565b612d39565b610b9d610142565b80610ba781610198565b0390f35b610148565b34610be057610bdc610bcb610bc636600461017a565b612d44565b610bd3610142565b91829182610801565b0390f35b610148565b610bee90610334565b9052565b610bfb9061037c565b9052565b5190565b60209181520190565b60200190565b90610c6090606080610c31608084015f8701518582035f870152610994565b94610c44602082015160208601906109c5565b610c56604082015160408601906109f9565b01519101906109c5565b90565b90610c6d91610c12565b90565b60200190565b90610c8a610c8383610bff565b8092610c03565b9081610c9b60208302840194610c0c565b925f915b838310610cae57505050505090565b90919293946020610cd0610cca83856001950387528951610c63565b97610c70565b9301930191939290610c9f565b610ce690610395565b9052565b90610d949061010080610d896101208401610d0b5f8801515f8701906109c5565b610d1d60208801516020870190610be5565b610d2f60408801516040870190610be5565b610d41606088015160608701906109c5565b610d53608088015160808701906109c5565b610d6560a088015160a08701906109c5565b610d7760c088015160c0870190610bf2565b60e087015185820360e0870152610c76565b940151910190610cdd565b90565b610dac9160208201915f818403910152610cea565b90565b34610ddf57610ddb610dca610dc536600461017a565b612fa8565b610dd2610142565b91829182610d97565b0390f35b610148565b610df4906008610df993026108d6565b61022e565b90565b90610e079154610de4565b90565b610e1660015f90610dfc565b90565b9190610e2c905f60208501940190610340565b565b34610e5e57610e3e36600461045e565b610e5a610e49610e0a565b610e51610142565b91829182610e19565b0390f35b610148565b34610e9257610e7c610e7636600461068c565b906132ce565b610e84610142565b80610e8e81610198565b0390f35b610148565b34610ec657610eb0610eaa36600461068c565b90613446565b610eb8610142565b80610ec281610198565b0390f35b610148565b610edb906008610ee093026108d6565b61020a565b90565b90610eee9154610ecb565b90565b610efd60025f90610ee3565b90565b34610f3057610f1036600461045e565b610f2c610f1b610ef1565b610f23610142565b91829182610801565b0390f35b610148565b5f80fd5b610f4a90610f4561347e565b6111e6565b610f526134b7565b565b90565b90565b610f6e610f69610f7392610f57565b6101d0565b610154565b90565b6001610f829101610154565b90565b5490565b634e487b7160e01b5f52603260045260245ffd5b5f5260205f2090565b610faf81610f85565b821015610fc957610fc1600491610f9d565b910201905f90565b610f89565b60ff1690565b610fe0610fe591610205565b610fce565b90565b610ff29054610fd4565b90565b634e487b7160e01b5f52601160045260245ffd5b61101861101e91939293610154565b92610154565b820180921161102957565b610ff5565b5f1b90565b9061103f60ff9161102e565b9181191691161790565b61105290610370565b90565b90565b9061106d61106861107492611049565b611055565b8254611033565b9055565b5f80fd5b60e01b90565b61108b81610395565b0361109257565b5f80fd5b905051906110a382611082565b565b906020828203126110be576110bb915f01611096565b90565b61014c565b9160206110e49294936110dd60408201965f830190610340565b019061031c565b565b6110ee610142565b3d5f823e3d90fd5b60209181520190565b5f7f526566756e64206661696c656400000000000000000000000000000000000000910152565b611133600d6020926110f6565b61113c816110ff565b0190565b6111559060208101905f818303910152611126565b90565b1561115f57565b611167610142565b62461bcd60e51b81528061117d60048201611140565b0390fd5b61118a906104ad565b90565b5f7f436c69656e742063616e63656c6c656400000000000000000000000000000000910152565b6111c160106020926110f6565b6111ca8161118d565b0190565b6111e39060208101905f8183039101526111b4565b90565b6111fa6111f5600383906101ef565b610f54565b3361121861121261120d6001850161024d565b610334565b91610334565b036114335761122960068201610274565b61123b6112355f610370565b91610370565b03611417576112495f610f5a565b6112525f610f5a565b5b8061127161126b61126660078701610f85565b610154565b91610154565b10156112e757611291600261128a600786018490610fa6565b5001610fe8565b6112a361129d5f6109e1565b916109e1565b146112b7575b6112b290610f76565b611253565b906112df6112b2916112d960016112d2600788018790610fa6565b5001610221565b90611009565b9190506112a9565b506112f6600260068401611058565b806113096113035f610f5a565b91610154565b1161135d575b50503361134561133f7f7b85b842ce22a6765659f11fecb5608ebfc550368f7367c640b644a27dc98097936101d3565b91611181565b9161134e610142565b80611358816111ce565b0390a3565b6020906113897f0000000000000000000000000000000000000000000000000000000000000000610ac9565b6113b75f61139e600163a9059cbb970161024d565b93956113c26113ab610142565b9788968795869461107c565b8452600484016110c3565b03925af18015611412576113dd915f916113e4575b50611158565b5f8061130f565b611405915060203d811161140b575b6113fd8183610542565b8101906110a5565b5f6113d7565b503d6113f3565b6110e6565b5f637701967760e01b81528061142f60048201610198565b0390fd5b5f630836f21d60e21b81528061144b60048201610198565b0390fd5b61145890610f39565b565b9061146d929161146861347e565b611954565b6114756134b7565b565b611480906104ad565b90565b6040906114ac6114b394969593966114a260608401985f850190610340565b6020830190610340565b019061031c565b565b5f7f546f6b656e207472616e73666572206661696c65640000000000000000000000910152565b6114e960156020926110f6565b6114f2816114b5565b0190565b61150b9060208101905f8183039101526114dc565b90565b1561151557565b61151d610142565b62461bcd60e51b815280611533600482016114f6565b0390fd5b90565b611544608061056b565b90565b52565b9061155490610154565b9052565b90611562906109e1565b9052565b5f5260205f2090565b5490565b61157c8161156f565b8210156115965761158e600491611566565b910201905f90565b610f89565b634e487b7160e01b5f525f60045260245ffd5b5190565b634e487b7160e01b5f52602260045260245ffd5b90600160028304921680156115e6575b60208310146115e157565b6115b2565b91607f16916115d6565b5f5260205f2090565b601f602091010490565b1b90565b9190600861162291029161161c5f1984611603565b92611603565b9181191691161790565b90565b919061164561164061164d936101d3565b61162c565b908354611607565b9055565b5f90565b61166791611661611651565b9161162f565b565b5b818110611675575050565b806116825f600193611655565b0161166a565b9190601f8111611698575b505050565b6116a46116c9936115f0565b9060206116b0846115f9565b830193106116d1575b6116c2906115f9565b0190611669565b5f8080611693565b91506116c2819290506116b9565b906116ef905f19906008026108d6565b191690565b816116fe916116df565b906002021790565b906117108161097c565b9067ffffffffffffffff82116117d0576117348261172e85546115c6565b85611688565b602090601f831160011461176857918091611757935f9261175c575b50506116f4565b90555b565b90915001515f80611750565b601f19831691611777856115f0565b925f5b8181106117b85750916002939185600196941061179e575b5050500201905561175a565b6117ae910151601f8416906116df565b90555f8080611792565b9193602060018192878701518155019501920161177a565b61052e565b906117df91611706565b565b6117eb9051610154565b90565b906117fa5f199161102e565b9181191691161790565b90611819611814611820926101d3565b61162c565b82546117ee565b9055565b61182e90516109e1565b90565b61183a906109e1565b90565b90565b9061185561185061185c92611831565b61183d565b8254611033565b9055565b906118bd606060036118c3946118835f820161187d5f88016115ae565b906117d5565b61189c60018201611896602088016117e1565b90611804565b6118b5600282016118af60408801611824565b90611840565b0192016117e1565b90611804565b565b91906118d6576118d491611860565b565b61159b565b908154916801000000000000000083101561190b578261190391600161190995018155611573565b906118c5565b565b61052e565b90565b61192761192261192c92611910565b6101d0565b610154565b90565b61193e61194491939293610154565b92610154565b820391821161194f57565b610ff5565b611968611963600383906101ef565b610f54565b923361198761198161197c6001880161024d565b610334565b91610334565b03611b995761199860068501610274565b6119aa6119a45f610370565b91610370565b03611b7d57826119c26119bc5f610f5a565b91610154565b14611b61576119f07f0000000000000000000000000000000000000000000000000000000000000000610ac9565b60206323b872dd913390611a205f611a0730611477565b95611a2b8a611a14610142565b9889978896879561107c565b855260048501611483565b03925af1928315611b5c57611aa8611acf93611a54611adf966007955f91611b2e575b5061150e565b611a5f848901611537565b611aa3611a9a89611a955f611a8c5f93611a83611a7a61153a565b995f8b01611547565b6020890161154a565b60408701611558565b610f5a565b6060840161154a565b6118db565b611ac885611ac26004890191611abd83610221565b611009565b90611804565b9401610f85565b611ad96001611913565b9061192f565b9091611b29611b17611b117f99c090ea4e24c09baf74da49bf4100be7de555b972b1e6e4f495989738093d79936101d3565b936101d3565b93611b20610142565b91829182610801565b0390a3565b611b4f915060203d8111611b55575b611b478183610542565b8101906110a5565b5f611a4e565b503d611b3d565b6110e6565b5f63162908e360e11b815280611b7960048201610198565b0390fd5b5f637701967760e01b815280611b9560048201610198565b0390fd5b5f630836f21d60e21b815280611bb160048201610198565b0390fd5b90611bc0929161145a565b565b90611bd491611bcf61347e565b611cd8565b611bdc6134b7565b565b90565b5f7f5061796d656e74206661696c6564000000000000000000000000000000000000910152565b611c15600e6020926110f6565b611c1e81611be1565b0190565b611c379060208101905f818303910152611c08565b90565b15611c4157565b611c49610142565b62461bcd60e51b815280611c5f60048201611c22565b0390fd5b5f910312611c6d57565b61014c565b60031115611c7c57565b61034d565b90611c8b82611c72565b565b611c9690611c81565b90565b611ca290611c8d565b9052565b604090611ccf611cd69496959396611cc560608401985f850190610340565b6020830190611c99565b019061031c565b565b611cec611ce7600383906101ef565b610f54565b9033611d0b611d05611d006001860161024d565b610334565b91610334565b03611ffe57611d1c60068301610274565b611d2e611d285f610370565b91610370565b03611fe257611d4a611d44600784018590610fa6565b50611bde565b91611d5760028401610fe8565b611d6a611d6460016109e1565b916109e1565b03611fc657611d7c6002808501611840565b611da7611d8b60018501610221565b611da16005840191611d9c83610221565b611009565b90611804565b611dd07f0000000000000000000000000000000000000000000000000000000000000000610ac9565b602063a9059cbb91611de46002850161024d565b90611e0d5f611df560018a01610221565b95611e18611e01610142565b9788968795869461107c565b8452600484016110c3565b03925af18015611fc157611e33915f91611f93575b50611c3a565b611e3f60058201610221565b611e5c611e56611e5160048501610221565b610154565b91610154565b14611ebf575b506001611e7191939201610221565b91611eba611ea8611ea27f6e3fd8bb18eed6833ae758e07c361bf145ce27c88bdf6d5029ddabf188d72ca6936101d3565b936101d3565b93611eb1610142565b91829182610801565b0390a3565b90611ece600160068401611058565b611ef77f0000000000000000000000000000000000000000000000000000000000000000610873565b91611f096002636b335311920161024d565b6001938392813b15611f8e575f611f3391611f3e8296611f27610142565b998a978896879561107c565b855260048501611ca6565b03925af1908115611f8957611e7192600192611f5d575b509150611e62565b611f7c905f3d8111611f82575b611f748183610542565b810190611c63565b5f611f55565b503d611f6a565b6110e6565b611078565b611fb4915060203d8111611fba575b611fac8183610542565b8101906110a5565b5f611e2d565b503d611fa2565b6110e6565b5f631ce7df1360e01b815280611fde60048201610198565b0390fd5b5f637701967760e01b815280611ffa60048201610198565b0390fd5b5f630836f21d60e21b81528061201660048201610198565b0390fd5b9061202491611bc2565b565b9061203c959493929161203761347e565b612322565b906120456134b7565b565b5090565b5f7f4e6f206d696c6573746f6e657300000000000000000000000000000000000000910152565b61207f600d6020926110f6565b6120888161204b565b0190565b6120a19060208101905f818303910152612072565b90565b156120ab57565b6120b3610142565b62461bcd60e51b8152806120c96004820161208c565b0390fd5b5090565b5f7f4d69736d61746368656420617272617973000000000000000000000000000000910152565b61210560116020926110f6565b61210e816120d1565b0190565b6121279060208101905f8183039101526120f8565b90565b1561213157565b612139610142565b62461bcd60e51b81528061214f60048201612112565b0390fd5b61215c90610154565b5f19811461216a5760010190565b610ff5565b919081101561217f576020020190565b610f89565b3561218e81610157565b90565b5f7f4d696c6573746f6e6520616d6f756e74206d757374206265203e203000000000910152565b6121c5601c6020926110f6565b6121ce81612191565b0190565b6121e79060208101905f8183039101526121b8565b90565b156121f157565b6121f9610142565b62461bcd60e51b81528061220f600482016121d2565b0390fd5b5f80fd5b5f80fd5b5f80fd5b903590600160200381360303821215612261570180359067ffffffffffffffff821161225c5760200191600182023603831361225757565b61221b565b612217565b612213565b9082101561228157602061227d920281019061221f565b9091565b610f89565b6122919136916105ae565b90565b906122a560018060a01b039161102e565b9181191691161790565b90565b906122c76122c26122ce92611181565b6122af565b8254612294565b9055565b6122de6122e391610205565b6108da565b90565b6122f090546122d2565b90565b6122fc90610395565b90565b90565b9061231761231261231e926122f3565b6122ff565b8254611033565b9055565b9593929094919550612350612338878390612047565b61234a6123445f610f5a565b91610154565b116120a4565b61238061235e878390612047565b61237a61237461236f8787906120cd565b610154565b91610154565b1461212a565b61239261238d6002610221565b612153565b61239d816002611804565b956123b26123ad600389906101ef565b610f54565b946123bc5f610f5a565b976123c65f610f5a565b985b896123e56123df6123da878990612047565b610154565b91610154565b10156124ac576124a06124a6918961249a61248c8b8f61244b8d612495926124428f8f61241a60079261241f9290869161216f565b612184565b9961243c8b6124366124305f610f5a565b91610154565b116121ea565b01611537565b94919091612266565b6124878795929561247e5f9161247561246d5f9661246761153a565b9b612286565b5f8b01611547565b6020890161154a565b60408701611558565b610f5a565b6060840161154a565b6118db565b90611009565b99610f76565b986123c8565b955096959350965050506124df7f0000000000000000000000000000000000000000000000000000000000000000610ac9565b60206323b872dd91339061250f5f6124f630611477565b9561251a89612503610142565b9889978896879561107c565b855260048501611483565b03925af1801561272c57612535915f916126fe575b5061150e565b612541845f8301611804565b61254e33600183016122b2565b61255b83600283016122b2565b6125688260048301611804565b6125755f60068301611058565b6125b5602061258b6125865f6122e6565b610919565b6366c0675e906125aa339261259e610142565b9586948593849361107c565b835260048301610e19565b03915afa80156126f9576125d6915f916126cb575b50916008839101612302565b612638575b82913390919261263261262061261a6126147ff03bc2e49a83d942284cb30e1c2935d4b542e1e1e6456d28b5365ddb110a52a2946101d3565b94611181565b94611181565b94612629610142565b91829182610801565b0390a490565b6126496126445f6122e6565b610919565b63ca2b9c9c338392803b156126c6576126755f8094612680612669610142565b9788968795869461107c565b8452600484016110c3565b03925af180156126c157612695575b506125db565b6126b4905f3d81116126ba575b6126ac8183610542565b810190611c63565b5f61268f565b503d6126a2565b6110e6565b611078565b6126ec915060203d81116126f2575b6126e48183610542565b8101906110a5565b5f6125ca565b503d6126da565b6110e6565b61271f915060203d8111612725575b6127178183610542565b8101906110a5565b5f61252f565b503d61270d565b6110e6565b9061274694939291612741611651565b612026565b90565b612753608061056b565b90565b606090565b5f90565b5f90565b61276b612749565b9060208080808561277a612756565b81520161278561275b565b81520161279061275f565b81520161279b61275b565b81525050565b6127a9612763565b90565b905f92918054906127c66127bf836115c6565b8094610980565b916001811690815f1461281d57506001146127e1575b505050565b6127ee91929394506115f0565b915f925b81841061280557505001905f80806127dc565b600181602092959395548486015201910192906127f2565b92949550505060ff19168252151560200201905f80806127dc565b90612842916127ac565b90565b9061286561285e92612855610142565b93848092612838565b0383610542565b565b906128ce6128c56003612878612749565b9461288f6128875f8301612845565b5f8801611547565b6128a761289e60018301610221565b6020880161154a565b6128bf6128b660028301610fe8565b60408801611558565b01610221565b6060840161154a565b565b6128d990612867565b90565b6129059160076128f96128ff936128f16127a1565b5060036101ef565b01610fa6565b506128d0565b90565b6129139060016122b2565b565b6129269061292161347e565b612a1a565b61292e6134b7565b565b5f7f467265656c616e6365722063616e63656c6c65642070726f6a65637400000000910152565b612964601c6020926110f6565b61296d81612930565b0190565b9493916080916129aa6129bf956129a06129b79461299660a08c01955f8d0190610340565b60208b0190611c99565b604089019061031c565b8681036060880152612957565b94019061039a565b565b5f7f467265656c616e6365722063616e63656c6c6564000000000000000000000000910152565b6129f560146020926110f6565b6129fe816129c1565b0190565b612a179060208101905f8183039101526129e8565b90565b612a2e612a29600383906101ef565b610f54565b33612a4c612a46612a416002850161024d565b610334565b91610334565b03612d1d57612a5d60068201610274565b612a6f612a695f610370565b91610370565b03612d0157612a7d5f610f5a565b612a865f610f5a565b5b80612aa5612a9f612a9a60078701610f85565b610154565b91610154565b1015612b1b57612ac56002612abe600786018490610fa6565b5001610fe8565b612ad7612ad15f6109e1565b916109e1565b14612aeb575b612ae690610f76565b612a87565b90612b13612ae691612b0d6001612b06600788018790610fa6565b5001610221565b90611009565b919050612add565b50612b2a600260068401611058565b80612b3d612b375f610f5a565b91610154565b11612c47575b50612b6d7f0000000000000000000000000000000000000000000000000000000000000000610873565b90612b7f60026368b96b46920161024d565b600292845f823b15612c42575f94612bb58692612baa94612b9e610142565b998a988997889661107c565b865260048601612971565b03925af18015612c3d57612c11575b5033612bf9612bf37f7b85b842ce22a6765659f11fecb5608ebfc550368f7367c640b644a27dc98097936101d3565b91611181565b91612c02610142565b80612c0c81612a02565b0390a3565b612c30905f3d8111612c36575b612c288183610542565b810190611c63565b5f612bc4565b503d612c1e565b6110e6565b611078565b6020612c727f0000000000000000000000000000000000000000000000000000000000000000610ac9565b9163a9059cbb92612ca25f612c896001880161024d565b9395612cad612c96610142565b9788968795869461107c565b8452600484016110c3565b03925af18015612cfc57612cc8915f91612cce575b50611158565b5f612b43565b612cef915060203d8111612cf5575b612ce78183610542565b8101906110a5565b5f612cc2565b503d612cdd565b6110e6565b5f637701967760e01b815280612d1960048201610198565b0390fd5b5f633832386960e11b815280612d3560048201610198565b0390fd5b612d4290612915565b565b6007612d5d612d6392612d55611651565b5060036101ef565b01610f85565b90565b612d7161012061056b565b90565b5f90565b5f90565b606090565b5f90565b612d8d612d66565b90602080808080808080808a612da161275b565b815201612dac612d74565b815201612db7612d74565b815201612dc261275b565b815201612dcd61275b565b815201612dd861275b565b815201612de3612d78565b815201612dee612d7c565b815201612df9612d81565b81525050565b612e07612d85565b90565b90612e1490610334565b9052565b90612e2290610370565b9052565b67ffffffffffffffff8111612e3e5760208091020190565b61052e565b90612e55612e5083612e26565b61056b565b918252565b90612e6482610f85565b612e6d81612e43565b92612e7b6020850191610f9d565b5f915b838310612e8b5750505050565b60046020600192612e9b856128d0565b815201920192019190612e7e565b52565b90612eb690610395565b9052565b90612f9a612f906008612ecb612d66565b94612ee2612eda5f8301610221565b5f880161154a565b612efa612ef16001830161024d565b60208801612e0a565b612f12612f096002830161024d565b60408801612e0a565b612f2a612f2160038301610221565b6060880161154a565b612f42612f3960048301610221565b6080880161154a565b612f5a612f5160058301610221565b60a0880161154a565b612f72612f6960068301610274565b60c08801612e18565b612f8a612f8160078301612e5a565b60e08801612ea9565b0161029b565b6101008401612eac565b565b612fa590612eba565b90565b612fbf612fc491612fb7612dff565b5060036101ef565b612f9c565b90565b90612fd991612fd461347e565b6130a9565b612fe16134b7565b565b612ff7612ff2612ffc92610f57565b6101d0565b610329565b90565b61300890612fe3565b90565b61301490610491565b90565b6130209061300b565b90565b61302c906104ad565b90565b9050519061303c82610157565b565b9060208282031261305757613054915f0161302f565b90565b61014c565b909594926130a7946130966130a09261308c60809661308260a088019c5f89019061031c565b602087019061031c565b6040850190610340565b6060830190610340565b019061031c565b565b6130bd6130b8600383906101ef565b610f54565b336130db6130d56130d06001850161024d565b610334565b91610334565b1415806132a8575b61328c576130f360068201610274565b6131056130ff5f610370565b91610370565b0361327057613114600161024d565b61312e6131286131235f612fff565b610334565b91610334565b1461325557602061314c613146600784018690610fa6565b50611bde565b9161315b600360028501611840565b61317561317061316b600161024d565b613017565b613023565b6131bd5f637adfe4836131c888958a986131a860016131a1600261319a83870161024d565b950161024d565b9201610221565b916131b1610142565b9a8b998a98899761107c565b87526004870161305c565b03925af1801561325057613224575b509061320c6132067ffa71779ecc1dd1ef48196a5af1776f8a748036653ce2b5b310ab5e31b61ca32b936101d3565b916101d3565b91613215610142565b8061321f81610198565b0390a3565b6132449060203d8111613249575b61323c8183610542565b81019061303e565b6131d7565b503d613232565b6110e6565b5f6282b42960e81b81528061326c60048201610198565b0390fd5b5f637701967760e01b81528061328860048201610198565b0390fd5b5f63114230c760e21b8152806132a460048201610198565b0390fd5b50336132c76132c16132bc6002850161024d565b610334565b91610334565b14156130e3565b906132d891612fc7565b565b906132ec916132e761347e565b6132f6565b6132f46134b7565b565b61330a613305600383906101ef565b610f54565b3361332861332261331d6002850161024d565b610334565b91610334565b0361342a5761333960068201610274565b61334b6133455f610370565b91610370565b0361340e57613361600761336792018490610fa6565b50611bde565b61337360028201610fe8565b61338561337f5f6109e1565b916109e1565b036133f2576133a69061339c600160028301611840565b6003429101611804565b906133da6133d47f1b7218c0ac23ea9cbe4df603d2b340fbf469a115b73ea3d11460727f445d6be1936101d3565b916101d3565b916133e3610142565b806133ed81610198565b0390a3565b5f6323a244ef60e11b81528061340a60048201610198565b0390fd5b5f637701967760e01b81528061342660048201610198565b0390fd5b5f633832386960e11b81528061344260048201610198565b0390fd5b90613450916132da565b565b90565b61346961346461346e92613452565b6101d0565b610154565b90565b61347b6002613455565b90565b6134866134db565b6134a8613491613471565b5f6134a261349d613557565b61356b565b01611804565b565b6134b46001611913565b90565b6134d96134c26134aa565b5f6134d36134ce613557565b61356b565b01611804565b565b6134e3613572565b6134e957565b5f633ee5aeb560e01b81528061350160048201610198565b0390fd5b5f90565b90565b90565b61352361351e61352892613509565b61102e565b61350c565b90565b6135547f9b779b17422d0df92223018b32b4d1fa46e071723d6817e2486d003becc55f0061350f565b90565b61355f613505565b5061356861352b565b90565b90565b5f90565b61357a61356e565b506135955f61358f61358a613557565b61356b565b01610221565b6135ae6135a86135a3613471565b610154565b91610154565b149056fea2646970667358221220018a25b6472fcfd6ee7ed15cdd359aa50a1fb2c0ced19e77fd3cfa0cb08541fc64736f6c634300081e0033","linkReferences":{}},"methodIdentifiers":{"STABLECOIN()":"93a39776","addMilestone(uint256,uint256,string)":"1dbde11f","agencyRegistry()":"141bd4e0","approveMilestone(uint256,uint256)":"20913da5","clientCancel(uint256)":"0b397f75","completeMilestone(uint256,uint256)":"f326206b","createDispute(uint256,uint256)":"f26999cd","createProject(address,uint256[],string[])":"5bb6b421","disputeJuryAddress()":"f17010f5","enterpriseAccess()":"7f0e5a79","freelancerCancel(uint256)":"ad0deb0f","getMilestone(uint256,uint256)":"8ed9895c","getMilestoneCount(uint256)":"c2010e50","getProject(uint256)":"f0f3f2c8","projectCounter()":"f8a518ed","projects(uint256)":"107046bd","setDisputeJuryAddress(address)":"9ae9b900","userRegistry()":"5c7460d6"},"id":7}