{"abi":[{"type":"constructor","inputs":[{"name":"_stablecoin","type":"address","internalType":"address"},{"name":"_agencyRegistry","type":"address","internalType":"address"}],"stateMutability":"nonpayable"},{"type":"function","name":"AGENCY_ANNUAL_FEE","inputs":[],"outputs":[{"name":"","type":"uint256","internalType":"uint256"}],"stateMutability":"view"},{"type":"function","name":"AGENCY_MONTHLY_FEE","inputs":[],"outputs":[{"name":"","type":"uint256","internalType":"uint256"}],"stateMutability":"view"},{"type":"function","name":"CLIENT_ANNUAL_FEE","inputs":[],"outputs":[{"name":"","type":"uint256","internalType":"uint256"}],"stateMutability":"view"},{"type":"function","name":"CLIENT_MONTHLY_FEE","inputs":[],"outputs":[{"name":"","type":"uint256","internalType":"uint256"}],"stateMutability":"view"},{"type":"function","name":"addManager","inputs":[{"name":"manager","type":"address","internalType":"address"}],"outputs":[],"stateMutability":"nonpayable"},{"type":"function","name":"adminToSubscription","inputs":[{"name":"","type":"address","internalType":"address"}],"outputs":[{"name":"","type":"uint256","internalType":"uint256"}],"stateMutability":"view"},{"type":"function","name":"agencyRegistry","inputs":[],"outputs":[{"name":"","type":"address","internalType":"contract AgencyRegistry"}],"stateMutability":"view"},{"type":"function","name":"approve","inputs":[{"name":"to","type":"address","internalType":"address"},{"name":"tokenId","type":"uint256","internalType":"uint256"}],"outputs":[],"stateMutability":"nonpayable"},{"type":"function","name":"balanceOf","inputs":[{"name":"owner","type":"address","internalType":"address"}],"outputs":[{"name":"","type":"uint256","internalType":"uint256"}],"stateMutability":"view"},{"type":"function","name":"enterpriseUsers","inputs":[{"name":"","type":"address","internalType":"address"}],"outputs":[{"name":"","type":"bool","internalType":"bool"}],"stateMutability":"view"},{"type":"function","name":"getApproved","inputs":[{"name":"tokenId","type":"uint256","internalType":"uint256"}],"outputs":[{"name":"","type":"address","internalType":"address"}],"stateMutability":"view"},{"type":"function","name":"getManagers","inputs":[{"name":"subscriptionId","type":"uint256","internalType":"uint256"}],"outputs":[{"name":"","type":"address[]","internalType":"address[]"}],"stateMutability":"view"},{"type":"function","name":"getSubscription","inputs":[{"name":"subscriptionId","type":"uint256","internalType":"uint256"}],"outputs":[{"name":"admin","type":"address","internalType":"address"},{"name":"companyName","type":"string","internalType":"string"},{"name":"tier","type":"uint8","internalType":"enum EnterpriseAccess.Tier"},{"name":"status","type":"uint8","internalType":"enum EnterpriseAccess.SubscriptionStatus"},{"name":"startTime","type":"uint256","internalType":"uint256"},{"name":"expiryTime","type":"uint256","internalType":"uint256"},{"name":"managerCount","type":"uint256","internalType":"uint256"}],"stateMutability":"view"},{"type":"function","name":"isAgencySubscriber","inputs":[{"name":"user","type":"address","internalType":"address"}],"outputs":[{"name":"","type":"bool","internalType":"bool"}],"stateMutability":"view"},{"type":"function","name":"isApprovedForAll","inputs":[{"name":"owner","type":"address","internalType":"address"},{"name":"operator","type":"address","internalType":"address"}],"outputs":[{"name":"","type":"bool","internalType":"bool"}],"stateMutability":"view"},{"type":"function","name":"isEnterpriseUser","inputs":[{"name":"user","type":"address","internalType":"address"}],"outputs":[{"name":"","type":"bool","internalType":"bool"}],"stateMutability":"view"},{"type":"function","name":"isSubscriptionActive","inputs":[{"name":"user","type":"address","internalType":"address"}],"outputs":[{"name":"","type":"bool","internalType":"bool"}],"stateMutability":"view"},{"type":"function","name":"name","inputs":[],"outputs":[{"name":"","type":"string","internalType":"string"}],"stateMutability":"view"},{"type":"function","name":"owner","inputs":[],"outputs":[{"name":"","type":"address","internalType":"address"}],"stateMutability":"view"},{"type":"function","name":"ownerOf","inputs":[{"name":"tokenId","type":"uint256","internalType":"uint256"}],"outputs":[{"name":"","type":"address","internalType":"address"}],"stateMutability":"view"},{"type":"function","name":"recordProjectCreated","inputs":[{"name":"user","type":"address","internalType":"address"},{"name":"projectValue","type":"uint256","internalType":"uint256"}],"outputs":[],"stateMutability":"nonpayable"},{"type":"function","name":"removeManager","inputs":[{"name":"manager","type":"address","internalType":"address"}],"outputs":[],"stateMutability":"nonpayable"},{"type":"function","name":"renewSubscription","inputs":[],"outputs":[],"stateMutability":"nonpayable"},{"type":"function","name":"renounceOwnership","inputs":[],"outputs":[],"stateMutability":"nonpayable"},{"type":"function","name":"safeTransferFrom","inputs":[{"name":"from","type":"address","internalType":"address"},{"name":"to","type":"address","internalType":"address"},{"name":"tokenId","type":"uint256","internalType":"uint256"}],"outputs":[],"stateMutability":"nonpayable"},{"type":"function","name":"safeTransferFrom","inputs":[{"name":"from","type":"address","internalType":"address"},{"name":"to","type":"address","internalType":"address"},{"name":"tokenId","type":"uint256","internalType":"uint256"},{"name":"data","type":"bytes","internalType":"bytes"}],"outputs":[],"stateMutability":"nonpayable"},{"type":"function","name":"setApprovalForAll","inputs":[{"name":"operator","type":"address","internalType":"address"},{"name":"approved","type":"bool","internalType":"bool"}],"outputs":[],"stateMutability":"nonpayable"},{"type":"function","name":"stablecoin","inputs":[],"outputs":[{"name":"","type":"address","internalType":"contract IERC20"}],"stateMutability":"view"},{"type":"function","name":"subscribe","inputs":[{"name":"tier","type":"uint8","internalType":"enum EnterpriseAccess.Tier"},{"name":"companyName","type":"string","internalType":"string"}],"outputs":[{"name":"","type":"uint256","internalType":"uint256"}],"stateMutability":"nonpayable"},{"type":"function","name":"subscriptionCounter","inputs":[],"outputs":[{"name":"","type":"uint256","internalType":"uint256"}],"stateMutability":"view"},{"type":"function","name":"subscriptions","inputs":[{"name":"","type":"uint256","internalType":"uint256"}],"outputs":[{"name":"admin","type":"address","internalType":"address"},{"name":"companyName","type":"string","internalType":"string"},{"name":"tier","type":"uint8","internalType":"enum EnterpriseAccess.Tier"},{"name":"status","type":"uint8","internalType":"enum EnterpriseAccess.SubscriptionStatus"},{"name":"startTime","type":"uint256","internalType":"uint256"},{"name":"expiryTime","type":"uint256","internalType":"uint256"}],"stateMutability":"view"},{"type":"function","name":"supportsInterface","inputs":[{"name":"interfaceId","type":"bytes4","internalType":"bytes4"}],"outputs":[{"name":"","type":"bool","internalType":"bool"}],"stateMutability":"view"},{"type":"function","name":"symbol","inputs":[],"outputs":[{"name":"","type":"string","internalType":"string"}],"stateMutability":"view"},{"type":"function","name":"tokenURI","inputs":[{"name":"tokenId","type":"uint256","internalType":"uint256"}],"outputs":[{"name":"","type":"string","internalType":"string"}],"stateMutability":"view"},{"type":"function","name":"transferFrom","inputs":[{"name":"from","type":"address","internalType":"address"},{"name":"to","type":"address","internalType":"address"},{"name":"tokenId","type":"uint256","internalType":"uint256"}],"outputs":[],"stateMutability":"nonpayable"},{"type":"function","name":"transferOwnership","inputs":[{"name":"newOwner","type":"address","internalType":"address"}],"outputs":[],"stateMutability":"nonpayable"},{"type":"function","name":"withdrawFees","inputs":[{"name":"to","type":"address","internalType":"address"}],"outputs":[],"stateMutability":"nonpayable"},{"type":"event","name":"Approval","inputs":[{"name":"owner","type":"address","indexed":true,"internalType":"address"},{"name":"approved","type":"address","indexed":true,"internalType":"address"},{"name":"tokenId","type":"uint256","indexed":true,"internalType":"uint256"}],"anonymous":false},{"type":"event","name":"ApprovalForAll","inputs":[{"name":"owner","type":"address","indexed":true,"internalType":"address"},{"name":"operator","type":"address","indexed":true,"internalType":"address"},{"name":"approved","type":"bool","indexed":false,"internalType":"bool"}],"anonymous":false},{"type":"event","name":"ManagerAdded","inputs":[{"name":"subscriptionId","type":"uint256","indexed":true,"internalType":"uint256"},{"name":"manager","type":"address","indexed":true,"internalType":"address"}],"anonymous":false},{"type":"event","name":"ManagerRemoved","inputs":[{"name":"subscriptionId","type":"uint256","indexed":true,"internalType":"uint256"},{"name":"manager","type":"address","indexed":true,"internalType":"address"}],"anonymous":false},{"type":"event","name":"OwnershipTransferred","inputs":[{"name":"previousOwner","type":"address","indexed":true,"internalType":"address"},{"name":"newOwner","type":"address","indexed":true,"internalType":"address"}],"anonymous":false},{"type":"event","name":"SubscriptionCreated","inputs":[{"name":"subscriptionId","type":"uint256","indexed":true,"internalType":"uint256"},{"name":"admin","type":"address","indexed":true,"internalType":"address"},{"name":"tier","type":"uint8","indexed":false,"internalType":"enum EnterpriseAccess.Tier"}],"anonymous":false},{"type":"event","name":"SubscriptionRenewed","inputs":[{"name":"subscriptionId","type":"uint256","indexed":true,"internalType":"uint256"},{"name":"newExpiry","type":"uint256","indexed":false,"internalType":"uint256"}],"anonymous":false},{"type":"event","name":"Transfer","inputs":[{"name":"from","type":"address","indexed":true,"internalType":"address"},{"name":"to","type":"address","indexed":true,"internalType":"address"},{"name":"tokenId","type":"uint256","indexed":true,"internalType":"uint256"}],"anonymous":false},{"type":"error","name":"AlreadyHasSubscription","inputs":[]},{"type":"error","name":"ERC721IncorrectOwner","inputs":[{"name":"sender","type":"address","internalType":"address"},{"name":"tokenId","type":"uint256","internalType":"uint256"},{"name":"owner","type":"address","internalType":"address"}]},{"type":"error","name":"ERC721InsufficientApproval","inputs":[{"name":"operator","type":"address","internalType":"address"},{"name":"tokenId","type":"uint256","internalType":"uint256"}]},{"type":"error","name":"ERC721InvalidApprover","inputs":[{"name":"approver","type":"address","internalType":"address"}]},{"type":"error","name":"ERC721InvalidOperator","inputs":[{"name":"operator","type":"address","internalType":"address"}]},{"type":"error","name":"ERC721InvalidOwner","inputs":[{"name":"owner","type":"address","internalType":"address"}]},{"type":"error","name":"ERC721InvalidReceiver","inputs":[{"name":"receiver","type":"address","internalType":"address"}]},{"type":"error","name":"ERC721InvalidSender","inputs":[{"name":"sender","type":"address","internalType":"address"}]},{"type":"error","name":"ERC721NonexistentToken","inputs":[{"name":"tokenId","type":"uint256","internalType":"uint256"}]},{"type":"error","name":"InvalidTier","inputs":[]},{"type":"error","name":"ManagerAlreadyExists","inputs":[]},{"type":"error","name":"ManagerNotFound","inputs":[]},{"type":"error","name":"NotAdmin","inputs":[]},{"type":"error","name":"OwnableInvalidOwner","inputs":[{"name":"owner","type":"address","internalType":"address"}]},{"type":"error","name":"OwnableUnauthorizedAccount","inputs":[{"name":"account","type":"address","internalType":"address"}]},{"type":"error","name":"ReentrancyGuardReentrantCall","inputs":[]},{"type":"error","name":"SubscriptionExpired","inputs":[]}],"bytecode":{"object":"0x60c06040523461005e5761001a610014610132565b90610271565b610022610063565b61400d6107a682396080518181816114c50152818161180e0152818161187e0152818161201b0152612542015260a05181610621015261400d90f35b610069565b60405190565b5f80fd5b601f801991011690565b634e487b7160e01b5f52604160045260245ffd5b906100959061006d565b810190811060018060401b038211176100ad57604052565b610077565b906100c56100be610063565b928361008b565b565b5f80fd5b60018060a01b031690565b6100df906100cb565b90565b6100eb816100d6565b036100f257565b5f80fd5b90505190610103826100e2565b565b919060408382031261012d578061012161012a925f86016100f6565b936020016100f6565b90565b6100c7565b6101506147b380380380610145816100b2565b928339810190610105565b9091565b60018060401b0381116101705761016c60209161006d565b0190565b610077565b9061018761018283610154565b6100b2565b918252565b5f7f48756d616e576f726b20456e7465727072697365000000000000000000000000910152565b6101bd6014610175565b906101ca6020830161018c565b565b6101d46101b3565b90565b5f7f4857454e54000000000000000000000000000000000000000000000000000000910152565b6102086005610175565b90610215602083016101d7565b565b61021f6101fe565b90565b90565b61023961023461023e926100cb565b610222565b6100cb565b90565b61024a90610225565b90565b61025690610241565b90565b61026290610225565b90565b61026e90610259565b90565b906102986102a092610293336102856101cc565b61028d610217565b9161032e565b61024d565b608052610265565b60a052565b90565b90565b6102bf6102ba6102c4926102a5565b610222565b6102a8565b90565b6102d160016102ab565b90565b5f1b90565b906102e55f19916102d4565b9181191691161790565b6103036102fe610308926102a8565b610222565b6102a8565b90565b90565b9061032361031e61032a926102ef565b61030b565b82546102d9565b9055565b9061033992916103aa565b61035b6103446102c7565b5f6103556103506106a1565b6106b5565b0161030e565b565b90565b61037461036f6103799261035d565b610222565b6100cb565b90565b61038590610360565b90565b610391906100d6565b9052565b91906103a8905f60208501940190610388565b565b916103b491610638565b806103cf6103c96103c45f61037c565b6100d6565b916100d6565b146103df576103dd90610744565b565b6104026103eb5f61037c565b5f918291631e4fbdf760e01b835260048301610395565b0390fd5b5190565b634e487b7160e01b5f52602260045260245ffd5b906001600283049216801561043e575b602083101461043957565b61040a565b91607f169161042e565b5f5260205f2090565b601f602091010490565b1b90565b9190600861047a9102916104745f198461045b565b9261045b565b9181191691161790565b919061049a6104956104a2936102ef565b61030b565b90835461045f565b9055565b5f90565b6104bc916104b66104a6565b91610484565b565b5b8181106104ca575050565b806104d75f6001936104aa565b016104bf565b9190601f81116104ed575b505050565b6104f961051e93610448565b90602061050584610451565b83019310610526575b61051790610451565b01906104be565b5f80806104e8565b91506105178192905061050e565b1c90565b90610548905f1990600802610534565b191690565b8161055791610538565b906002021790565b9061056981610406565b9060018060401b0382116106275761058b82610585855461041e565b856104dd565b602090601f83116001146105bf579180916105ae935f926105b3575b505061054d565b90555b565b90915001515f806105a7565b601f198316916105ce85610448565b925f5b81811061060f575091600293918560019694106105f5575b505050020190556105b1565b610605910151601f841690610538565b90555f80806105e9565b919360206001819287870151815501950192016105d1565b610077565b906106369161055f565b565b9061064661064d925f61062c565b600161062c565b565b5f90565b90565b90565b61066d61066861067292610653565b6102d4565b610656565b90565b61069e7f9b779b17422d0df92223018b32b4d1fa46e071723d6817e2486d003becc55f00610659565b90565b6106a961064f565b506106b2610675565b90565b90565b5f1c90565b60018060a01b031690565b6106d46106d9916106b8565b6106bd565b90565b6106e690546106c8565b90565b906106fa60018060a01b03916102d4565b9181191691161790565b61070d90610225565b90565b61071990610704565b90565b90565b9061073461072f61073b92610710565b61071c565b82546106e9565b9055565b5f0190565b61074e60066106dc565b61075982600661071f565b9061078d6107877f8be0079c531659141344cd1fd0a4f28419497f9722a3daafe3b4186f6b6457e093610710565b91610710565b91610796610063565b806107a08161073f565b0390a356fe60806040526004361015610013575b61157d565b61001d5f3561026c565b806301ffc9a71461026757806306fdde0314610262578063081812fc1461025d578063095ea7b3146102585780630fa085ea14610253578063141bd4e01461024e5780631440132914610249578063164e68de1461024457806323b872dd1461023f5780632b08dd971461023a5780632ce137f8146102355780632d06177a146102305780632d5bbf601461022b57806342842e0e14610226578063476a8d43146102215780636352211e1461021c57806366c0675e146102175780636e3079811461021257806370a082311461020d578063715018a6146102085780637f7d0077146102035780638a365256146101fe5780638da5cb5b146101f95780638fd32f43146101f4578063903a8298146101ef57806395d89b41146101ea578063a22cb465146101e5578063ac18de43146101e0578063b660df6a146101db578063b88d4fde146101d6578063c87b56dd146101d1578063ca2b9c9c146101cc578063dc311dd3146101c7578063e3be9da0146101c2578063e985e9c5146101bd578063e9cbd822146101b85763f2fde38b0361000e5761154a565b611515565b61148d565b61142b565b611350565b6112af565b61127a565b611243565b61110f565b6110a2565b61106e565b610fe9565b610fb4565b610f6f565b610e8c565b610e57565b610de7565b610d7a565b610d45565b610d12565b610cdd565b610ca8565b610c73565b610c3f565b610c03565b61087b565b610846565b6107d7565b610748565b6106db565b6106a6565b610671565b6105ea565b6104e3565b610459565b6103a7565b6102f8565b60e01c90565b60405190565b5f80fd5b5f80fd5b5f80fd5b63ffffffff60e01b1690565b61029981610284565b036102a057565b5f80fd5b905035906102b182610290565b565b906020828203126102cc576102c9915f016102a4565b90565b61027c565b151590565b6102df906102d1565b9052565b91906102f6905f602085019401906102d6565b565b346103285761032461031361030e3660046102b3565b611585565b61031b610272565b918291826102e3565b0390f35b610278565b5f91031261033757565b61027c565b5190565b60209181520190565b90825f9392825e0152565b601f801991011690565b61037d61038660209361038b936103748161033c565b93848093610340565b95869101610349565b610354565b0190565b6103a49160208201915f81840391015261035e565b90565b346103d7576103b736600461032d565b6103d36103c26115fe565b6103ca610272565b9182918261038f565b0390f35b610278565b90565b6103e8816103dc565b036103ef57565b5f80fd5b90503590610400826103df565b565b9060208282031261041b57610418915f016103f3565b90565b61027c565b60018060a01b031690565b61043490610420565b90565b6104409061042b565b9052565b9190610457905f60208501940190610437565b565b346104895761048561047461046f366004610402565b611617565b61047c610272565b91829182610444565b0390f35b610278565b6104978161042b565b0361049e57565b5f80fd5b905035906104af8261048e565b565b91906040838203126104d957806104cd6104d6925f86016104a2565b936020016103f3565b90565b61027c565b5f0190565b34610512576104fc6104f63660046104b1565b90611636565b610504610272565b8061050e816104de565b0390f35b610278565b906020828203126105305761052d915f016104a2565b90565b61027c565b90565b61054c61054761055192610420565b610535565b610420565b90565b61055d90610538565b90565b61056990610554565b90565b9061057690610560565b5f5260205260405f2090565b1c90565b90565b61059990600861059e9302610582565b610586565b90565b906105ac9154610589565b90565b6105c5906105c06009915f9261056c565b6105a1565b90565b6105d1906103dc565b9052565b91906105e8905f602085019401906105c8565b565b3461061a57610616610605610600366004610517565b6105af565b61060d610272565b918291826105d5565b0390f35b610278565b7f000000000000000000000000000000000000000000000000000000000000000090565b61064c90610554565b90565b61065890610643565b9052565b919061066f905f6020850194019061064f565b565b346106a15761068136600461032d565b61069d61068c61061f565b610694610272565b9182918261065c565b0390f35b610278565b346106d6576106d26106c16106bc366004610517565b61166b565b6106c9610272565b918291826102e3565b0390f35b610278565b34610709576106f36106ee366004610517565b611952565b6106fb610272565b80610705816104de565b0390f35b610278565b909160608284031261074357610740610729845f85016104a2565b9361073781602086016104a2565b936040016103f3565b90565b61027c565b346107775761076161075b36600461070e565b916119b7565b610769610272565b80610773816104de565b0390f35b610278565b9061078690610560565b5f5260205260405f2090565b60ff1690565b6107a89060086107ad9302610582565b610792565b90565b906107bb9154610798565b90565b6107d4906107cf600a915f9261077c565b6107b0565b90565b34610807576108036107f26107ed366004610517565b6107be565b6107fa610272565b918291826102e3565b0390f35b610278565b90565b61082361081e6108289261080c565b610535565b6103dc565b90565b610838633b9aca0061080f565b90565b61084361082b565b90565b346108765761085636600461032d565b61087261086161083b565b610869610272565b918291826105d5565b0390f35b610278565b346108a95761089361088e366004610517565b611b94565b61089b610272565b806108a5816104de565b0390f35b610278565b6108c26108bd6108c7926103dc565b610535565b6103dc565b90565b906108d4906108ae565b5f5260205260405f2090565b5f1c90565b60018060a01b031690565b6108fc610901916108e0565b6108e5565b90565b61090e90546108f0565b90565b634e487b7160e01b5f52602260045260245ffd5b9060016002830492168015610945575b602083101461094057565b610911565b91607f1691610935565b60209181520190565b5f5260205f2090565b905f929180549061097b61097483610925565b809461094f565b916001811690815f146109d25750600114610996575b505050565b6109a39192939450610958565b915f925b8184106109ba57505001905f8080610991565b600181602092959395548486015201910192906109a7565b92949550505060ff19168252151560200201905f8080610991565b906109f791610961565b90565b634e487b7160e01b5f52604160045260245ffd5b90610a1890610354565b810190811067ffffffffffffffff821117610a3257604052565b6109fa565b90610a57610a5092610a47610272565b938480926109ed565b0383610a0e565b565b60ff1690565b610a6b610a70916108e0565b610a59565b90565b610a7d9054610a5f565b90565b60081c90565b60ff1690565b610a98610a9d91610a80565b610a86565b90565b610aaa9054610a8c565b90565b610ab9610abe916108e0565b610586565b90565b610acb9054610aad565b90565b610ad99060086108ca565b90610ae55f8301610904565b91610af260018201610a37565b91610aff60028301610a73565b91610b0c60028201610aa0565b91610b256004610b1e60038501610ac1565b9301610ac1565b90565b634e487b7160e01b5f52602160045260245ffd5b60051115610b4657565b610b28565b90610b5582610b3c565b565b610b6090610b4b565b90565b610b6c90610b57565b9052565b60041115610b7a57565b610b28565b90610b8982610b70565b565b610b9490610b7f565b90565b610ba090610b8b565b9052565b9194610bf060a094989795610be6610bdb610bfa95610c019a610bce60c08a01925f8b0190610437565b88820360208a015261035e565b9a6040870190610b63565b6060850190610b97565b60808301906105c8565b01906105c8565b565b34610c3a57610c36610c1e610c19366004610402565b610ace565b92610c2d969496929192610272565b96879687610ba4565b0390f35b610278565b34610c6e57610c58610c5236600461070e565b91611d47565b610c60610272565b80610c6a816104de565b0390f35b610278565b34610ca357610c9f610c8e610c89366004610517565b611d5d565b610c96610272565b918291826102e3565b0390f35b610278565b34610cd857610cd4610cc3610cbe366004610402565b611de9565b610ccb610272565b91829182610444565b0390f35b610278565b34610d0d57610d09610cf8610cf3366004610517565b611dfe565b610d00610272565b918291826102e3565b0390f35b610278565b34610d4057610d2236600461032d565b610d2a61218b565b610d32610272565b80610d3c816104de565b0390f35b610278565b34610d7557610d71610d60610d5b366004610517565b612199565b610d68610272565b918291826105d5565b0390f35b610278565b34610da857610d8a36600461032d565b610d92612224565b610d9a610272565b80610da4816104de565b0390f35b610278565b90565b610dc4610dbf610dc992610dad565b610535565b6103dc565b90565b610dd96305f5e100610db0565b90565b610de4610dcc565b90565b34610e1757610df736600461032d565b610e13610e02610ddc565b610e0a610272565b918291826105d5565b0390f35b610278565b90565b610e33610e2e610e3892610e1c565b610535565b6103dc565b90565b610e4964012a05f200610e1f565b90565b610e54610e3b565b90565b34610e8757610e6736600461032d565b610e83610e72610e4c565b610e7a610272565b918291826105d5565b0390f35b610278565b34610ebc57610e9c36600461032d565b610eb8610ea761222e565b610eaf610272565b91829182610444565b0390f35b610278565b60051115610ecb57565b5f80fd5b90503590610edc82610ec1565b565b5f80fd5b5f80fd5b5f80fd5b909182601f83011215610f245781359167ffffffffffffffff8311610f1f576020019260018302840111610f1a57565b610ee6565b610ee2565b610ede565b919091604081840312610f6a57610f42835f8301610ecf565b92602082013567ffffffffffffffff8111610f6557610f619201610eea565b9091565b610280565b61027c565b34610fa057610f9c610f8b610f85366004610f29565b91612736565b610f93610272565b918291826105d5565b0390f35b610278565b610fb160075f906105a1565b90565b34610fe457610fc436600461032d565b610fe0610fcf610fa5565b610fd7610272565b918291826105d5565b0390f35b610278565b3461101957610ff936600461032d565b61101561100461274c565b61100c610272565b9182918261038f565b0390f35b610278565b611027816102d1565b0361102e57565b5f80fd5b9050359061103f8261101e565b565b9190604083820312611069578061105d611066925f86016104a2565b93602001611032565b90565b61027c565b3461109d57611087611081366004611041565b90612762565b61108f610272565b80611099816104de565b0390f35b610278565b346110d0576110ba6110b5366004610517565b61287d565b6110c2610272565b806110cc816104de565b0390f35b610278565b90565b6110ec6110e76110f1926110d5565b610535565b6103dc565b90565b611101631dcd65006110d8565b90565b61110c6110f4565b90565b3461113f5761111f36600461032d565b61113b61112a611104565b611132610272565b918291826105d5565b0390f35b610278565b5f80fd5b9061115b611154610272565b9283610a0e565b565b67ffffffffffffffff811161117b57611177602091610354565b0190565b6109fa565b90825f939282370152565b909291926111a061119b8261115d565b611148565b938185526020850190828401116111bc576111ba92611180565b565b611144565b9080601f830112156111df578160206111dc9335910161118b565b90565b610ede565b9060808282031261123e576111fb815f84016104a2565b9261120982602085016104a2565b9261121783604083016103f3565b92606082013567ffffffffffffffff81116112395761123692016111c1565b90565b610280565b61027c565b346112755761125f6112563660046111e4565b92919091612a65565b611267610272565b80611271816104de565b0390f35b610278565b346112aa576112a6611295611290366004610402565b612b0f565b61129d610272565b9182918261038f565b0390f35b610278565b346112de576112c86112c23660046104b1565b90612c00565b6112d0610272565b806112da816104de565b0390f35b610278565b9297969461133d9061133360c09661132961131e61134e9b966113479861131160e08c01925f8d0190610437565b8a820360208c015261035e565b9c6040890190610b63565b6060870190610b97565b60808501906105c8565b60a08301906105c8565b01906105c8565b565b346113875761138361136b611366366004610402565b612c27565b9361137a979597939193610272565b978897886112e3565b0390f35b610278565b5190565b60209181520190565b60200190565b6113a89061042b565b9052565b906113b98160209361139f565b0190565b60200190565b906113e06113da6113d38461138c565b8093611390565b92611399565b905f5b8181106113f05750505090565b90919261140961140360019286516113ac565b946113bd565b91019190916113e3565b6114289160208201915f8184039101526113c3565b90565b3461145b57611457611446611441366004610402565b612d8d565b61144e610272565b91829182611413565b0390f35b610278565b9190604083820312611488578061147c611485925f86016104a2565b936020016104a2565b90565b61027c565b346114be576114ba6114a96114a3366004611460565b90612dc5565b6114b1610272565b918291826102e3565b0390f35b610278565b7f000000000000000000000000000000000000000000000000000000000000000090565b6114f090610554565b90565b6114fc906114e7565b9052565b9190611513905f602085019401906114f3565b565b346115455761152536600461032d565b6115416115306114c3565b611538610272565b91829182611500565b0390f35b610278565b346115785761156261155d366004610517565b612e52565b61156a610272565b80611574816104de565b0390f35b610278565b5f80fd5b5f90565b61158d611581565b50806115a86115a26380ac58cd60e01b610284565b91610284565b1480156115cc575b9081156115bc575b5090565b6115c69150612e5d565b5f6115b8565b50806115e76115e1635b5e139f60e01b610284565b91610284565b146115b0565b606090565b6115fb90610a37565b90565b6116066115ed565b506116105f6115f2565b90565b5f90565b61163390611623611613565b5061162d81612e83565b50612eef565b90565b9061164a9190611644612f0e565b91612f1b565b565b90565b61166361165e6116689261164c565b610535565b6103dc565b90565b6116826116879161167a611581565b50600961056c565b610ac1565b8061169a6116945f61164f565b916103dc565b146116cb5760046116af6116b59260086108ca565b01610ac1565b6116c76116c1426103dc565b916103dc565b1190565b505f90565b6116e1906116dc612f2b565b611804565b565b6116ec90610554565b90565b60e01b90565b90505190611702826103df565b565b9060208282031261171d5761171a915f016116f5565b90565b61027c565b61172a610272565b3d5f823e3d90fd5b9050519061173f8261101e565b565b9060208282031261175a57611757915f01611732565b90565b61027c565b91602061178092949361177960408201965f830190610437565b01906105c8565b565b5f7f5769746864726177616c206661696c6564000000000000000000000000000000910152565b6117b66011602092610340565b6117bf81611782565b0190565b6117d89060208101905f8183039101526117a9565b90565b156117e257565b6117ea610272565b62461bcd60e51b815280611800600482016117c3565b0390fd5b61186460206118327f00000000000000000000000000000000000000000000000000000000000000006114e7565b6370a0823190611859611844306116e3565b9261184d610272565b958694859384936116ef565b835260048301610444565b03915afa801561194d576020915f91611920575b506118a27f00000000000000000000000000000000000000000000000000000000000000006114e7565b6118c55f63a9059cbb9593956118d06118b9610272565b978896879586946116ef565b84526004840161175f565b03925af1801561191b576118eb915f916118ed575b506117db565b565b61190e915060203d8111611914575b6119068183610a0e565b810190611741565b5f6118e5565b503d6118fc565b611722565b6119409150823d8111611946575b6119388183610a0e565b810190611704565b5f611878565b503d61192e565b611722565b61195b906116d0565b565b61197161196c6119769261164c565b610535565b610420565b90565b6119829061195d565b90565b6040906119ae6119b594969593966119a460608401985f850190610437565b60208301906105c8565b0190610437565b565b9190806119d46119ce6119c95f611979565b61042b565b9161042b565b14611a2b576119ec90826119e6612f0e565b91612f95565b9182611a006119fa8361042b565b9161042b565b03611a0a57505050565b611a279091925f9384936364283d7b60e01b855260048501611985565b0390fd5b611a4e611a375f611979565b5f918291633250574960e11b835260048301610444565b0390fd5b90565b611a61611a66916108e0565b610792565b90565b611a739054611a55565b90565b90565b5f5260205f2090565b634e487b7160e01b5f52603260045260245ffd5b5490565b611aa381611a96565b821015611abd57611ab5600191611a79565b910201905f90565b611a82565b1b90565b91906008611ae6910291611ae060018060a01b0384611ac2565b92611ac2565b9181191691161790565b90565b9190611b09611b04611b1193610560565b611af0565b908354611ac6565b9055565b9081549168010000000000000000831015611b455782611b3d916001611b4395018155611a9a565b90611af3565b565b6109fa565b5f1b90565b90611b5b60ff91611b4a565b9181191691161790565b611b6e906102d1565b90565b90565b90611b89611b84611b9092611b65565b611b71565b8254611b4f565b9055565b611ba8611ba36009339061056c565b610ac1565b80611bbb611bb55f61164f565b916103dc565b14611cda57611bd4611bcf600883906108ca565b611a52565b611be060028201610aa0565b611bf2611bec5f610b7f565b91610b7f565b03611cbe57611c0d611c0860068301859061077c565b611a69565b611ca25780611c2b611c246005611c409401611a76565b8590611b15565b611c3b600660019201859061077c565b611b74565b611c566001611c51600a859061077c565b611b74565b90611c8a611c847f4ac17ddaaaaa8696605bc54646eaddba6bdd91646bda08f6f11da6dd2a4812b3936108ae565b91610560565b91611c93610272565b80611c9d816104de565b0390a3565b5f636c0b3b8160e11b815280611cba600482016104de565b0390fd5b5f63893dcecf60e01b815280611cd6600482016104de565b0390fd5b5f637bfa4b9f60e01b815280611cf2600482016104de565b0390fd5b67ffffffffffffffff8111611d1457611d10602091610354565b0190565b6109fa565b90611d2b611d2683611cf6565b611148565b918252565b611d395f611d19565b90565b611d44611d30565b90565b91611d5b9291611d55611d3c565b92612a65565b565b611d74611d7991611d6c611581565b50600961056c565b610ac1565b80611d8c611d865f61164f565b916103dc565b14611de4576002611da1611da79260086108ca565b01610a73565b80611dbb611db56003610b4b565b91610b4b565b14908115611dc8575b5090565b9050611ddd611dd76004610b4b565b91610b4b565b145f611dc4565b505f90565b611dfb90611df5611613565b50612e83565b90565b611e15611e1a91611e0d611581565b50600a61077c565b611a69565b90565b611e25613142565b611e2d611fa9565b611e3561317b565b565b604090611e60611e679496959396611e5660608401985f850190610437565b6020830190610437565b01906105c8565b565b5f7f5061796d656e74206661696c6564000000000000000000000000000000000000910152565b611e9d600e602092610340565b611ea681611e69565b0190565b611ebf9060208101905f818303910152611e90565b90565b15611ec957565b611ed1610272565b62461bcd60e51b815280611ee760048201611eaa565b0390fd5b634e487b7160e01b5f52601160045260245ffd5b611f0e611f14919392936103dc565b926103dc565b8201809211611f1f57565b611eeb565b90611f305f1991611b4a565b9181191691161790565b90565b90611f52611f4d611f59926108ae565b611f3a565b8254611f24565b9055565b60081b90565b90611f7061ff0091611f5d565b9181191691161790565b611f8390610b7f565b90565b90565b90611f9e611f99611fa592611f7a565b611f86565b8254611f63565b9055565b611fbd611fb86009339061056c565b610ac1565b80611fd0611fca5f61164f565b916103dc565b1461216f57611fe9611fe4600883906108ca565b611a52565b90611ffe611ff960028401610a73565b61319f565b9061201361200e60028501610a73565b613284565b90602061203f7f00000000000000000000000000000000000000000000000000000000000000006114e7565b6323b872dd9061206c5f3393612077612057306116e3565b99612060610272565b9a8b97889687956116ef565b855260048501611e37565b03925af192831561216a576120d56004936120a06120f1966120dd945f9161213c575b50611ec2565b6120ab858801610ac1565b6120bd6120b7426103dc565b916103dc565b115f14612136576120cf858801610ac1565b5b611eff565b838601611f3d565b6120ea5f60028601611f89565b9201610ac1565b9061213161211f7f328f4610a15d0e6c197e13cb1b184720c7e4e7dcf6e07423b7625da3128358b1926108ae565b92612128610272565b918291826105d5565b0390a2565b426120d0565b61215d915060203d8111612163575b6121558183610a0e565b810190611741565b5f61209a565b503d61214b565b611722565b5f637bfa4b9f60e01b815280612187600482016104de565b0390fd5b612193611e1d565b565b5f90565b6121a1612195565b50806121bd6121b76121b25f611979565b61042b565b9161042b565b146121d8576121d06121d591600361056c565b610ac1565b90565b6121fb6121e45f611979565b5f9182916322718ad960e21b835260048301610444565b0390fd5b612207612f2b565b61220f612211565b565b61222261221d5f611979565b61333d565b565b61222c6121ff565b565b612236611613565b506122416006610904565b90565b90612258939291612253613142565b6124e0565b9061226161317b565b565b61226c906103dc565b5f19811461227a5760010190565b611eeb565b9061229060018060a01b0391611b4a565b9181191691161790565b906122af6122aa6122b692610560565b611af0565b825461227f565b9055565b5090565b601f602091010490565b919060086122e39102916122dd5f1984611ac2565b92611ac2565b9181191691161790565b91906123036122fe61230b936108ae565b611f3a565b9083546122c8565b9055565b6123219161231b612195565b916122ed565b565b5b81811061232f575050565b8061233c5f60019361230f565b01612324565b9190601f8111612352575b505050565b61235e61238393610958565b90602061236a846122be565b8301931061238b575b61237c906122be565b0190612323565b5f808061234d565b915061237c81929050612373565b906123a9905f1990600802610582565b191690565b816123b891612399565b906002021790565b916123cb90826122ba565b9067ffffffffffffffff821161248a576123ef826123e98554610925565b85612342565b5f90601f831160011461242257918091612411935f92612416575b50506123ae565b90555b565b90915001355f8061240a565b601f1983169161243185610958565b925f5b81811061247257509160029391856001969410612458575b50505002019055612414565b612468910135601f841690612399565b90555f808061244c565b91936020600181928787013581550195019201612434565b6109fa565b9061249a92916123c0565b565b6124a590610b4b565b90565b90565b906124c06124bb6124c79261249c565b6124a8565b8254611b4f565b9055565b91906124de905f60208501940190610b63565b565b919091506124f86124f36009339061056c565b610ac1565b61250a6125045f61164f565b916103dc565b0361271a576125188261319f565b9061252283613284565b91806125366125305f61164f565b916103dc565b146126fe5760206125667f00000000000000000000000000000000000000000000000000000000000000006114e7565b6323b872dd906125935f339361259e61257e306116e3565b97612587610272565b988997889687956116ef565b855260048501611e37565b03925af180156126f95761264d936125c3612646926004945f916126cb575b50611ec2565b6126196125d86125d36007610ac1565b612263565b6125e3816007611f3d565b976125ef338a9061339e565b6126036125fe60088b906108ca565b611a52565b95612610335f890161229a565b6001870161248f565b61262686600286016124ab565b6126335f60028601611f89565b6126404260038601611f3d565b42611eff565b9101611f3d565b6126628261265d6009339061056c565b611f3d565b6126786001612673600a339061077c565b611b74565b81903390916126c56126b36126ad7ff90a2f2ee288427baeb4aa88768a971bcd66b5fbadef57c2ee7534aeeb5d7dba936108ae565b93610560565b936126bc610272565b918291826124cb565b0390a390565b6126ec915060203d81116126f2575b6126e48183610a0e565b810190611741565b5f6125bd565b503d6126da565b611722565b5f63e142361760e01b815280612716600482016104de565b0390fd5b5f630c0168d760e01b815280612732600482016104de565b0390fd5b906127499291612744612195565b612244565b90565b6127546115ed565b5061275f60016115f2565b90565b6127769161276e612f0e565b9190916133b4565b565b600161278491016103dc565b90565b5490565b5f5260205f2090565b61279d81612787565b8210156127b7576127af60019161278b565b910201905f90565b611a82565b6127cc9060086127d19302610582565b6108e5565b90565b906127df91546127bc565b90565b90565b6127f96127f46127fe926127e2565b610535565b6103dc565b90565b612810612816919392936103dc565b926103dc565b820391821161282157565b611eeb565b634e487b7160e01b5f52603160045260245ffd5b61284c91612846611613565b91611af3565b565b61285781611a96565b801561287857600190039061287561286f8383611a9a565b9061283a565b55565b612826565b61289161288c6009339061056c565b610ac1565b90816128a561289f5f61164f565b916103dc565b14612a49576128be6128b9600884906108ca565b611a52565b916128de6128d86128d360068601859061077c565b611a69565b156102d1565b612a2d576128f95f6128f460068601859061077c565b611b74565b61290e5f612909600a859061077c565b611b74565b6129175f61164f565b5b8061293661293061292b60058801612787565b6103dc565b916103dc565b1015612a245761295361294d600586018390612794565b906127d4565b61296561295f8561042b565b9161042b565b146129785761297390612778565b612918565b6005846129cc6129d2936129c66129bd6129b7866129d7999a9b016129b16129a1898901612787565b6129ab60016127e5565b90612801565b90612794565b906127d4565b91858501612794565b90611af3565b01611a76565b61284e565b5b90612a0c612a067f34b9c93db94a7145dadac0eb3b84f734a325fe8cdb7988b2e560739125bf0ddb936108ae565b91610560565b91612a15610272565b80612a1f816104de565b0390a3565b509091506129d8565b5f6322a5e34b60e01b815280612a45600482016104de565b0390fd5b5f637bfa4b9f60e01b815280612a61600482016104de565b0390fd5b91612a899391612a77848284916119b7565b612a7f612f0e565b9390919293613578565b565b90565b5190565b612a9a611d30565b90565b905090565b612ac7612abe92602092612ab58161033c565b94858093612a9d565b93849101610349565b0190565b612ad990612adf9392612aa2565b90612aa2565b90565b612b019291612b0d91612af3610272565b948592602084019283612acb565b90810382520383610a0e565b565b612b176115ed565b50612b2181612e83565b50612b2a6136cc565b90612b3c612b3783612a8b565b612a8e565b612b4e612b485f61164f565b916103dc565b115f14612b6c57612b62612b689291613770565b90612ae2565b5b90565b5050612b76612a92565b612b69565b90565b5f7f4e6f7420656e7465727072697365207573657200000000000000000000000000910152565b612bb26013602092610340565b612bbb81612b7e565b0190565b612bd49060208101905f818303910152612ba5565b90565b15612bde57565b612be6610272565b62461bcd60e51b815280612bfc60048201612bbf565b0390fd5b612c1d9150612c13612c1891600a61077c565b611a69565b612bd7565b565b5f90565b5f90565b612c74612c7991612c36611613565b50612c3f6115ed565b50612c48612c1f565b50612c51612c23565b50612c5a612195565b50612c63612195565b50612c6c612195565b5060086108ca565b611a52565b612c845f8201610904565b6001820192612c9560028401610a73565b92612ca260028201610aa0565b92612caf60038301610ac1565b92612cd2612ccb6005612cc460048701610ac1565b9501612787565b92976115f2565b959493929190565b606090565b60209181520190565b612cf290546108f0565b90565b60010190565b90612d18612d12612d0b84612787565b8093612cdf565b9261278b565b905f5b818110612d285750505090565b909192612d48612d42600192612d3d87612ce8565b6113ac565b94612cf5565b9101919091612d1b565b90612d5c91612cfb565b90565b90612d7f612d7892612d6f610272565b93848092612d52565b0383610a0e565b565b612d8a90612d5f565b90565b6005612da6612dac92612d9e612cda565b5060086108ca565b01612d81565b90565b90612db990610560565b5f5260205260405f2090565b612dea91612de0612de592612dd8611581565b506005612daf565b61077c565b611a69565b90565b612dfe90612df9612f2b565b612e00565b565b80612e1b612e15612e105f611979565b61042b565b9161042b565b14612e2b57612e299061333d565b565b612e4e612e375f611979565b5f918291631e4fbdf760e01b835260048301610444565b0390fd5b612e5b90612ded565b565b612e65611581565b50612e7f612e796301ffc9a760e01b610284565b91610284565b1490565b612e8b611613565b50612e9581613819565b9081612eb1612eab612ea65f611979565b61042b565b9161042b565b14612eba575090565b612ed5905f918291637e27328960e01b8352600483016105d5565b0390fd5b90612ee3906108ae565b5f5260205260405f2090565b612f06612f0b91612efe611613565b506004612ed9565b610904565b90565b612f16611613565b503390565b91612f299291600192613838565b565b612f3361222e565b612f4c612f46612f41612f0e565b61042b565b9161042b565b03612f5357565b612f75612f5e612f0e565b5f91829163118cdaa760e01b835260048301610444565b0390fd5b90612f8491036103dc565b90565b90612f9291016103dc565b90565b90612f9e611613565b50612fa881613819565b9280612fc4612fbe612fb95f611979565b61042b565b9161042b565b03613103575b5082612fe6612fe0612fdb5f611979565b61042b565b9161042b565b036130af575b81613007613001612ffc5f611979565b61042b565b9161042b565b03613079575b6130228261301d60028490612ed9565b61229a565b829161306061305a6130547fddf252ad1be2c89b69c2b068fc378daa952ba7f163c4a11628f55a4df523b3ef95610560565b92610560565b926108ae565b92613069610272565b80613073816104de565b0390a490565b6130aa61308660016127e5565b6130a46130956003869061056c565b9161309f83610ac1565b612f87565b90611f3d565b61300d565b6130cd6130bb5f611979565b826130c55f611979565b905f92613838565b6130fe6130da60016127e5565b6130f86130e96003879061056c565b916130f383610ac1565b612f79565b90611f3d565b612fec565b6131109084908391613982565b5f612fca565b90565b61312d61312861313292613116565b610535565b6103dc565b90565b61313f6002613119565b90565b61314a6139fe565b61316c613155613135565b5f613166613161613a77565b613a8b565b01611f3d565b565b61317860016127e5565b90565b61319d61318661316e565b5f613197613192613a77565b613a8b565b01611f3d565b565b6131a7612195565b50806131bc6131b66001610b4b565b91610b4b565b1461323a57806131d56131cf6002610b4b565b91610b4b565b1461322e57806131ee6131e86003610b4b565b91610b4b565b14613222576132066132006004610b4b565b91610b4b565b14613217576132145f61164f565b90565b61321f61082b565b90565b5061322b610dcc565b90565b50613237610e3b565b90565b506132436110f4565b90565b90565b61325d61325861326292613246565b610535565b6103dc565b90565b90565b61327c61327761328192613265565b610535565b6103dc565b90565b61328c612195565b50806132a161329b6001610b4b565b91610b4b565b1461332d57806132ba6132b46002610b4b565b91610b4b565b1461331c57806132d36132cd6003610b4b565b91610b4b565b1461330c576132eb6132e56004610b4b565b91610b4b565b146132fc576132f95f61164f565b90565b6133096301e13380613268565b90565b5061331962278d00613249565b90565b5061332a6301e13380613268565b90565b5061333a62278d00613249565b90565b6133476006610904565b61335282600661229a565b906133866133807f8be0079c531659141344cd1fd0a4f28419497f9722a3daafe3b4186f6b6457e093610560565b91610560565b9161338f610272565b80613399816104de565b0390a3565b906133b291906133ac611d3c565b91613a8e565b565b919091826133d26133cc6133c75f611979565b61042b565b9161042b565b14613446576133f6826133f16133ea60058590612daf565b869061077c565b611b74565b91909161344161342f6134297f17307eab39ab6107e8899845ad3d59bd9653f200f220920489ca2b5937696c3193610560565b93610560565b93613438610272565b918291826102e3565b0390a3565b613461835f918291630b61174360e31b835260048301610444565b0390fd5b61346e90610538565b90565b61347a90613465565b90565b61348690610554565b90565b9050519061349682610290565b565b906020828203126134b1576134ae915f01613489565b90565b61027c565b60209181520190565b6134de6134e76020936134ec936134d581612a8e565b938480936134b6565b95869101610349565b610354565b0190565b909261352390613519613530969461350f60808601975f870190610437565b6020850190610437565b60408301906105c8565b60608184039101526134bf565b90565b906135456135408361115d565b611148565b918252565b606090565b3d5f1461356a5761355f3d613533565b903d5f602084013e5b565b61357261354a565b90613568565b9193843b61358e6135885f61164f565b916103dc565b1161359b575b5050505050565b6135d35f6020946135de6135b66135b18a613471565b61347d565b9463150b7a029296986135c7610272565b998a98899788966116ef565b8652600486016134f0565b03925af180915f9261369c575b50155f146136595750600161360657505b5f80808080613594565b61360e61354f565b9061361882612a8e565b61362a6136245f61164f565b916103dc565b145f146136505761364c905f918291633250574960e11b835260048301610444565b0390fd5b50602081519101fd5b61367261366c630a85bd0160e11b610284565b91610284565b0361367d57506135fc565b613698905f918291633250574960e11b835260048301610444565b0390fd5b6136be91925060203d81116136c5575b6136b68183610a0e565b810190613498565b905f6135eb565b503d6136ac565b6136d46115ed565b506136dd612a92565b90565b369037565b9061370a6136f283611d19565b926020806137008693611cf6565b92019103906136e0565b565b600161371891036103dc565b90565b90565b61373261372d6137379261371b565b610535565b6103dc565b90565b634e487b7160e01b5f52601260045260245ffd5b61375a613760916103dc565b916103dc565b90811561376b570490565b61373a565b6137786115ed565b5061379561378582613bf2565b61378f60016127e5565b90612f87565b9061379f826136e5565b916137a8612195565b5060208301015b600115613812576137c26137ee9161370c565b916f181899199a1a9b1b9c1cb0b131b232b360811b600a82061a83536137e8600a61371e565b9061374e565b806138016137fb5f61164f565b916103dc565b1461380c57906137af565b50505b90565b505061380f565b61383061383591613828611613565b506002612ed9565b610904565b90565b91909280801561395f575b613861575b50509061385a61385f92916004612ed9565b61229a565b565b61386a84612e83565b918061388661388061387b5f611979565b61042b565b9161042b565b141580613944575b8061392a575b61390b57509161385a9161385f94936138b0575b509192613848565b8184906138ef6138e96138e37f8c5be1e5ebec7d5bd14f71427d1e84f3dd0314c0f7b2291e5b200ac8c7c3b92595610560565b92610560565b926108ae565b926138f8610272565b80613902816104de565b0390a45f6138a8565b613926905f91829163a9fbf51f60e01b835260048301610444565b0390fd5b5061393f613939848390612dc5565b156102d1565b613894565b50826139586139528361042b565b9161042b565b141561388e565b508161397b6139756139705f611979565b61042b565b9161042b565b1415613843565b61399761399182848691613e53565b156102d1565b6139a057505050565b6139ba6139b46139af5f611979565b61042b565b9161042b565b145f146139e0576139dc825f918291637e27328960e01b8352600483016105d5565b0390fd5b6139fa5f92839263177e802f60e01b84526004840161175f565b0390fd5b613a06613ef3565b613a0c57565b5f633ee5aeb560e01b815280613a24600482016104de565b0390fd5b5f90565b90565b613a43613a3e613a4892613a2c565b611b4a565b612b7b565b90565b613a747f9b779b17422d0df92223018b32b4d1fa46e071723d6817e2486d003becc55f00613a2f565b90565b613a7f613a28565b50613a88613a4b565b90565b90565b9091613aba92613a9f838290613f33565b613aa7612f0e565b92613ab15f611979565b90919293613578565b565b90565b613ad3613ace613ad892613abc565b610535565b6103dc565b90565b90565b613af2613aed613af792613adb565b610535565b6103dc565b90565b90565b613b11613b0c613b1692613afa565b610535565b6103dc565b90565b90565b613b30613b2b613b3592613b19565b610535565b6103dc565b90565b90565b613b4f613b4a613b5492613b38565b610535565b6103dc565b90565b90565b613b6e613b69613b7392613b57565b610535565b6103dc565b90565b90565b613b8d613b88613b9292613b76565b610535565b6103dc565b90565b90565b613bac613ba7613bb192613b95565b610535565b6103dc565b90565b90565b613bcb613bc6613bd092613bb4565b610535565b6103dc565b90565b90565b613bea613be5613bef92613bd3565b610535565b6103dc565b90565b613bfa612195565b50613c045f61164f565b9080613c33613c2d7a184f03e93ff9f4daa797ed6e38ed64bf6a1f010000000000000000613abf565b916103dc565b1015613e0b575b80613c5b613c556d04ee2d6d415b85acef8100000000613afd565b916103dc565b1015613dd0575b80613c7c613c76662386f26fc10000613b3b565b916103dc565b1015613d9c575b80613c9a613c946305f5e100610db0565b916103dc565b1015613d6b575b80613cb6613cb0612710613b98565b916103dc565b1015613d3c575b80613cd1613ccb6064613bd6565b916103dc565b1015613d0e575b613ceb613ce5600a61371e565b916103dc565b1015613cf5575b90565b613d0990613d0360016127e5565b90612f87565b613cf2565b613d25613d3691613d1f6064613bd6565b9061374e565b91613d306002613119565b90612f87565b90613cd8565b613d54613d6591613d4e612710613b98565b9061374e565b91613d5f6004613bb7565b90612f87565b90613cbd565b613d85613d9691613d7f6305f5e100610db0565b9061374e565b91613d906008613b79565b90612f87565b90613ca1565b613db9613dca91613db3662386f26fc10000613b3b565b9061374e565b91613dc46010613b5a565b90612f87565b90613c83565b613df4613e0591613dee6d04ee2d6d415b85acef8100000000613afd565b9061374e565b91613dff6020613b1c565b90612f87565b90613c62565b613e3c613e4d91613e367a184f03e93ff9f4daa797ed6e38ed64bf6a1f010000000000000000613abf565b9061374e565b91613e476040613ade565b90612f87565b90613c3a565b9190613e5d611581565b5080613e79613e73613e6e5f611979565b61042b565b9161042b565b14159283613e88575b50505090565b8091929350613e9f613e998461042b565b9161042b565b14908115613ee1575b50918215613ebb575b50505f8080613e82565b613ed9919250613ecd613ed391612eef565b9261042b565b9161042b565b145f80613eb1565b613eed91508290612dc5565b5f613ea8565b613efb611581565b50613f165f613f10613f0b613a77565b613a8b565b01610ac1565b613f2f613f29613f24613135565b6103dc565b916103dc565b1490565b9081613f4f613f49613f445f611979565b61042b565b9161042b565b14613fb057613f689190613f625f611979565b91612f95565b613f82613f7c613f775f611979565b61042b565b9161042b565b03613f8957565b613fac613f955f611979565b5f9182916339e3563760e11b835260048301610444565b0390fd5b613fd3613fbc5f611979565b5f918291633250574960e11b835260048301610444565b0390fdfea2646970667358221220f9d70a0ebd577c59db28bf27466e7fed5859eb0abef3c603289e9403c97504f464736f6c634300081e0033","linkReferences":{}},"methodIdentifiers":{"AGENCY_ANNUAL_FEE()":"2ce137f8","AGENCY_MONTHLY_FEE()":"7f7d0077","CLIENT_ANNUAL_FEE()":"8a365256","CLIENT_MONTHLY_FEE()":"b660df6a","addManager(address)":"2d06177a","adminToSubscription(address)":"0fa085ea","agencyRegistry()":"141bd4e0","approve(address,uint256)":"095ea7b3","balanceOf(address)":"70a08231","enterpriseUsers(address)":"2b08dd97","getApproved(uint256)":"081812fc","getManagers(uint256)":"e3be9da0","getSubscription(uint256)":"dc311dd3","isAgencySubscriber(address)":"476a8d43","isApprovedForAll(address,address)":"e985e9c5","isEnterpriseUser(address)":"66c0675e","isSubscriptionActive(address)":"14401329","name()":"06fdde03","owner()":"8da5cb5b","ownerOf(uint256)":"6352211e","recordProjectCreated(address,uint256)":"ca2b9c9c","removeManager(address)":"ac18de43","renewSubscription()":"6e307981","renounceOwnership()":"715018a6","safeTransferFrom(address,address,uint256)":"42842e0e","safeTransferFrom(address,address,uint256,bytes)":"b88d4fde","setApprovalForAll(address,bool)":"a22cb465","stablecoin()":"e9cbd822","subscribe(uint8,string)":"8fd32f43","subscriptionCounter()":"903a8298","subscriptions(uint256)":"2d5bbf60","supportsInterface(bytes4)":"01ffc9a7","symbol()":"95d89b41","tokenURI(uint256)":"c87b56dd","transferFrom(address,address,uint256)":"23b872dd","transferOwnership(address)":"f2fde38b","withdrawFees(address)":"164e68de"},"id":4}