{"abi":[{"type":"constructor","inputs":[{"name":"_stablecoin","type":"address","internalType":"address"}],"stateMutability":"nonpayable"},{"type":"function","name":"authorizeContract","inputs":[{"name":"contract_","type":"address","internalType":"address"},{"name":"status","type":"bool","internalType":"bool"}],"outputs":[],"stateMutability":"nonpayable"},{"type":"function","name":"authorizedContracts","inputs":[{"name":"","type":"address","internalType":"address"}],"outputs":[{"name":"","type":"bool","internalType":"bool"}],"stateMutability":"view"},{"type":"function","name":"getTreasuryMetrics","inputs":[],"outputs":[{"name":"deposits","type":"uint256","internalType":"uint256"},{"name":"sponsored","type":"uint256","internalType":"uint256"},{"name":"remaining","type":"uint256","internalType":"uint256"}],"stateMutability":"view"},{"type":"function","name":"getUserBalance","inputs":[{"name":"user","type":"address","internalType":"address"}],"outputs":[{"name":"","type":"uint256","internalType":"uint256"}],"stateMutability":"view"},{"type":"function","name":"getUserSpentGas","inputs":[{"name":"user","type":"address","internalType":"address"}],"outputs":[{"name":"","type":"uint256","internalType":"uint256"}],"stateMutability":"view"},{"type":"function","name":"owner","inputs":[],"outputs":[{"name":"","type":"address","internalType":"address"}],"stateMutability":"view"},{"type":"function","name":"receiveDeposit","inputs":[{"name":"user","type":"address","internalType":"address"},{"name":"amount","type":"uint256","internalType":"uint256"}],"outputs":[],"stateMutability":"nonpayable"},{"type":"function","name":"renounceOwnership","inputs":[],"outputs":[],"stateMutability":"nonpayable"},{"type":"function","name":"sponsorGas","inputs":[{"name":"user","type":"address","internalType":"address"},{"name":"gasAmount","type":"uint256","internalType":"uint256"}],"outputs":[],"stateMutability":"nonpayable"},{"type":"function","name":"stablecoin","inputs":[],"outputs":[{"name":"","type":"address","internalType":"contract IERC20"}],"stateMutability":"view"},{"type":"function","name":"totalDeposits","inputs":[],"outputs":[{"name":"","type":"uint256","internalType":"uint256"}],"stateMutability":"view"},{"type":"function","name":"totalSponsored","inputs":[],"outputs":[{"name":"","type":"uint256","internalType":"uint256"}],"stateMutability":"view"},{"type":"function","name":"transferOwnership","inputs":[{"name":"newOwner","type":"address","internalType":"address"}],"outputs":[],"stateMutability":"nonpayable"},{"type":"function","name":"userDeposits","inputs":[{"name":"","type":"address","internalType":"address"}],"outputs":[{"name":"","type":"uint256","internalType":"uint256"}],"stateMutability":"view"},{"type":"function","name":"userSpentGas","inputs":[{"name":"","type":"address","internalType":"address"}],"outputs":[{"name":"","type":"uint256","internalType":"uint256"}],"stateMutability":"view"},{"type":"function","name":"withdrawTreasury","inputs":[{"name":"amount","type":"uint256","internalType":"uint256"}],"outputs":[],"stateMutability":"nonpayable"},{"type":"event","name":"ContractAuthorized","inputs":[{"name":"contract_","type":"address","indexed":true,"internalType":"address"},{"name":"status","type":"bool","indexed":false,"internalType":"bool"}],"anonymous":false},{"type":"event","name":"DepositReceived","inputs":[{"name":"user","type":"address","indexed":true,"internalType":"address"},{"name":"amount","type":"uint256","indexed":false,"internalType":"uint256"}],"anonymous":false},{"type":"event","name":"GasSponsored","inputs":[{"name":"user","type":"address","indexed":true,"internalType":"address"},{"name":"contract_","type":"address","indexed":true,"internalType":"address"},{"name":"amount","type":"uint256","indexed":false,"internalType":"uint256"}],"anonymous":false},{"type":"event","name":"OwnershipTransferred","inputs":[{"name":"previousOwner","type":"address","indexed":true,"internalType":"address"},{"name":"newOwner","type":"address","indexed":true,"internalType":"address"}],"anonymous":false},{"type":"event","name":"Withdrawal","inputs":[{"name":"owner","type":"address","indexed":true,"internalType":"address"},{"name":"amount","type":"uint256","indexed":false,"internalType":"uint256"}],"anonymous":false},{"type":"error","name":"InsufficientUserBalance","inputs":[]},{"type":"error","name":"OwnableInvalidOwner","inputs":[{"name":"owner","type":"address","internalType":"address"}]},{"type":"error","name":"OwnableUnauthorizedAccount","inputs":[{"name":"account","type":"address","internalType":"address"}]},{"type":"error","name":"UnauthorizedContract","inputs":[]}],"bytecode":{"object":"0x60a0604052346100465761001961001461010b565b610163565b61002161004b565b6111dd61030a82396080518181816106bf0152818161090f0152610c7001526111dd90f35b610051565b60405190565b5f80fd5b601f801991011690565b634e487b7160e01b5f52604160045260245ffd5b9061007d90610055565b810190811060018060401b0382111761009557604052565b61005f565b906100ad6100a661004b565b9283610073565b565b5f80fd5b60018060a01b031690565b6100c7906100b3565b90565b6100d3816100be565b036100da57565b5f80fd5b905051906100eb826100ca565b565b9060208282031261010657610103915f016100de565b90565b6100af565b6101296114e78038038061011e8161009a565b9283398101906100ed565b90565b90565b61014361013e610148926100b3565b61012c565b6100b3565b90565b6101549061012f565b90565b6101609061014b565b90565b61017590610170336101c7565b610157565b608052565b90565b61019161018c6101969261017a565b61012c565b6100b3565b90565b6101a29061017d565b90565b6101ae906100be565b9052565b91906101c5905f602085019401906101a5565b565b806101e26101dc6101d75f610199565b6100be565b916100be565b146101f2576101f0906102aa565b565b6102156101fe5f610199565b5f918291631e4fbdf760e01b8352600483016101b2565b0390fd5b5f1c90565b60018060a01b031690565b61023561023a91610219565b61021e565b90565b6102479054610229565b90565b5f1b90565b9061026060018060a01b039161024a565b9181191691161790565b6102739061012f565b90565b61027f9061026a565b90565b90565b9061029a6102956102a192610276565b610282565b825461024f565b9055565b5f0190565b6102b35f61023d565b6102bd825f610285565b906102f16102eb7f8be0079c531659141344cd1fd0a4f28419497f9722a3daafe3b4186f6b6457e093610276565b91610276565b916102fa61004b565b80610304816102a5565b0390a356fe60806040526004361015610013575b6107bb565b61001d5f3561011c565b80630ba36dcd1461011757806311f1fc99146101125780631bf01c801461010d57806347734892146101085780635cbeb13f146101035780636c98249d146100fe578063715018a6146100f95780637d882097146100f45780638da5cb5b146100ef578063d2f34604146100ea578063d2f40718146100e5578063d5b9221b146100e0578063dc387942146100db578063e9cbd822146100d6578063eb0ebfbc146100d15763f2fde38b0361000e57610788565b610753565b61070f565b610685565b61061e565b61056d565b610538565b610503565b6104ac565b61046a565b610427565b6103c6565b61033c565b610307565b6102bb565b610240565b60e01c90565b60405190565b5f80fd5b5f80fd5b60018060a01b031690565b61014490610130565b90565b6101508161013b565b0361015757565b5f80fd5b9050359061016882610147565b565b9060208282031261018357610180915f0161015b565b90565b61012c565b90565b61019f61019a6101a492610130565b610188565b610130565b90565b6101b09061018b565b90565b6101bc906101a7565b90565b906101c9906101b3565b5f5260205260405f2090565b1c90565b90565b6101ec9060086101f193026101d5565b6101d9565b90565b906101ff91546101dc565b90565b610218906102136004915f926101bf565b6101f4565b90565b90565b6102279061021b565b9052565b919061023e905f6020850194019061021e565b565b346102705761026c61025b61025636600461016a565b610202565b610263610122565b9182918261022b565b0390f35b610128565b61027e8161021b565b0361028557565b5f80fd5b9050359061029682610275565b565b906020828203126102b1576102ae915f01610289565b90565b61012c565b5f0190565b346102e9576102d36102ce366004610298565b610a06565b6102db610122565b806102e5816102b6565b0390f35b610128565b610304906102ff6005915f926101bf565b6101f4565b90565b346103375761033361032261031d36600461016a565b6102ee565b61032a610122565b9182918261022b565b0390f35b610128565b3461036c5761036861035761035236600461016a565b610a3b565b61035f610122565b9182918261022b565b0390f35b610128565b151590565b61037f81610371565b0361038657565b5f80fd5b9050359061039782610376565b565b91906040838203126103c157806103b56103be925f860161015b565b9360200161038a565b90565b61012c565b346103f5576103df6103d9366004610399565b90610b11565b6103e7610122565b806103f1816102b6565b0390f35b610128565b9190604083820312610422578061041661041f925f860161015b565b93602001610289565b90565b61012c565b346104565761044061043a3660046103fa565b90610c6b565b610448610122565b80610452816102b6565b0390f35b610128565b5f91031261046557565b61012c565b346104985761047a36600461045b565b610482610df6565b61048a610122565b80610494816102b6565b0390f35b610128565b6104a960015f906101f4565b90565b346104dc576104bc36600461045b565b6104d86104c761049d565b6104cf610122565b9182918261022b565b0390f35b610128565b6104ea9061013b565b9052565b9190610501905f602085019401906104e1565b565b346105335761051336600461045b565b61052f61051e610e30565b610526610122565b918291826104ee565b0390f35b610128565b346105685761056461055361054e36600461016a565b610e45565b61055b610122565b9182918261022b565b0390f35b610128565b3461059c576105866105803660046103fa565b90610eaa565b61058e610122565b80610598816102b6565b0390f35b610128565b906105ab906101b3565b5f5260205260405f2090565b60ff1690565b6105cd9060086105d293026101d5565b6105b7565b90565b906105e091546105bd565b90565b6105f9906105f46003915f926105a1565b6105d5565b90565b61060590610371565b9052565b919061061c905f602085019401906105fc565b565b3461064e5761064a61063961063436600461016a565b6105e3565b610641610122565b91829182610609565b0390f35b610128565b60409061067c610683949695939661067260608401985f85019061021e565b602083019061021e565b019061021e565b565b346106b85761069536600461045b565b6106b46106a0610fec565b6106ab939193610122565b93849384610653565b0390f35b610128565b7f000000000000000000000000000000000000000000000000000000000000000090565b6106ea906101a7565b90565b6106f6906106e1565b9052565b919061070d905f602085019401906106ed565b565b3461073f5761071f36600461045b565b61073b61072a6106bd565b610732610122565b918291826106fa565b0390f35b610128565b61075060025f906101f4565b90565b346107835761076336600461045b565b61077f61076e610744565b610776610122565b9182918261022b565b0390f35b610128565b346107b6576107a061079b36600461016a565b6110a4565b6107a8610122565b806107b2816102b6565b0390f35b610128565b5f80fd5b6107d0906107cb6110af565b61090a565b565b601f801991011690565b634e487b7160e01b5f52604160045260245ffd5b906107fa906107d2565b810190811067ffffffffffffffff82111761081457604052565b6107dc565b60e01b90565b9050519061082c82610376565b565b9060208282031261084757610844915f0161081f565b90565b61012c565b91602061086d92949361086660408201965f8301906104e1565b019061021e565b565b610877610122565b3d5f823e3d90fd5b60209181520190565b5f7f5769746864726177616c206661696c6564000000000000000000000000000000910152565b6108bc601160209261087f565b6108c581610888565b0190565b6108de9060208101905f8183039101526108af565b90565b156108e857565b6108f0610122565b62461bcd60e51b815280610906600482016108c9565b0390fd5b6109337f00000000000000000000000000000000000000000000000000000000000000006106e1565b602063a9059cbb91610943610e30565b906109615f869561096c610955610122565b97889687958694610819565b84526004840161084c565b03925af18015610a0157610987915f916109d3575b506108e1565b61098f610e30565b6109ce6109bc7f7fcf532c15f0a6db0bd6d0e038bea71d30d808c7d98cb3bf7268a95bf5081b65926101b3565b926109c5610122565b9182918261022b565b0390a2565b6109f4915060203d81116109fa575b6109ec81836107f0565b81019061082e565b5f610981565b503d6109e2565b61086f565b610a0f906107bf565b565b5f90565b5f1c90565b610a26610a2b91610a15565b6101d9565b90565b610a389054610a1a565b90565b610a52610a5791610a4a610a11565b5060046101bf565b610a2e565b90565b90610a6c91610a676110af565b610ab8565b565b5f1b90565b90610a7f60ff91610a6e565b9181191691161790565b610a9290610371565b90565b90565b90610aad610aa8610ab492610a89565b610a95565b8254610a73565b9055565b610acd82610ac8600384906105a1565b610a98565b610b0c610afa7f3213ab8ec2ed122402f038736b41878b69ae9f61f49a7edd0666bce891d29fc9926101b3565b92610b03610122565b91829182610609565b0390a2565b90610b1b91610a5a565b565b610b26906101a7565b90565b604090610b52610b599496959396610b4860608401985f8501906104e1565b60208301906104e1565b019061021e565b565b5f7f4465706f736974207472616e73666572206661696c6564000000000000000000910152565b610b8f601760209261087f565b610b9881610b5b565b0190565b610bb19060208101905f818303910152610b82565b90565b15610bbb57565b610bc3610122565b62461bcd60e51b815280610bd960048201610b9c565b0390fd5b634e487b7160e01b5f52601160045260245ffd5b610c00610c069193929361021b565b9261021b565b8201809211610c1157565b610bdd565b90610c225f1991610a6e565b9181191691161790565b610c40610c3b610c459261021b565b610188565b61021b565b90565b90565b90610c60610c5b610c6792610c2c565b610c48565b8254610c16565b9055565b610c947f00000000000000000000000000000000000000000000000000000000000000006106e1565b60206323b872dd913390610cc45f610cab30610b1d565b95610ccf89610cb8610122565b98899788968795610819565b855260048501610b29565b03925af18015610da157610cea915f91610d73575b50610bb4565b610d1282610d0c610cfd600485906101bf565b91610d0783610a2e565b610bf1565b90610c4b565b610d2f610d2883610d236001610a2e565b610bf1565b6001610c4b565b610d6e610d5c7f9936746a4565f9766fa768f88f56a7487c78780ac179562773d1c75c5269537e926101b3565b92610d65610122565b9182918261022b565b0390a2565b610d94915060203d8111610d9a575b610d8c81836107f0565b81019061082e565b5f610ce4565b503d610d82565b61086f565b610dae6110af565b610db6610de3565b565b90565b610dcf610dca610dd492610db8565b610188565b610130565b90565b610de090610dbb565b90565b610df4610def5f610dd7565b61113b565b565b610dfe610da6565b565b5f90565b60018060a01b031690565b610e1b610e2091610a15565b610e04565b90565b610e2d9054610e0f565b90565b610e38610e00565b50610e425f610e23565b90565b610e5c610e6191610e54610a11565b5060056101bf565b610a2e565b90565b610e70610e7591610a15565b6105b7565b90565b610e829054610e64565b90565b610e94610e9a9193929361021b565b9261021b565b8203918211610ea557565b610bdd565b610ec7610ec1610ebc600333906105a1565b610e78565b15610371565b610fd057610edf610eda600483906101bf565b610a2e565b610ef1610eeb8461021b565b9161021b565b10610fb457610f1e82610f18610f09600485906101bf565b91610f1383610a2e565b610e85565b90610c4b565b610f4682610f40610f31600585906101bf565b91610f3b83610a2e565b610bf1565b90610c4b565b610f63610f5c83610f576002610a2e565b610bf1565b6002610c4b565b90339091610faf610f9d610f977fc9991e76367ebf3387530c533ae59ea7535aa764f043134baaf8b3dd3ad70626936101b3565b936101b3565b93610fa6610122565b9182918261022b565b0390a3565b5f6324aa779360e21b815280610fcc600482016102b6565b0390fd5b5f6372312d7960e01b815280610fe8600482016102b6565b0390fd5b610ff4610a11565b50610ffd610a11565b50611006610a11565b506110116001610a2e565b61101b6002610a2e565b916110396110296001610a2e565b6110336002610a2e565b90610e85565b91929190565b6110509061104b6110af565b611052565b565b8061106d6110676110625f610dd7565b61013b565b9161013b565b1461107d5761107b9061113b565b565b6110a06110895f610dd7565b5f918291631e4fbdf760e01b8352600483016104ee565b0390fd5b6110ad9061103f565b565b6110b7610e30565b6110d06110ca6110c561119a565b61013b565b9161013b565b036110d757565b6110f96110e261119a565b5f91829163118cdaa760e01b8352600483016104ee565b0390fd5b9061110e60018060a01b0391610a6e565b9181191691161790565b90565b9061113061112b611137926101b3565b611118565b82546110fd565b9055565b6111445f610e23565b61114e825f61111b565b9061118261117c7f8be0079c531659141344cd1fd0a4f28419497f9722a3daafe3b4186f6b6457e0936101b3565b916101b3565b9161118b610122565b80611195816102b6565b0390a3565b6111a2610e00565b50339056fea2646970667358221220441cd24ee76d87975f32f1bed35c61667006b01639c11ea87490c554a37d4b7864736f6c634300081e0033","linkReferences":{}},"methodIdentifiers":{"authorizeContract(address,bool)":"5cbeb13f","authorizedContracts(address)":"d5b9221b","getTreasuryMetrics()":"dc387942","getUserBalance(address)":"47734892","getUserSpentGas(address)":"d2f34604","owner()":"8da5cb5b","receiveDeposit(address,uint256)":"6c98249d","renounceOwnership()":"715018a6","sponsorGas(address,uint256)":"d2f40718","stablecoin()":"e9cbd822","totalDeposits()":"7d882097","totalSponsored()":"eb0ebfbc","transferOwnership(address)":"f2fde38b","userDeposits(address)":"0ba36dcd","userSpentGas(address)":"1bf01c80","withdrawTreasury(uint256)":"11f1fc99"},"id":5}